:020000040000FA
:1000000078250020150400001D0400001F040000D6
:10001000210400002304000025040000000000006B
:1000200000000000000000000000000027040000A5
:1000300029040000000000002B0400002D04000033
:100040002F0400002F040000AD0700003105000060
:100050002F0400002F0400002F0400002F040000D4
:100060002F0400002F0400002F0400002F040000C4
:100070002F0400002F0400002F0400002F040000B4
:100080002F0400002F0400002F0400002F040000A4
:100090002F0400002F0400002F0400002F04000094
:1000A0002F0400002F0400002F0400002F04000084
:1000B0002F0400002F0400000000000000000000DA
:1000C0002F0400002F0400002F0400002F04000064
:1000D0002F0400002F0400002F0400000000000087
:1000E0000000000000000000000000000000000010
:1000F0000000000000000000000000000000000000
:1001000000000000000000000000000000000000EF
:1001100000000000000000000000000000000000DF
:10040000DFF80CD000F062F800480047810F0000D0
:10041000782500200648804706480047FEE7FEE7AB
:10042000FEE7FEE7FEE7FEE7FEE7FEE7FEE7FEE7A4
:10043000410500000104000040EA01039B0703D0CE
:1004400009E008C9121F08C0042AFAD203E011F813
:10045000013B00F8013B521EF9D27047421C10F8D4
:10046000011B0029FBD1801A70472DE9F05F05467A
:10047000002092469B4688460646814640241BE063
:10048000284641464746224600F041F853465A4620
:10049000C01A914110D311461846224600F028F8A0
:1004A0002D1A67EB01084F4622460120002100F07B
:1004B0001FF817EB00094E41201EA4F10104DFDCF8
:1004C000484631462A464346BDE8F09F064C074D54
:1004D00006E0E06840F0010394E807009847103414
:1004E000AC42F6D3FFF790FFC8200000E8200000E0
:1004F000202A04DB203A00FA02F1002070479140E4
:10050000C2F1200320FA03F3194390407047202AD8
:1005100004DB203A21FA02F00021704721FA02F3AD
:10052000D040C2F1200291400843194670470000B4
:100530000149024800F07CBC180000200030004057
:1005400070B58D480023021D0178101D0124062975
:1005500007D115782D0704D10578C5F30315032DB0
:1005600002D0062904D00FE0854E844D75670EE059
:1005700015782D0708D10578C5F30315032D06D08E
:10058000042D04D0052D02D0062909D010E04FF02B
:100590008055D5F844527B4EC5F34235356002E0B4
:1005A00015782D0704D10578C5F30315032D02D066
:1005B000062906D011E0744D2E6826F080762E6054
:1005C0000EE015782D0708D10578C5F30315032D26
:1005D00006D0042D04D0052D02D006290AD011E042
:1005E0004FF08045C5F80C31C5F81031654D2D1F11
:1005F0002B6002E015782D0704D10578C5F30315AB
:10060000032D02D0062905D00CE05E4A0321643296
:1006100011600AE015782D0704D10578C5F303159C
:10062000032D02D006290DD06AE0584A0521116039
:10063000564978310C60554908310B603F21121D35
:10064000116002E0117809075AD10078C0F3031055
:10065000052855D14E4800684E4908604C48001D99
:100660000068091D08604A4808300068091D0860D4
:1006700047480C300068091D086045481030006884
:10068000091D0860424814300068091D0860404890
:10069000183000683F49203108603D481C30006830
:1006A000091D08603A4820300068091D0860384874
:1006B00024300068091D0860354828300068091D8D
:1006C000086033482C300068091D0860304830301D
:1006D00000683049403108602D4834300068091DF9
:1006E00008602B4838300068091D086028483C30F5
:1006F0000068091D0860264840300068091D086030
:1007000021487438016841F470010160BFF34F8FD4
:10071000BFF36F8F4FF01021D1F80002002803DBE8
:10072000D1F80402002822DA1B4A14601B4804682E
:10073000002CFCD01524C1F800420568002DFCD027
:10074000C1F8044201680029FCD013600168002947
:10075000FCD0BFF34F8F0C48F0380168104A01F409
:10076000E06111430160BFF34F8F00BFFDE70E4909
:100770000C48086070BD0000E00F00F00DF0ADBA4D
:1007800000C007403C050040FCED00E01056004072
:100790000404001020C5004004E5014000E40140CD
:1007A0000400FA050090D003140000200448017FE3
:1007B00004480029024901D001F0D3BB01F042BB3B
:1007C00040000020002000400FB4084B10B504A9E1
:1007D00002AA039800F01CF8044602A9002000F0C9
:1007E00048FA204610BC5DF814FB0000730C0000B2
:1007F00002E008C8121F08C1002AFAD170477047EA
:10080000002001E001C1121F002AFBD17047000047
:100810002DE9FF4F8DB00F460546002606E025283E
:100820000BD0DDE90F1290476D1C761C287800284C
:10083000F5D111B03046BDE8F08F0024A246A146A4
:100840000122EC4900E0044315F8013F203B02FA85
:1008500003F00842F7D128782A2810D06FF02F0231
:100860002878A0F13001092914D80AEB8A0102EB9B
:10087000410144F0020400EB010A6D1CF0E701CFD6
:100880005FEA000A03D544F40054CAF1000A44F0B8
:1008900002046D1C28782E2817D115F8010F44F09A
:1008A00004042A280ED06FF02F022878A0F130011E
:1008B00009290AD809EB890102EB410100EB010982
:1008C0006D1CF2E757F8049B6D1C28786C280FD03C
:1008D00006DC4C2817D068280DD06A2814D104E013
:1008E000742810D07A280FD10DE044F400140AE0E7
:1008F00044F4801401E044F440146978814202D148
:1009000004F580146D1C6D1C2A786E2A1FD00CDC37
:10091000632A31D004DC002A8BD0582A11D1A3E0FD
:10092000642A68D0692A0CD165E0732A2ED004DCD1
:100930006F2A73D0702A04D19BE0752A6FD0782A71
:100940006ED01046DDE90F129047761C50E1C4F3DB
:100950000250022806D0032809D0042801CF09D06C
:10096000066045E101CFF117C0E9006140E101CF28
:1009700006803DE106703BE117F8040B8DF800009E
:1009800000208DF80100EB46012003E057F804BB7E
:100990004FF0FF3061074FF0000102D40DE008F185
:1009A0000101884649450FDA8045F8DB1BF808103D
:1009B0000029F4D108E008F1010188468142FADB00
:1009C0001BF808100029F6D1DDE90F23AAEB080077
:1009D0008146214600F036F9304400EB080604E079
:1009E000DDE90F121BF8010B9047B8F10108F7D2AF
:1009F00021464846F7E00A21C4F302534FF0000BAA
:100A00000891022B04D001CFC117032B09D00AE0B3
:100A1000FF1D27F00707F7E8020108E032E01FE0BA
:100A200020E000B2C117042B01D140B2C117031E50
:100A300071F1000307DA4FF0000CD0EB0C006CEB07
:100A400001012D2302E0230504D52B238DF824304A
:100A5000012303E0E30701D02023F7E7984658E09D
:100A60000A2110E010210EE010204FF0000B08903A
:100A70000CE010214FF0000B44F004044FF0080983
:100A8000089103E008214FF0000B0891C4F30253D2
:100A9000022B04D001CF0021032B06D006E0FF1D5E
:100AA00027F00707F7E8020103E080B2042B00D12A
:100AB000C0B24FF0000823072BD5702A07D0DDF80D
:100AC00020C08CF0100C5CEA0B0C05D00EE040232B
:100AD0008DF82430012308E050EA010306D03023CA
:100AE0008DF824308DF8252002239846DDF820C0AB
:100AF0008CF0080C5CEA0B0C0BD150EA010301D11D
:100B0000630706D530238DF824304FF00108A9F192
:100B10000109582A04D038A20B9208AA0A920BE0C5
:100B20003AA2F9E75B46089AFFF79FFC0B9B9B5C98
:100B30000A9A521E0A92137050EA0102F2D10A98E0
:100B4000ADEB000000F1200B600702D524F48034E7
:100B500001E04FF00109D94502DDA9EB0B0000E0EF
:100B6000002000EB0B0141440890AAEB010AE003CE
:100B700006D4DDE90F232146504600F063F8064411
:100B80004FF0000908E009A911F80900DDE90F128A
:100B9000904709F10109761CC145F4DBE0030CD54F
:100BA000DDE90F232146504600F04CF8064404E0EE
:100BB000DDE90F1230209047761C0899481E0890F6
:100BC0000029F5DC08E00A980A990078491C0A9186
:100BD000DDE90F129047761CBBF10001ABF1010B70
:100BE000F1DC21465046DDE90F2300F019F80644F8
:100BF0006D1C1BE60928010030313233343536379D
:100C00003839616263646566000000003031323358
:100C100034353637383941424344454600000000F8
:100C20002DE9F041044600251E461746880404D4E9
:100C300005E039462020B0476D1C641EF9D52846D2
:100C4000BDE8F0812DE9F041044600251E4690469E
:100C5000C80301D5302700E02027880404D505E02B
:100C600041463846B0476D1C641EF9D52846BDE89C
:100C7000F0810A68531C0B60107070470BA10120B3
:100C800000F014FE00F06CFD00F06EFD0028FBD1BA
:100C9000BFF34F8F0B4801680B4A01F4E061114329
:100CA0000160BFF34F8F00BFFDE700004150505F70
:100CB0004552524F523A4552524F523A4661746130
:100CC0006C0D0A000CED00E00400FA050EB50021E1
:100CD0000091CDE901106A4644F20100FFF7CEFF12
:100CE0000EBD00F003B800F009B8000072B602486B
:100CF0000168491C01607047000000200349086832
:100D0000401E086000D162B670470000000000205D
:100D10002DE9F04105460878214F012606FA00F03A
:100D20000C463860086800F0BEFB0021606800F0E7
:100D3000B1FB28791B4901EB4010A169007F002815
:100D40002868C0F8241519D0607D217D2A680843E1
:100D5000C2F86C0518E00021A06800F09BFB207B26
:100D600086403E60E06800F09EFBD4E902122868ED
:100D7000C0F80825C0F81015BDE8F081607D227D1F
:100D800029681043C1F86C05D4E900122868C0F83E
:100D90000C15C0F81425207D0128DCD0ECE70000FC
:100DA0000805005040000020002901DA00207047AB
:100DB0000268114401600120704700002DE9F041F4
:100DC000461C01250020FFF78CFF1149741CD1E956
:100DD00000208F68101A3B1A5B1C9C420FD963B12C
:100DE0000C480D4B3A4000681B6801EB820263F32C
:100DF0009F20D0600868401C0860002501E0901921
:100E000008600020FFF76FFF2846BDE8F081000072
:100E1000600100209820000010000020034803C853
:100E2000814201D1012070470020704760010020FD
:100E30002DE9FF470D464FF492770446394600F0FE
:100E4000A3FD4FF002094FF001084FF4827640B144
:100E50003946204600F09DFD3146204600F094FDC5
:100E6000B0B3B2463146204600F08EFD4FF0FF365B
:100E7000002770B35146204600F08BFD05F10C00B1
:100E800001AB07C883E8070095F8230078B1287BF9
:100E900001282DD0D4F84C05C0B28DF80600287B6F
:100EA000022828D0D4F84C05C0B28DF807004FF4C2
:100EB000B071204600F06DFD4FF4AE71204600F099
:100EC00068FD95F8250080B395F8230068BB3CE0E9
:100ED00000E013E0A868C4F80803C5F80890A86803
:100EE000C4F80403C4F82080C4F81480BDE8FF8768
:100EF000D4F83C05D0E7D4F83C05D5E74FF4A4710D
:100F0000204600F046FD287B80B14FF40070C4F805
:100F10000002801CA860C4F80863A868C4F8040331
:100F2000C4F80880C4F82080E0E708E005F10C0070
:100F300001AB07C883E8070095F8250028B9002011
:100F4000C4F80002AF60C4F80863D4F8C404C4F85D
:100F5000C404810702D58DF8008006E0400702D561
:100F60008DF8009001E08DF8007095F8250008B923
:100F700085F82470D5E9002168469047B6E700005F
:100F800008B50025284600F0EDFC08B1FFF79EFEED
:100F900013A1032000F08AFC00F0F8FD01240123D6
:100FA0006A462146144800F011F928B90125224665
:100FB00012A1032000F0A0FC00F0D6FB0028FBD11A
:100FC000641CE4B27F2CEAD945B918A1032000F0D3
:100FD0006DFC00BF00F0C8FB0028FBD1FEE700005D
:100FE0004150503A494E464F3A5457492073636135
:100FF0006E6E65722E0D0A00542000004150503A6A
:10100000494E464F3A5457492064657669636520D6
:1010100064657465637465642061742061646472DE
:1010200065737320307825782E0D0A004150503AB0
:10103000494E464F3A4E6F20646576696365207766
:10104000617320666F756E642E0D0A0000283ED015
:101050001F49204A096800BF00BF00BF00BF00BF92
:1010600000BF00BF00BF91422FD000BF00BF00BF34
:1010700000BF00BF00BF00BF00BF00BF00BF00BF78
:1010800000BF00BF00BF00BF00BF00BF00BF00BF68
:1010900000BF00BF00BF00BF00BF00BF00BF00BF58
:1010A00000BF00BF00BF00BF00BF00BF00BF00BF48
:1010B00000BF00BF00BF00BF00BF00BF00BF00BF38
:1010C00000BF00BF00BF00BF00BF401EC3D17047BC
:1010D000140000200024F4004907090E002806DA55
:1010E00000F00F0202F1E02282F8141D03E000F18B
:1010F000E02282F8001400F01F0201219140400913
:10110000800000F1E020C0F88012C0F800117047A4
:101110000121B1EB507F01D10120704700207047C1
:101120000179064A01EB8101006802EBC101062248
:10113000C0F80025022081F8220070471800002026
:1011400070B506460D4600791F4900EB800001EBA3
:10115000C00494F8220008B1082070BD0020C4E942
:101160000023A06084F8250084F82400A87B84F87C
:101170002700687B10B1284600F0B0FC296840F2D7
:101180000C60890001F1A041C1F80007696889007D
:1011900001F1A041C1F80007D5E900123068C0F89C
:1011A0000815C0F80C25A968C0F82415206828B1D6
:1011B0003068297B000B40B2FFF78EFF012084F8D6
:1011C0002200002070BD0000180000203EB5074D31
:1011D0002C68AD6800948DF80110019202958DF88D
:1011E00002300022694600F003F83EBD6C2000008A
:1011F00030B40379064C03EB830304EBC3040068AB
:1012000013460A460146204630BC00F0D5BC00001B
:10121000180000202DE9F041044600792D4F90463A
:1012200007EB40150E46E87E10B10820BDE8F081BE
:10123000707F28772046FFF76BFD5FEA0800686043
:101240003169296031D0207996F81C8007EB401075
:101250004FF4A276007F0028206814D04FF48871E4
:1012600000F0B3FB4FF49071206800F0AEFB4FF438
:101270009271206800F0A9FB3146206800F0A5FBC0
:101280001549206809E04FF48E7100F08DFB31465E
:10129000206800F089FB11492068C0F80413206819
:1012A0004146000B40B2FFF717FF207907EB4010D3
:1012B000007F0028206801D0082100E00421C0F848
:1012C00000150020E8752876A8750121E976A87632
:1012D000ACE7000040000020100302008000020084
:1012E0002DE9F047054600793E4C0E4604EB4013CD
:1012F000187F38B14FF40050B0EB164F02D01020D9
:10130000BDE8F087284600F06FF808B11120F7E734
:101310009A7500279E609F8228794FF0010804EBA0
:1013200040143E46207F0028286825D04FF490794D
:10133000494600F04AFB4FF4AC7A5146286800F069
:1013400044FB2868A17DA268C0F84425C0F8481570
:101350002868C0F808806068F0B94946286800F03D
:101360002FFB80465146286800F02AFB58EA00010E
:10137000F3D058BBA7750FE04FF48E7A514600F0BA
:1013800013FB2868C0F808802146286800F034FD67
:1013900061684FF4807089B13046B1E751462868E2
:1013A00000F0FDFA10B9A08A4845F7D1A08A484557
:1013B00005D02146286800F01FFD00E08146A08A84
:1013C000A17D8842EAD3A08A484501D10F26D1E702
:1013D0005146286800F0E3FA0028F9D02868C0F8E0
:1013E0000C80C7E7400000200079044901EB401061
:1013F000807D002800D001207047000040000020C0
:1014000070B50179144A002502EB41140168237F6D
:10141000C1F800556168C9B1017902EB4111097F3A
:101420000029016801D00D4A01E00C4A8C3AC1F84C
:10143000082301680122090B49B201F01F039A40F9
:101440004909890001F1E021C1F8802100F0C3FAC7
:10145000E576656070BD00004000002010030200CA
:1014600030B541EA4201DDE9034541EA83018000EC
:1014700041EA042100F1A04041EA0541C0F800170B
:1014800030BD1CB5002100910B4601220191FFF7F0
:10149000E7FF1CBD1CB500220B46009211460192CD
:1014A000FFF7DEFF1CBD1CB5002100910B46012299
:1014B00001911146FFF7D4FF1CBD000001218140BE
:1014C000014801607047000008050050004870475F
:1014D0004515000030B5184C054689B0207828B174
:1014E0006078854202D1002009B030BD2022134926
:1014F0006846FEF7A1FF00208DF81400062000903A
:101500000820019005200390072002904FF0EB7017
:1015100006900948001DFFF773FF0DB1002200E09F
:10152000074A05486946001DFFF774FE0028DBD115
:10153000012020706570D6E70400002078200000AC
:10154000351E00002DE9F04FC1B00D00DDF82CB1C3
:101550004D984FF000011C4690460BEB000A40915D
:1015600001D00A2600E0002600F084FA002873D19A
:101570006F46BCB9409840AA3918284600F096FA40
:10158000002869D04046FEF769FFC22800D9C22072
:10159000054640982A4638444146FEF74DFF40989C
:1015A000284440904FF020094098821931320DEBC9
:1015B00002016844002202E000F8019B521CB24282
:1015C000FAD30027544508D300F8019B00F8019B8B
:1015D00000F8019B01F8019B26E05C4502D24A9A83
:1015E000125D03E04C9AA4EB0B03D25C8446012508
:1015F000AB0022FA03F808F00F03092B01D93733A7
:1016000000E03033C5F101086D1E0CF80830EFD250
:101610000CF10200A2F1200300F8019B5E2B00D91F
:101620002E2201F8012B641C7F1C102FCAD30D221F
:101630000A700A224A7080F800904098811943315C
:101640006846409100F01CFA30B100F013FA18B966
:10165000002040905445A7D341B02046BDE8F08F0C
:101660002DE9F043C5B000251C46904689464C9FA5
:10167000449500F0FFF9B0BB449804AE311844AA79
:10168000484600F013FA00282ED0072F22D2DFE8B8
:1016900007F00412192E384451004046FEF7DEFED2
:1016A000054644982918FF2914D830442A46414653
:1016B000FEF7C2FE0EE04498226830444146FFF730
:1016C00083F806E0D4E90023449841463044FFF70C
:1016D0007BF80546294644A8FFF766FB18B14499F4
:1016E000B1F5807F33D9002045B0BDE8F083A06814
:1016F0000090D4E90023449841463044FFF764F851
:10170000E7E7D4E90201CDE90001D4E900234498D8
:1017100041463044FFF758F8DBE704F1080007C8FA
:101720008DE80700D4E90023449841463044FFF790
:101730004BF8CEE704F108000FC88DE80F00D4E99C
:101740000023449841463044FFF73EF8C1E704A81F
:1017500000F096F9C8E700000048704761160000E5
:101760000120FFF7B7BE00002DE9F04F87B0FFF76B
:1017700055FB18B1002007B0BDE8F08F454ED6E903
:10178000014704EA070006EB8000A146641CC56817
:101790000CE000BFC5F3891000EB9550044404EA47
:1017A000070006EB8000A146C568641CA807F1D0BD
:1017B00005F003004FF0000B022805D0AA0A01A88B
:1017C000C5F38313002153E004EA070006EB800011
:1017D00004F1010A0AEA0704C268381B80004FEAD4
:1017E0009558001DC5F38913804521D929490C312D
:1017F00038B106EB840400F0FF0CA8EB00000C34B9
:1018000004E00C46002108F0FF0C0846C0B2CDE908
:101810000210CDE9004CD6F81444C5F3C200594675
:10182000A047404511D108F103080AEB98042AE0CB
:10183000002106EB84000C300090CDE9018103917A
:10184000C5F3C200D6F81444EAE760F38F1509EA3D
:10185000070006EB8000C56016E000BF04EA070C35
:1018600006EB8C0C491CDCF80CC040F804CB641C63
:101870009942F3D3C5F3C2000093D6F8105401ABDC
:101880005946A84700B17460FFF7C8FA80F001001C
:1018900071E7000060010020034AFF2393600023EA
:1018A0001360536000F056B8600100202DE9F04746
:1018B000DFF83C800446002689463046D8F8087098
:1018C000D8F80050FFF77AFA00280ED00948002116
:1018D0003D40406861F3820064F3C50066F38910FF
:1018E00008EB850169F39F20C860BDE8F087000020
:1018F00060010020982000002DE9F047DFF84C80BF
:1019000005460127924689463846D8F80860D8F837
:101910000040FFF753FA002815D00D48002104EAD3
:1019200006028068641C61F3820065F3C50067F3FA
:10193000891008EB8202344069F39F2008EB840190
:10194000D060C1F80CA0BDE8F08700006001002065
:1019500098200000024A02F5826203C2704700002C
:101960006001002070B506460020FFF7B3FD0400BB
:1019700008D1FFF7ABFD0546FFF7EEFE32462946DC
:10198000FFF78AFF204670BD4058002800D0012094
:10199000704708B5002242504058009008BD40589A
:1019A000002800D00120704708B50022425040585E
:1019B000009008BDD0F80403084000D00120704713
:1019C0004058002800D00120704708B5002242503E
:1019D0004058009008BD70B502464FF0FF301168C6
:1019E000D1F80C35D1F81465D1F80855D1F8104567
:1019F000C1F80C05C1F814051168C1F80805C1F853
:101A000010051846FFF73DFD3046FFF73AFD601C14
:101A100002D02046FFF735FD681C04D02846BDE8FB
:101A20007040FFF72EBD70BD70B50546C87D0C46F1
:101A300000284FF4847128460AD0FFF7B5FFD5F887
:101A40001805627EE1688854607E401C607670BD37
:101A5000FFF7AAFFD5F8180570BD1FB501238DF853
:101A600000308DF808100192D0E9001268469047C6
:101A70001FBD00000148FFF7B7BC000008000020B0
:101A800070B50D460A46014601240648FEF7D4FC0F
:101A9000EAB204490448FFF723FC00B100242046C1
:101AA00070BD0000600000200800002010B5144642
:101AB00002004FF001000AD00846126805A1FEF7A7
:101AC00083FE01462046BDE81040FFF76DB90021B6
:101AD000216010BD5B253038645D00002DE9F041C8
:101AE000044640F20C602168890001F1A041C1F870
:101AF00000076168890001F1A041C1F80007206872
:101B0000FFF7DCFC6068FFF7D9FC216840F20D604C
:101B1000890001F1A041C1F800076168890001F165
:101B2000A041C1F800070420FFF790FADFF85880C1
:101B300000250126A8F104072079D8F80010C1403B
:101B400011F0010F02D0002D1BD00FE0207806FA13
:101B500000F038600420FFF779FA2068FFF7AEFC48
:101B60000420FFF773FA6D1C092DE5DB2079864010
:101B70003E600420FFF76AFA6068BDE8F041FFF7B5
:101B80009DBCBDE8F0810000100500501FB5094B59
:101B90000FCB8DE80F00074800231A466946083826
:101BA000FFF7CEFA08B1FFF791F802480838FFF7BF
:101BB000B7FA1FBD5C2000002DE9F05F06461F4606
:101BC00015460C464FF0000A4FF0080B4FF482798F
:101BD0005068FFF79DFA00287ED04FF0FF30C4F820
:101BE000080396F8240028B1B068C4F80403112053
:101BF000BDE8F09F780703D4F80601D4012000E087
:101C0000002086F8240095E8070006F10C0383E81D
:101C10000700C7F3001086F825006878C4F8880527
:101C20004FF482712046FFF7B4FE4FF492712046C4
:101C3000FFF7AFFEF8074FF0010800D04046C4F8A8
:101C40005005B80701D5404600E00020C4F8400523
:101C5000287800286CD001287DD002284ED0032897
:101C600014D04FF0070A380704D42878032801D08D
:101C700044F80B80306800286ED0780702D54FF406
:101C80000070B060B068C4F80403B0E0A868FFF763
:101C90003FFA08B34FF48070C4F80002A87869686E
:101CA000C4F84415C4F848054FF4A8712046FFF75E
:101CB00070FE4FF4B0712046FFF76BFE4FF4A47135
:101CC0002046FFF766FEC4F82080C4F8088000BFF5
:101CD0004FF4A871204600E028E0FFF755FE0028E9
:101CE000F6D04FF4A8712046FFF753FEE978A868B4
:101CF000C4F84405C4F848153E4815E0A87869685A
:101D0000C4F84415C4F84805A868FFF701FA68B19B
:101D1000E878A968C4F83415C4F838054FF484503D
:101D2000C4F8000240F20220B0609CE710205FE798
:101D3000A8786968C4F84415C4F84805B8060FD5F2
:101D40004FF48070C4F800022A48B0604FF4A479C0
:101D50004946204601E00CE01BE0FFF71AFE05E0D3
:101D60004FF40070C4F80002801CB060C4F82080FA
:101D700079E7A8786968C4F83415C4F838054FF4D1
:101D80008050C4F8000240F20220B0604FF0000B17
:101D9000ECE745464FF482774FF492780BE04146EA
:101DA0002046FFF7F1FD30B141462046FFF7F1FD37
:101DB00025626561B94649462046FFF7E5FD0028E2
:101DC000EDD0D4F8C404C4F8C404002186F824106B
:101DD00068B10321C20701D04FF40241820701D547
:101DE00048F20121400701D548F202218A465046B7
:101DF000FEE600000002040070B50C4605464FF4F4
:101E00008E71FFF7D1FDA18AA068415CA08A401CB9
:101E1000A082C5F81C1570BD1FB500228DF80020EA
:101E20008DF80810816801918275D0E9001268462A
:101E300090471FBD0078012801D101498870704783
:101E4000040000202DE9FF470C4605464FF40071C1
:101E5000FFF7B0FD01274FF40178002618B34FF4C7
:101E6000927949462846FFF79AFDE0B1494628464F
:101E7000FFF79AFDC5F80883A07E00B96F600220C5
:101E80008DF80000D5F88004C5F880040390E07D4B
:101E90008DF80800E0680190E6752676D4E9001216
:101EA0006846904727E004212846FFF783FD10B3DA
:101EB0004FF484712846FFF772FDE0B121462846B1
:101EC000FFF7B2FDE07D617E884214D1207E38B1FB
:101ED000617EE268E0752069E0602676667607E05C
:101EE000A07E00B96F60C5F80883E675617EE26880
:101EF0002046FFF7B2FD4FF48E7841462846FFF7A3
:101F00004EFD88B1A08AA17D884204D22146284690
:101F1000FFF772FF08E041462846FFF745FDA17D27
:101F200011B12046FFF778FF4FF4A27841462846CA
:101F3000FFF735FD002812D041462846FFF734FD53
:101F4000A07E00B12F60E07D002808D0E675617E9C
:101F5000E26804B02046BDE8F047FFF77EBDBDE86B
:101F6000FF872DE9FF410C464FF49277054639462D
:101F7000FFF726FD0026C0B139462846FFF725FDAC
:101F800002208DF80000D5F88004C5F88004039085
:101F9000D5F83C058DF80800E0680190E6752676D6
:101FA000D4E900126846904724E04FF48877394618
:101FB0002846FFF705FDE8B139462846FFF705FD3D
:101FC000D5F83C05C1B2E07D884213D1207E60B1D6
:101FD000E268D5F8000220F02000C5F80002207E5B
:101FE000E0752069E060267601E0E675E26820464B
:101FF000FFF733FD4FF4A27739462846FFF7E0FCA0
:1020000068B139462846FFF7E0FCE07D38B1E67557
:10201000D5F83C05E268C1B22046FFF71EFD4FF43B
:10202000907631462846FFF7CBFC00280FD031468A
:102030002846FFF7CAFCA07D002808D0D5F84C053B
:1020400004B0C1B22046BDE8F041FFF7E5BEBDE8EF
:10205000FF81000000300040000100001B00000074
:102060001A000000000098010200000001000000BA
:102070000000000000000000FFFFFFFFFFFFFFFF68
:10208000FFFFFFFFFFFFFFFF000000000000000058
:102090000000D60106010000290000000100000038
:1020A000010000000100000001000000010000002C
:1020B0000100000001000000020000004F76657280
:1020C000666C6F770D0A0000E82000000000002019
:1020D00018000000F0070000002100001800002098
:1020E0006025000000080000000000000000000063
:1020F0000020004000000000BC2000000090D00341
:0400000500000401F2
:00000001FF
