:020000040001F9
:10F00000202A00203D16020087FA01003B00020082
:10F010007704020017080200011602000000000039
:10F0200000000000000000000000000023160200A5
:10F030002F16020000000000591602005B160200A5
:10F04000D90F02005D1602000F1302005F160200C6
:10F050006116020063160200E1020200651602005A
:10F0600067160200691602006B1602006D16020098
:10F070006F16020071160200731602007516020068
:10F080007716020017F80100791602007B160200BD
:10F0900099F801007D160200AF0E02007F160200F3
:10F0A00081160200831602008516020087160200F0
:10F0B000891602008B16020000000000000000000C
:10F0C0008D1602008F1602009116020093160200A0
:10F0D0009516020097160200991602000000000023
:10F0E0000000000000000000000000000000000020
:10F0F0000000000000000000000000000000000010
:10F1000000000000000000000000000000000000FF
:10F1100000000000000000000000000000000000EF
:10F40000012100F01F029140DFF8A82505E001214D
:10F4100000F01F029140DFF8A025400942F82010BB
:10F420007047012100F01F029140DFF89025F4E7BA
:10F430004901002807D5DFF8882500F00F00801863
:10F4400000F8041C7047DFF87C25815470470000E9
:10F45000002842D0DFF87015DFF87025096800BF7A
:10F4600000BF00BF00BF00BF00BF00BF00BF914290
:10F470002FD000BF00BF00BF00BF00BF00BF00BF54
:10F4800000BF00BF00BF00BF00BF00BF00BF00BF84
:10F4900000BF00BF00BF00BF00BF00BF00BF00BF74
:10F4A00000BF00BF00BF00BF00BF00BF00BF00BF64
:10F4B00000BF00BF00BF00BF00BF00BF00BF00BF54
:10F4C00000BF00BF00BF00BF00BF00BF00BF00BF44
:10F4D00000BF401EC3D1BFF35F8F704710B5DFF888
:10F4E000F014DFF8F0444FF4003008604FF480313E
:10F4F000DFF8E404016401600120206000F001F9FC
:10F50000012060600020DFF8D444206100F0F9F8A9
:10F510000020A07210BD70B5DFF8C0040178C26889
:10F5200019E01C46DB69B3B1AB42FAD19C4202BF81
:10F53000F569C560002D07D1DFF8A46401253560A9
:10F54000002505610125C5721D68DB69E36113B102
:10F550001C682C191C60437899421DD043681824FC
:10F5600014FB0133491C8478C9B2A14208BF0021B1
:10F570001C78022C02D0032C05D0ECE7C6685D682D
:10F5800034462346CFE7C368002B1FBF00241C74FA
:10F59000DB69C360F7D1DEE7C068904214BF012089
:10F5A000002070BDF0B5DFF83414CA6800E0CB600D
:10F5B00068BB0B784C78A34257D04C68182515FBD4
:10F5C00003445B1C8D78DBB2AB4208BF00230B7099
:10F5D00025786368012D04BF1D7C002DE9D1A56845
:10F5E0005D60E5689D602569DD6064699C61CC7A39
:10F5F0000CB100245C600C695D68DFF8E8732E1BB9
:10F600003602360ABE4205D29C68A4190AE00346B7
:10F61000D869F0E7641B24029D68240AAC4234BF19
:10F620002C1B00241C6000245C609C6001241C7462
:10F630000024DC61CC68002CB9D025681E68B54276
:10F6400003D3AD1B2560DC61B1E725462F68B742C7
:10F6500005D22C46ED69F61B002DF7D101E0BF1B4A
:10F660002F601E60DD61E361A2E7C868904214BFAD
:10F6700001200020F0BD2DE9F843DFF86043E06889
:10F68000002839D0D0F80080DFF85C532E68276955
:10F69000F01B0002000A00F10309A07A90B9DFF81C
:10F6A0004C034FF48031016401601120FFF7B9FE73
:10F6B0001120FFF7A5FECE490120086000F021F8D7
:10F6C0000120A072C14538BFC14609EB0700000206
:10F6D000000AE863801B2968891B09020002090AE5
:10F6E000000AC91C88420AD22868E86300F009F8B9
:10F6F000BDE8F24311208AE6BDE8F143EEE6BDE83D
:10F70000F1832F20A4E62DE9F047B44E737A3069D7
:10F71000317AD6F80C800025994281460A460DD0F0
:10F72000521CD2B2022A08BF002206EB8201012736
:10F730004C6920180002000A306101E00024002713
:10F740003272FFF7E8FEF1688246EFB1002312E063
:10F75000241AC318002010600846D169D76857B131
:10F7600003EB090E4FEA0E2E4FEA1E2EC2F804E0FC
:10F770009760D561054629B10A4610688442E7D2F0
:10F78000001B10604FF0010AF1602846FFF70AFFE6
:10F7900000280EBFBAF1000F4046FFF76CFF0020B3
:10F7A000F072BDE8F0878D494870704710B58B49FD
:10F7B0004A788C78531CDBB2A34208BF00230C7834
:10F7C000A34201D1002010BD03704868182111FB2D
:10F7D000020010BD70B582B0044600260D468DF8BB
:10F7E0000060684600F008F90DF10100FFF7DEFF48
:10F7F00008B9042605E0057044609DF80100FFF794
:10F80000D2FF9DF8000000F012F916B91420FFF79E
:10F81000FEFD304676BDF8B57648704C0021016497
:10F8200041648164C16401604160E6689EB36E48D2
:10F8300000682169401A070200253F0A30688742A4
:10F8400016D33F1A45193046F669017C71B1002183
:10F85000017442698169E369180005D01046984730
:10F8600020B100F0FFF801E008469047002EE5D1F6
:10F87000607A217A814201BF401C6072C0B20228C6
:10F8800004BF00206072607A04EB800045611420A0
:10F89000BDE8F240BBE5F1BD35E72DE9F041044696
:10F8A000174617F003000E46984600D10FB90720FF
:10F8B0001DE0FFF713FE0020484D2880E8602881F6
:10F8C000C5F81C80AE706F601420FFF7AAFD0621FA
:10F8D0001420FFF7ADFD1420FFF792FD424E0621E4
:10F8E00074601120FFF7A4FD306828610020BDE896
:10F8F000F0813A4B5B6843B1130018BF002801D177
:10F90000072070470068037C0BB108207047037420
:10F9100041744261002070472DE9F04106462F48AE
:10F9200082B04068002818BF002E0C46904605D0D3
:10F93000052C38BF07202CD3706908B9082028E0AF
:10F94000707C01280CBF2546002500278DF800702B
:10F95000684600F051F80DF10100FFF727FF08B9E4
:10F9600004270DE00121017046601F49096881608C
:10F97000C4600561C0F814809DF80100FFF713FF13
:10F980009DF8000000F053F817B91420FFF73FFD71
:10F990003846BDE8F68111494968002918BF00289A
:10F9A00001D0416909B90820704700210174022182
:10F9B00010E7000000E100E000E200E080E200E08B
:10F9C00018ED00E000E400E0142200200024F40020
:10F9D00080E100E00410014008130140EC2A0020FF
:10F9E00008100140FFFF7F0004150140041301408F
:10F9F000001001400011014030B5EFF3108172B6E4
:10FA0000144A936873B90123134C93602568134B10
:10FA10001D4015602360636853604FF0FF326260E1
:10FA2000002200E00122027001B962B630BD09492E
:10FA30008A6862B158B9EFF3108072B6084A0B6851
:10FA400013604B68536000228A6000B962B6704749
:10FA500000000000542B002080E100E0FC06FFBC09
:10FA600000E100E010B584B06946002200230024C4
:10FA70001CC100F001F81FBD02906A46002144F24B
:10FA8000010000F001B8FEE7BFF34F8F0548064ABA
:10FA9000016801F4E06111430160BFF34F8F00BFC3
:10FAA000FDE700BF0CED00E00400FA050870000A55
:10FAB00048700220704730B50D4683B00446288850
:10FAC0000930824201D20C203EBD68466DDFF0B99C
:10FAD0002988082008551B212888401C28800622D8
:10FAE00080B201550DF1010100F082F9001900F01A
:10FAF00069FA2888801D288080B29DF800104A0885
:10FB000018BF012202552888401C288000203EBDD5
:10FB100070B5054682B028780C46012804BF697884
:10FB2000002901D1072076BD11888E1CB3421FD356
:10FB3000012804D168780818801C834218D3581A09
:10FB4000831EADF80030694610880019801C7DDFE7
:10FB500058BB297802290FD1BDF800009BB283421F
:10FB600008D20820ADF80030BDF80010FF290CD3F2
:10FB70000C2076BD0920F7E708200129F2D1697829
:10FB80009BB28B42EED90B46ECE71388491C195502
:10FB90001188491C118089B208551088401C1080BA
:10FBA000BDF8001008181080002076BD2DE9FC4734
:10FBB0000A9E0B9C37884FF0000E054688469146FA
:10FBC000F24607E030889DF8001050FA81F030804E
:10FBD0000AF1010A288882452FDA686850F82A005D
:10FBE00001900022694601A865DF98BB9DF80000DE
:10FBF0004845EDD1BEF1000F14BF0020022031882E
:10FC00009DF8002012FA81F252FA80F084421DDB46
:10FC1000BEF1000F09D1481C30804FF0010E80B2B8
:10FC200000F803803088401C308069463088C21854
:10FC300001A865DF0028C5D00CE0BEF1000F08D098
:10FC40003088C01B401E80B2FF2801DD0C2001E07F
:10FC5000F8540020BDE8F6872DE9FC41089F099C77
:10FC6000019416460546984600970222FFF79EFF2C
:10FC700038B9019400974346102231462846FFF7D1
:10FC800095FFBDE8F681F8B51446054620880E4676
:10FC9000811D8B4201D20C20F2BD298806290EDB82
:10FCA00040F68147B9424FF6FF7301DB994206D116
:10FCB0006A88062A03DBBA4203DB9A4205D0072092
:10FCC000F2BD994201D08A42F9D305218155122112
:10FCD0002088401C208080B281552088401C2080D4
:10FCE00080B281192888FFF7E1FE218851FA80F05F
:10FCF000208080B281196888FFF7D8FE218851FAE8
:10FD000080F020800020F2BD70B5044616460D46F6
:10FD1000A0883188801C10FA81F2921C934201D392
:10FD2000FF2801D30C2070BD401C4855FF213088AE
:10FD3000401C308080B241553088401C308080B2F9
:10FD400041192088FFF7B2FE318851FA80F03080E7
:10FD5000A2885AB1A16809B9072070BD80B24019C4
:10FD600000F030F93088A18808183080002070BD7C
:10FD70002DE9F04100F128060C463068154690B395
:10FD80004FF0000809E080B2001900F01BF9288844
:10FD9000B9880818288008F101085FFA88F83079D6
:10FDA000804522D230680C2111FB0807B888801CDE
:10FDB000FF2801D30C2019E02988401C0855162182
:10FDC00000F016F8015500F013F801193888FFF714
:10FDD0006DFE298851FA80F02880BA88002ADAD08E
:10FDE000B9680029CFD1072000E00020BDE8F081EC
:10FDF0002888401C288080B270472DE9F0431746C0
:10FE000083B00546B7F80090002005F12C080E4697
:10FE1000388098F8011031B14A4639463046FFF72C
:10FE20004AFE002835D1A978C1B13888001D814526
:10FE30002ED3684679DF00282BD1398803208855D6
:10FE4000192100F085F880B28119BDF80000FFF794
:10FE50002DFE398851FA80F038800020E97879B198
:10FE60003888C21C914549B212D302228255012220
:10FE70003888401C388080B2825500F069F8002034
:10FE80006968C1B191F900003988CA1C914501D255
:10FE90000C2052E002228A550A223988491C3980F6
:10FEA00089B28A553988491C398089B28855388881
:10FEB000401C38800020298949B100F044F806220E
:10FEC000022105F10800FFF7C7FE002835D1298A75
:10FED00041B100F038F80722032105F11000FFF7C7
:10FEE000BBFE50BB298B41B100F02DF81522142127
:10FEF00005F11800FFF7B0FEF8B92C6A2CB100F03C
:10FF00001EF82046FFF7BFFEB8B96C6A2CB100F0AE
:10FF100016F82046FFF7F8FE78B998F8001029B1D6
:10FF200000F00DF82846FFF723FF30B9297821B1FA
:10FF300000F005F82846FFF7EBFDBDE8FE834B46D1
:10FF40003A4631467047CDF80490009733467047E3
:10FF50003888401C388080B281553888401C3880F1
:10FF6000704730B591B00C461F21ADF80210ADF8C6
:10FF7000001050B1C17849070DD50DF1020209A951
:10FF8000FFF73BFFE0B909AD02E00025ADF8020044
:10FF90005CB1E07808B1072012E06A4601A920466A
:10FFA000FFF72BFF60B901AA02E00022ADF80000C4
:10FFB000BDF80030BDF80210DBB2C9B2284672DFCE
:10FFC00011B030BD62B38B0708D0521E11F8013B4F
:10FFD00000F8013B00F024808B07F6D1830740F046
:10FFE000208000BF103A07D330B4B1E83810103A7F
:10FFF000A0E83810F9D230BC530724BFB1E808108C
:020000040002F8
:10000000A0E8081044BF51F8043B40F8043BD20775
:1000100024BF31F8022B20F8022B44BF0B78037069
:100020007047083A07D3B1E80810083A40F8043B93
:1000300040F804CBF7D25307E4E7FEE7DFF8DC1320
:100040000858012818BF0020704700F1804000F5D3
:10005000C04081B00021016000680090009801B0AC
:10006000704741EA420141EA8302009942EA0122D3
:10007000019942EA0141DFF8A8230BE0DFF8A02351
:1000800052F8203023F4403342F8203052F8203028
:1000900043EA014142F820107047DFF88813401806
:1000A00090F9300008288041C00F7047DFF87413C2
:1000B000401890F930000828ACBF0120002070479C
:1000C000DFF86013401890F93000C043C00F70474C
:1000D000F0B5002A4FF0FF3307BF08240C25002499
:1000E0000825DFF8406300E0641CAC420DD256F8EE
:1000F00024709F42F8D1831983F8304046F82410C9
:1001000012B9A11981F84800234658B2F0BDDFF8B2
:1001100014134FF0FF3241F820200828A4BF4018E4
:1001200080F84820704738B5DFF8F84294F854005A
:1001300008B1082032BDFF22202104F1300000F078
:100140007DF900252846FFF7E2FF6D1C0C2DF9DB39
:100150000621062000F090F94FF4BE70FFF775FFFE
:10016000DFF8C4124FF000400860012084F854000A
:10017000002032BDDFF8AC0290F8540000B101203D
:100180007047F0B583B005460F461646FFF798FF57
:10019000002408B108243CE0FA7831462846FFF7ED
:1001A00097FF064616F1010F32D0B87838B19C4857
:1001B00050F8251021F0020140F8251007E00190C9
:1001C000009000227B7800212846FFF74AFF39780B
:1001D000F87898B19548964B50F826201A4040F888
:1001E00026202B02090450F8262003F4F85301F4CA
:1001F00040311943114340F826100AE0894832186B
:10020000301892F8482042EA811180F8481000E046
:1002100004242046FEBDF8B50E460446814DFFF786
:1002200045FF6719B8B197F93000401990F94800B7
:100230000006800F032805D17E480068E040C00713
:1002400002D503E0012801D1022100E0032120466C
:10025000BDE8F44012E72046FFF71FFFD0B197F941
:100260003040724850F8241041F0010140F8241049
:10027000A00000F5807000B2FFF7E7FE002E1EBF61
:1002800097F9300055F82000002803D00120664976
:10029000A0400860F1BD10B50446FFF707FF20B18C
:1002A0002046BDE810400021E8E62046FFF7F5FEB5
:1002B00078B15C485D49201890F9300051F8202051
:1002C0005208520041F82020012101FA00F05A4959
:1002D000086010BD57490968C14001F0010070472E
:1002E0002DE9F84F0025A8464FF480760127082411
:1002F00030B2FFF7A3FE00281EBF4B48006838420B
:1003000003D030B2FFF7A1FE3D437F00361D641ECF
:10031000EED14FF4BE70FFF791FE40B14FF4BE70C6
:10032000FFF793FE4348D0F8008045F000452806CB
:1003300017D0012700263D4C2F420ED054F826003E
:1003400054F82610374A52F82620130005D0090C1D
:1003500001F00301C0F3042090477F00761C082EB3
:10036000EAD3002D57D54FF0FF300025009001E073
:1003700080460095002400262A48301890F9500045
:10038000C1B210F1010F21F0C0093AD0009820FA53
:1003900009F0C00735D5880900F0030A214809EBA8
:1003A000000191F9301050F821B0BBF1000F02D1DB
:1003B000BAF1030F25D1012000FA09F7BAF1030FB2
:1003C000174808BF3D4350F82900000C17EA080FF2
:1003D00000F0030002D0022813D101E0032810D15D
:1003E000BAF1030F07D102280CBF032102214846AE
:1003F000FFF744FE641CBBF1000F02D05146484693
:10040000D847761C042EB7D3E4B2002C1EBF09488F
:1004100000684045ACD1BDE8F18F000000600040AD
:1004200000070050202A00200463004010650040AF
:10043000FFE0FCFF100500500863004062F30F224C
:1004400062F31F4200B500BF130096469446103970
:1004500028BFA0E80C50FAD85FEA417C28BF0CC046
:1004600048BF40F8042BC90728BF20F8022B48BF1B
:1004700000F8012B00BDFEE710B54901020006D5CA
:100480000A4B00F00F04E31803F8041C01E0084CC9
:1004900001554109012200F01F0002FA00F0054A4F
:1004A00042F82100044A42F8210010BD18ED00E096
:1004B00000E400E080E200E000E100E000B50FF2BF
:1004C0004831C5489DB00A68807C00928DF80200D2
:1004D00038210FA800F09CF902208DF83C0038214B
:1004E00001208DF83E0006208DF83F0001A800F0A5
:1004F0008FF90120ADF81400CDF818D001A90FA88C
:10050000FFF72FFD08B1FFF7ADFA1DB000BDB348EE
:100510004FF4002219B1426000210160704702606F
:1005200041607047007838B9AD4800883B2176DFDC
:10053000002818BFFFF796BA7047FFF793BA1FB5A8
:10054000684600210022002300241EC04020ADF890
:100550000A008DF8001001918DF80810ADF80C100C
:10056000684673DF08B1FFF77DFA9C484FF400310D
:10057000416004601FBD30B5994989B004462588A3
:100580000888964A022D4FF4802339D0102D0ED0C2
:10059000112D19D0132D25D03B2D2DD0512D33D019
:1005A000522D24D0552D4DD0562D25D050E05360DE
:1005B000002010604FF40030106000205060A088D0
:1005C000088000F0B4F940E01360002050604FF65E
:1005D000FF70088000F0BBF908B1FFF743FAFFF79E
:1005E000AEFF35E00023002285217FDF2DE00023D0
:1005F00000220021A9DF28E0A088132176DF24E073
:10060000A088002167DF20E06846A11D1022FFF7C7
:10061000D9FC9DF80000D8B19DF8080004281CBF43
:100620000628052814D19DF80000022818BF0120D3
:100630008DF8100004A94FF4C170ADF81400A08823
:10064000A8DF02E0A0881721ADDF08B1FFF70AFAA2
:1006500009B030BD10B50446FFF78DFF204600F00D
:1006600017FA2146BDE810405B4800F05BBA0D2840
:1006700018BFFFF7F7B980B5574800F036FB0028E0
:100680001CBF43F20201884205D008281CBFBDE808
:100690000240FFF7E7B901BD10B58AB000204FF462
:1006A0006021504B21FA00F2D20744BF032243F8E5
:1006B0002020401C2028F5D34848474C01600023E7
:1006C0000021416004F11C0205210020FFF7E5F83C
:1006D00008B1FFF7C7F940F26662012104F1E400B6
:1006E00000F0F3F808B1FFF7BDF90FF22010006831
:1006F00000900023502204F19401684600F0A9FB09
:1007000008B1FFF7AFF903AA0121002000F0DEFBDA
:1007100008B1FFF7A7F91720ADF81C0003A800F0F7
:10072000EDFB08B1FFF79EF92F4800F0B9FB08B1C7
:10073000FFF798F911208DF800000D220FF2B80193
:1007400068467CDF08B1FFF78DF901A8002100227F
:1007500006C05020ADF80400ADF80810A020ADF898
:1007600006004FF4C870ADF80A0001A87ADF08B19E
:10077000FFF778F91D4800906946204600F08AFA94
:1007800008B1FFF76FF9FFF799FE1C2103A800F0ED
:100790003FF8002003904FF4202004904FF42030C5
:1007A000059003208DF818000020ADF81A008DF890
:1007B0001C000F4808900F48099003A800F017F993
:1007C00008B1FFF74FF9FFF7BAFE3EDF0028FCD073
:1007D000FFF748F9F9E7000028210020080500503C
:1007E0001822002000070050550602000F050200E5
:1007F000250502003B0502004E6F726469635F428B
:100800006C696E6B79000000231500000100000781
:100810000022FFF717BEFEE7F8B500260124554D6C
:1008200007E051407A6881F00101130018BF90473A
:10083000761C2878F6B286421ED26868296900EBD9
:10084000C60797F9000004FA00F00842F0D021EA48
:10085000000028613878FFF73DFD01463878EA68E6
:1008600004FA00F31A4001FA00F39A42E0D17A78D0
:10087000012A18BF0022D4E7F1BDF8B505460120D2
:1008800000FA05F63B4C04F11400FFF784F8D8B9E0
:100890002069F743304215D12846FFF71BFDE16878
:1008A000002814BF46EA010007EA0100E0600022C8
:1008B0002069A1683043206104F11400BDE8F840CC
:1008C000FFF72AB838402061F1BDF8B51646052E6D
:1008D00004460D4601D20720F2BDFFF74BFC10B9CC
:1008E000FFF721FC10BB23480FF298078660002118
:1008F00044600570C16001611F4E2846451E78B1F5
:1009000039680091EDB204EBC500324681788DF86C
:10091000011069460078FFF734FC0028EDD0F2BDE5
:10092000164A0FF25C000021FEF7E3FFF2BD38B576
:100930000024104D06E0686810F834000121FFF72C
:100940006AFC641C28788442F5D3002032BD38B597
:100950000024084D05E0686810F83400FFF79BFCA0
:10096000641C28788442F6D305F11400BDE83240B7
:10097000FFF711B8B82A00207B080200190802000E
:10098000CC2A002003000000614940880A88904278
:1009900023BF4988814201200020704710B55D4C7B
:1009A00082B0E08B4FF6FF7188421FD0217F227BFF
:1009B000491C2177C9B28A4207D3554975DFA8B1CE
:1009C000A1690A0012D0884713BD00212177217C3C
:1009D00031B13B2176DF18B1A1690A0018BF884701
:1009E0006169080002D0002000F04EF813BD38B550
:1009F0000446484D284621461C22FFF7F3FA002002
:100A000068772168424C0029204612D000F07CF81B
:100A100020467ADF60B94FF6FF70E8830020287720
:100A20000021BDE838403C4A0FF2F400FEF761BFF8
:100A300032BD7BDF0028EED032BD10B582B0374822
:100A4000344CFFF7A1FFB0B9607F20B161690800A5
:100A500017D0002013E0207F00280CBF6168A16838
:100A6000002204F12000FEF757FF50B1A1690A00EF
:100A700007D0884705E06169080002D0012000F036
:100A800003F80020607713BD8DF800006846084722
:100A900010B501461F4C0A882048102A06D0112A9A
:100AA0000ED0122A29D0502A10D010BD8A88E28395
:100AB000103100F029F800202077E08918BB1FE0F2
:100AC0004FF6FF70E083002020770BE0881DE2895D
:100AD0000188914204BF4189022914D10C3000F0F1
:100AE00030FA68B904F12000FEF755FF58B1A1694A
:100AF0000A0008D0BDE810400847083100F004F8AB
:100B0000BDE8104099E710BD0822FFF75BBA00006E
:100B1000602B0020782A00209D090200682B00200D
:100B2000982A00200A88102A04D0112A04D0502ABA
:100B300006D07047898801E04FF6FF7181827047C7
:100B400031F8062F43889A4204BF4A89012A04D10A
:100B5000826913001CBF097B1047704710B58EB027
:100B600004461C2107A8FFF753FE9DF81C0040F027
:100B70000A008DF81C000321002008900A900B90B9
:100B80000C900D90A07C8DF8060041F22550ADF838
:100B900004006846FFF73CFE11208DF800008DF838
:100BA0000100142100F06DF802A8FFF731FE01A842
:100BB0000290CDF80CD00120ADF81000A31C00204D
:100BC000ADF8120002AA0120ADF8140007A9002018
:100BD00006902088A2DF0EB010BD10B590B004467C
:100BE000032101A8FFF714FE11208DF804008DF8F1
:100BF00005001C219DF8060000F0F90040F00200FD
:100C00008DF8060008A8FFF703FE9DF8200040F0CD
:100C100012008DF820000321002009900B900C9009
:100C200001A80D9000200E90A07C8DF80A0041F2E2
:100C30002450ADF808006846FFF7EAFD11208DF852
:100C40000000142100208DF8010000F01AF803A81C
:100C5000FFF7DEFD02A80390CDF810D00120ADF81B
:100C6000140004F10A030020ADF8160003AA0120C5
:100C7000ADF8180008A9002007902088A2DF10B066
:100C800010BD9DF8020000F0E20040F002008DF877
:100C90000200704770B5044686B04FF6FF700D46EF
:100CA000A08201AE2868A0610FF274000FC886E828
:100CB0000F0004F1120101A863DFA0B9A07C8DF838
:100CC0000200224641F22350ADF80000694601209F
:100CD000A0DF40B929462046FFF77FFF18B9294613
:100CE0002046FFF73BFF06B070BD32B586B001214C
:100CF000ADF80010002201A90023002400253CC10A
:100D000001218DF806104189ADF80410CDF80CD002
:100D100006A9049101A9808AA6DF07B030BD0000B2
:100D200023D1BCEA5F782315DEEF12120000000029
:100D3000012100F01F029140764A04E0012100F0F9
:100D40001F029140744A400942F820107047202841
:100D500004DA7249C14001F001007047402807DA07
:100D60000121203811FA00F018BF0120C0B27047ED
:100D70000120704710B50446FFF7E9FF10B942F2B1
:100D8000010010BD200006D5654900F00F02511882
:100D900011F8041C01E0634AA15C490908290ED23C
:100DA000002918BF01290AD0042918BF052906D037
:100DB0005D498A6832B9FFF7BBFF002010BD42F2DF
:100DC000020010BD400951F82020012304F01F0447
:100DD000A3401A4341F82020EFE7FEF755BE7CB54B
:100DE000524C207888B3E068002500280CBF01260B
:100DF000002600E09DB9607838BB684648DF0528CA
:100E000008BF01250BD010B1FEF72CFE07E00098BB
:100E100000F005F9216908001CBF0098884796B9C1
:100E2000607890B96088ADF8040001A9A06861DF1E
:100E3000052808BF012606D010B1FEF713FE02E018
:100E4000A068E16888473542D4D073BD3748007840
:100E5000704770B5044611B111F0030001D00720AE
:100E600070BD324D2B48A9606A806B60006810F03D
:100E700001061CBF0020FFF761FF2D49204610DF4F
:100E8000040005D016B10020FFF752FF204670BDC8
:100E90000120287000F0C8F8BDE87040162069E70E
:100EA00001000FBF0E202149C8600020704780B5A7
:100EB0001E484068010005D0804730B1BDE80240BF
:100EC000FEF7D0BDBDE8014089E701BD70B505461C
:100ED0000E4614461C212046FFF79AFC0120208074
:100EE00026720020A0616572207D00F0FE00207552
:100EF00028001CBF0120A072002070BD82B00D49E7
:100F000000910099019101A960DF009902B070473A
:100F10000000000000E100E080E100E0FC06FFBC12
:100F200018ED00E000E400E0542B0020402B0020EE
:100F3000DB0D0200282100200178407841EA0020E2
:100F4000704780B5FFF7F8FFFFE700F0010002BD32
:100F50004FF0804181B000224250405800900098EC
:100F600001B0704700F18040006800B10120C0B2BC
:100F7000704710B5354C207808B1852010BDA060B1
:100F800060602061E0600621FFF776FAFFF75EFF00
:100F900010B92F490120086001202070002010BDE9
:100FA00000208DF800006846FEF726BD9DF8000081
:100FB000FEF73DBD38B50400244814BF00F110050C
:100FC00000F1080504E00868286020464968884761
:100FD00029680029F7D131BD38B54FF48070FFF78B
:100FE000C1FF1A4C1B4D48B14FF48070FFF7B0FFA2
:100FF0000120286060700020FFF7DCFF4FF4827052
:10100000FFF7B0FF50B14FF48270FFF7A1FF02204D
:1010100028600120A070BDE83240CBE731BD002838
:1010200008BFFFF7C7BF704710B582B0FFF7B8FF22
:10103000064C207808B9FFF79CFFE068401CE06090
:101040000120A070FFF7B2FF13BD00002C2B002081
:10105000180500400803004008E010E0D0F8040341
:10106000084018BF0120C0B2704700BF81B0002205
:101070000A5008580090009801B0704700BF085807
:1010800000B10120C0B2704738B50D4604464FF498
:101090008E71FFF7E1FFA868A98A085CA98A491C3C
:1010A000A982C4F81C0531BD38B50D460446E87D5B
:1010B00000284FF48471204604D1FFF7CDFFD4F807
:1010C000180531BDFFF7C8FF687ED4F81815EA6827
:1010D0008154687E401C687631BD00B585B00346FA
:1010E00001208DF808108DF80000019268461968FB
:1010F0005A680EE000B585B0024600208DF8000069
:101100008DF808109068019000209075684611686D
:101110005268904705B000BD7FB50D4604464FF4B8
:101120000071FFF79BFF4FF4017620B34FF49271EB
:1011300000F07BF8F8B14FF492712046FFF78CFF76
:10114000C4F80863A87E08B90120606002208DF809
:101150000000D4F88004C4F880040390E87D8DF882
:101160000800E86801900020E875287629686A6818
:101170006846904729E004212046FFF76FFF20B31F
:101180004FF4847100F051F8F8B129462046FFF77A
:101190008BFFE87D697E884217D1287E40B1EA68DE
:1011A000697EE8752869E86000202876687609E09D
:1011B000A87E08B901206060C4F808630020EA68CE
:1011C000E875697E2846FFF788FF4FF48E7100F0BE
:1011D0002CF890B1A88AA97D884204D229462046DD
:1011E000FFF752FF09E04FF48E712046FFF734FFFE
:1011F000A97D11B12846FFF77DFF4FF4A27100F0E1
:1012000014F888B14FF4A2712046FFF725FFA87E9D
:1012100008B101202060E87D30B10020EA68E8755F
:101220002846697EFFF759FF7FBD2046FFF715BFAF
:101230007FB50C464FF492710546FFF71FFF05F28C
:101240003C56C0B14FF4927100F05EF802208DF868
:101250000000D5F88004C5F88004039030688DF84C
:101260000800E06801900020E0752076216862683F
:101270006846904722E04FF488712846FFF7FEFE4B
:10128000E0B14FF4887100F03FF83168E07DC9B2F9
:10129000814213D1E268207E60B1D5F8000220F0CF
:1012A0002000C5F80002207EE0752069E060002083
:1012B000207600E0E0752046FFF70FFF4FF4A271A3
:1012C0002846FFF7DBFE68B14FF4A27100F01CF86E
:1012D000E07D38B10020E07520463168E268C9B28F
:1012E000FFF7FBFE4FF490712846FFF7C7FE50B1A1
:1012F0004FF4907100F008F8A07D20B13169C9B2B7
:101300002046FFF7F7FE7FBD2846FFF7AEBE044933
:1013100004480A7F002A18BFFFF78ABFFCE60000D6
:101320000C2B00200020004010B56D4801780629E4
:1013300004BF017911F00F0F02BF017A01F0F00133
:10134000302902D1674A6849116002786749062A44
:1013500004BF027912F00F0F0ED1826802F0F00381
:10136000302B1EBF402B02F0F002502A04D1604AFD
:101370001268C2F342324A600278062A04BF027938
:1013800012F00F0F02BF027A02F0F002302A04D1ED
:10139000584A136823F0807313600278062A04BF4A
:1013A000027912F00F0F0ED1826802F0F003302B99
:1013B0001EBF402B02F0F002502A04D14E4A0023F7
:1013C000136053600B600278062A04BF027912F0A2
:1013D0000F0F06D1027A02F0F002302A04BF032276
:1013E0008A660178062904BF017911F00F0F02BF48
:1013F000017A01F0F001302908D1404905220A6044
:1014000001228A6700228A603F224A600178062909
:1014100004BF017911F00F0F02BF007A00F0F00055
:10142000502823D1364937480A6802604A6842602A
:101430008A688260CA68C2600A6902614A69426158
:101440008A690262CA6942620A6A82624A6AC2623E
:101450008A6A0263CA6A42630A6B02644A6B426424
:101460008A6B8264CA6BC264096C01652648C16FCD
:1014700041F47001C167BFF34F8FBFF36F8F2349F2
:101480000A68002A5CBF4A68002A21D5204A012345
:101490001360204B1C68002CFCD015240C601C68C9
:1014A000002CFCD015244C6019680029FCD00021C8
:1014B000116019680029FCD0BFF34F8F0168164AEC
:1014C00001F4E06111430160BFF34F8F00BFFDE7FE
:1014D00001490248086010BD142200200090D0038A
:1014E000E00F00F074C007400DF0ADBA38050040C1
:1014F00044020010FCED00E00C01004010560040DA
:101500000404001020C500400CED00E000120010A3
:1015100004E5014000E401400400FA0519E050F838
:10152000041BCB0744BFA9F101035918121F002364
:10153000042A41F8043BF9D25FEA827C0B4604D5C9
:101540004FF0000CA1F800C09B1CD10744BF002144
:10155000197050F8042B002AE1D1704730B50168AA
:1015600042688468091801EB5203D20748BF4C4413
:101570000C30994200D130BD11F9012B11F8015BFB
:10158000002A04F8015B02D5521CF9D1F1E7521E82
:10159000F4D5EEE710B5074979441831064C7C4480
:1015A000163404E00A68081D511888470146A14214
:1015B000F8D110BD2C000000480000004EF6885104
:1015C000CEF20001086840F470000860BFF34F8F4E
:1015D000BFF36F8F4FF00070E1EE100A704700000C
:1015E0003DFFFFFF50010000202A00200000000006
:1015F0006DFFFFFFA600000026000000282100204C
:10160000FEE700000120C046002801D0FFF7C2FF1E
:101610000020C046C046FFF73FF800F000F800F099
:1016200001B8FEE70746384600F002F8FBE7FEE7A0
:101630002021090326311820ABBEF9E70148804775
:1016400001480047291302004D160200C046C0465B
:10165000FFF7B4FFFFF7D6FFFEE7FEE7FEE7FEE782
:10166000FEE7FEE7FEE7FEE7FEE7FEE7FEE7FEE752
:10167000FEE7FEE7FEE7FEE7FEE7FEE7FEE7FEE742
:10168000FEE7FEE7FEE7FEE7FEE7FEE7FEE7FEE732
:10169000FEE7FEE7FEE7FEE7FEE781009B000D0D9B
:0D16A0000003006F0602000090D003FFFF62
:040000050002164D92
:00000001FF
