:020000040000FA
:1000000068440020D5040000DD040000DF04000087
:10001000E1040000E3040000E5040000000000002B
:10002000000000000000000000000000E7040000E5
:10003000E904000000000000EB040000ED040000F3
:10004000EF040000EF040000A11B0000EF0400001B
:10005000EF040000EF040000EF040000EF040000D4
:10006000EF040000EF040000EF040000EF040000C4
:10007000EF040000EF040000EF040000EF040000B4
:10008000EF040000EF040000EF040000EF040000A4
:10009000EF040000EF040000EF040000EF04000094
:1000A000EF040000EF040000EF040000EF04000084
:1000B000EF040000EF04000000000000000000005A
:1000C000EF040000EF040000EF040000EF04000064
:1000D000EF040000EF0400001D1900000000000004
:1000E0000000000000000000000000000000000010
:1000F0000000000000000000000000000000000000
:1001000000000000000000000000000000000000EF
:1001100000000000000000000000000000000000DF
:100400004B1C012B98BF70472DE9F003911C9B08F2
:10041000B1F80480B1F802900A8831F802CC804427
:10042000814402448444D9F80070D8F8006015680B
:10043000DCF80040C9F80060C8F80070CCF8005043
:100440001460D9F80470D8F804605568DCF80440EA
:10045000C9F80460C8F80470CCF80450546008313E
:100460005B1ED5D1BDE8F00370474B1C012B98BF34
:1004700070472DE9F003911C9B08B1F80480B1F896
:1004800002900A8831F802CC00EB580800EB5909B9
:1004900000EB520200EB5C0CD9F80070D8F8006059
:1004A0001568DCF80040C9F80060C8F80070CCF8A6
:1004B0000050146008315B1EDFD1BDE8F0037047C7
:1004C000DFF80CD001F04CF900480047892C0000FF
:1004D000684400200648804706480047FEE7FEE7DC
:1004E000FEE7FEE7FEE7FEE7FEE7FEE7FEE7FEE7E4
:1004F00035190000C10400009FED3D0A5FEA920C2F
:1005000057D000BFD0ED000A90ED011A0B1D60EE30
:10051000A00A083041EE010AF5EEC00AF1EE10FA29
:10052000A6BFB1EEE01A81ED001A81ED000AD0ED10
:10053000000A90ED011A191D60EEA00A083041EE84
:10054000010AF5EEC00AF1EE10FAA6BFB1EEE01A0C
:1005500083ED001A83ED000AD0ED000A90ED011A38
:100560000B1D60EEA00A083041EE010AF5EEC00A4C
:10057000F1EE10FAA6BFB1EEE01A81ED001A81ED9E
:10058000000A90ED001AD0ED010A191D21EE011AA2
:10059000083000EEA01AB5EEC01AF1EE10FAA6BFB0
:1005A000F1EEC10AC3ED000A83ED000ABCF1010CB3
:1005B000A8D112F0030208BF704700BFD0ED000AB7
:1005C00090ED011A0B4660EEA00A091D083041EEBD
:1005D000010AF5EEC00AF1EE10FAA6BFB1EEE01A7C
:1005E00083ED001A83ED000A521EE7D17047000028
:1005F000000000002DE9F04106462DED028B8C46EF
:100600000088736801EB80044508274601EB8500EC
:1006100004EB85025FEA95087DD000BFD1ED003A7A
:10062000D4ED001A91ED012A94ED013A73EEA16A1E
:1006300091ED024A91ED031AD4ED022AD4ED035A4A
:1006400090ED008A90ED017A90ED020A90ED036A38
:1006500092ED005AD2ED014AD2ED027AD2ED030AB0
:10066000C1ED006A72EE036A73EEE13A74EEC71AE6
:10067000C1ED016A74EE226A74EE622A37EEC04A56
:10068000C1ED026A71EE256AC1ED036A72EE436A3A
:1006900031EE652A38EE051A35EE483A80ED001A3B
:1006A00037EE241A80ED011A30EE271A80ED021A77
:1006B00036EE201A80ED031A30EEC61A93ED000ACA
:1006C000D3ED010A63EE804A26EEA05A66EE805A08
:1006D00063EEA03A74EE854A75EEE33AC4ED004A43
:1006E00063EE204AC4ED013A61EE803A61EEA00A61
:1006F00023EE000A74EEE31A30EE800AC2ED001A0F
:1007000082ED010A93ED020AD3ED030A62EE803A0C
:1007100022EE203A00E024E062EEA01A22EE002A47
:1007200073EE832A1030103172EE611AC4ED022A82
:1007300024EE202AC4ED031A61EE001A61EE200AAD
:1007400024EE000A103332EE611A103430EE800AC3
:1007500082ED021A82ED030A1032B8F101087FF42B
:100760005DAF294602236046726800F041FB726863
:100770002946BDEC028B3846BDE8F041022300F06B
:1007800037BB2DE9F34F2DED048B87B00B98008814
:10079000470801EB870000EB870606EB8705CDE9EC
:1007A0000056DDF82C80A5F1040C0CEB8703CDE995
:1007B00002014FEA5709D8F804800427CDE90497CD
:1007C000D1ED000A96ED000A90ED011A95ED013A7F
:1007D00070EE802A70EEC03AD1ED010A96ED010A62
:1007E000041F321F30EE802A70EEC01A31EE230A49
:1007F000D0ED000A32EE415A33EEC11A30EE434AD0
:1008000071EEE04A95ED000A70EEA11A35EE435AFA
:1008100074EE805A72EEE04A70EEA20A71EEC01ACF
:1008200031EE031A74EEC04A30EE800A062708F152
:10083000080A81ED000A90ED010AD5ED010A08F1E0
:10084000100B30EE020A08F1180830EE200A81ED94
:10085000010A80ED004AC0ED015AC6ED004A86ED5E
:10086000015A85ED001AC5ED011ADDF81090083027
:10087000083108350836A9F102095FEA590900F084
:10088000078100BFD1ED000A96ED000AD0ED011AF4
:10089000D5ED014A30EE802A30EEC05AD1ED010A82
:1008A00096ED010A70EE802A30EEC01A31EE850A0C
:1008B000D5ED000A30EE644A90ED000A31EE403A80
:1008C00030EE011A73EE205A32EE403A30EE020A50
:1008D00031EE601A73EE603A30EE200A32EEE13A01
:1008E00075EE611A81ED000A90ED010AD5ED010A5D
:1008F00033EE643A30EE220A71EEA41A30EE200A8A
:1009000081ED010AD4ED002ADCED004A54ED010A24
:100910001CED010A32EEA47A32EEE49A72EEE42A79
:1009200052ED018A70EE807A30EEC02A72EEE82A2B
:10093000D2ED000A93ED000A13ED018A30EEC05AA1
:1009400072EE886A77EEE82A35EE026A32EEC85A0D
:1009500077EE602A72EEC04A70EEC02A70EE870A07
:1009600072EEC22A30EE800A38EE682A84ED000A60
:1009700012ED010A53ED010A32EE492A30EE270A40
:1009800030EE200A04ED010A9AED000ADAED010AC0
:1009900064EE007A25EEA07A65EE805A24EE204AB5
:1009A00037EE877A35EEC44A80ED007A80ED014A51
:1009B00026EEA04A66EE005A66EE200A26EE800A6F
:1009C000083034EE654A083130EE800A82ED004A84
:1009D000083C02ED010A9BED000ADBED010ADDF89F
:1009E00014E023EE804A63EE205A23EE003A63EED1
:1009F000A03A083A34EE254A0BEB8E0B33EE633AFD
:100A000086ED004A0AF1080A86ED013AB1EE643A31
:100A1000083663EE003A25EE203A25EE000A64EE31
:100A2000A00A33EEC33A30EEC00A8CED003A0CED6A
:100A3000010A98ED000AD8ED010A08EB870861EE7B
:100A4000803A21EE203A21EE001A61EEA01AACF1B4
:100A5000080C33EE833A31EE611A85ED003A62EE0E
:100A6000801A85ED011A22EE201A62EEA00A22EE0B
:100A7000000A083531EE611A30EE800A83ED001A63
:100A800003ED010A083BB9F101097FF4FBAE00BF99
:100A9000D1ED000A96ED000A91ED011AD0ED015A50
:100AA00030EE802A70EEC00A96ED010A95ED015AEB
:100AB000042371EE001A71EE404A35EEA00A90ED63
:100AC000001A31EEE54A70EEE50A30EE453A95ED52
:100AD000000A34EE454A30EE855A74EEC12A72EEB1
:100AE000413A71EE240A31EE021A72EE802A73EE58
:100AF000C03A70EEC00A31EE000A81ED000A90EDB6
:100B0000010A95ED011A30EE210A30EE010A81ED5D
:100B1000010A9AED000A9AED011A63EE001A22EE1C
:100B2000812A22EE800A23EE011A71EE821A30EE3B
:100B3000410AC0ED001A80ED010A9BED000A9BED11
:100B4000011A63EE801A24EE012A24EE000A23EE35
:100B5000811A71EE821A30EE410AC6ED001A86ED56
:100B6000010A98ED010A98ED001A60EE801A25EE50
:100B7000012A60EE810A25EE000A32EE211A30EEDB
:100B8000C00A85ED001A85ED010A0B984268DDE97F
:100B9000030100F02DF90B98042304994268029890
:100BA00000F026F90B98042304994268019800F09C
:100BB0001FF90B98049904234268009807B0BDEC14
:100BC000048B02B0BDE8F04F00F012B92DE9F041FE
:100BD0000488984617460D460646012A20D1281D4E
:100BE000F4B1A0F1080114F0010F06D091ED020A52
:100BF000B1EE400A81ED020A08315FEA540C0FD0D1
:100C000091ED020AB1EE400A81ED020A91ED040A6B
:100C1000B1EE400A81ED040A1031BCF1010CEFD1B4
:100C2000B4F5807F1BD008DC102C13D0202C16D0FC
:100C3000402C19D0802C0DD01CE0B4F5007F13D0CF
:100C4000B4F5806F06D0B4F5006F08D0B4F5805FBE
:100C50000AD00FE029463046FFF7CCFC0AE02946CF
:100C60003046FFF78EFD05E02146012328467268D5
:100C700000F0BEF8B8F1000F04D0B1892846B26880
:100C8000FFF7BEFB012F18BFBDE8F08100EE104A50
:100C9000B7EE001A002CF8EE400A81EE200A08BFD9
:100CA000BDE8F081A5F1080014F0010F0ED0D0EDE1
:100CB000020A60EE800AC0ED020AD0ED030AF1EEEE
:100CC000600A60EE800AC0ED030A0830610808BFC0
:100CD000BDE8F081D0ED020A60EE800AC0ED020AA4
:100CE000D0ED030AF1EE600A60EE800AC0ED030A5F
:100CF000D0ED040A60EE800AC0ED040AD0ED050ACA
:100D0000F1EE600A60EE800AC0ED050A1030491E5F
:100D1000E0D1BDE8F081000070B44FF0000CB0EC01
:100D2000010A4E1E6446B50831D000BFD0ED000A5E
:100D300090ED011A0830B4EEE00AF1EE10FA3CBF73
:100D4000B0EE600A0CF10104F0EC010AB4EEC10A45
:100D5000F1EE10FA3CBFB0EE410A0CF10204B0EC27
:100D6000011AB4EEE00AF1EE10FA3CBFB0EE600AF0
:100D70000CF10304B4EEC10AF1EE10FA3CBFB0EE80
:100D8000410A0CF104046D1E0CF1040CCED106F0E6
:100D9000030C5FEA0C0617D0B6F1004F19D2002EF3
:100DA000C8BF002510DD00BFD0ED000AF4EEC00A78
:100DB000F1EE10FA04DD4C19B0EE600AA4EB0C045D
:100DC000001D6D1C761EEFD182ED000A1C6070BC08
:100DD0007047F0EC010AB4EEE00AF1EE10FA3CBF05
:100DE000B0EE600AA1EB0C04BCF1010CF1D1EBE711
:100DF0002DE9FF4F2DED108B82B09FEDFEFA0B46D3
:100E00001C46DB084FF0000C0CEB030505EB030858
:100E100008EB030909EB030606EB030A00EBCC071A
:100E200000EBC60697ED001AD6ED000A0AEB030B9D
:100E300000EBC50500EBCA0A31EE200A71EE601A1C
:100E400095ED002ADAED000A0BEB030E00EBC80863
:100E500032EE201A00EBCB0B32EE602AD8ED002ADE
:100E6000DBED000A00EBC90900EBCE0E99ED003A6C
:100E70009EED004A72EEA03A72EEE02A73EE040A8A
:100E800033EE443A70EE636A70EE233A31EE600A54
:100E900071EE200A33EEA01A73EEE00A87ED001A15
:100EA000C6ED000A97ED011AD6ED010AD5ED013A1B
:100EB00098ED014A31EE206A71EE600A9AED011A4E
:100EC00099ED015A73EE814A73EEC13A9BED011A16
:100ED00034EE017A34EE411A9EED014A75EE045A61
:100EE00035EE444A36EE475A36EE076A34EEE57A76
:100EF00074EEA54A76EE245A76EE644AC7ED015A9E
:100F0000C6ED014A76EE874AC8ED004A76EEC74A3A
:100F1000CBED004A75EE404A35EE000AC8ED014AB5
:100F20008BED010A32EE430A32EE032A20EE0F0A5D
:100F300062EE0F4A33EEC42AA4448C4522EE0F3AE7
:100F400033EE842A30EEC34A62EE0F3A30EE833A33
:100F500031EEC02A31EE800A71EE630A31EE231AB7
:100F600072EEE41A72EEA42A70EE013A30EE410AF3
:100F7000C5ED003A8EED000A32EE200A8AED000A35
:100F800032EE600A89ED000A33EE620A85ED010A4D
:100F900033EE220A8EED010A34EE610A8AED010A6F
:100FA00034EE210A89ED010AFFF42EAF082B3FBF72
:100FB00002B0BDEC108B04B0BDE8F08F4FF0000C18
:100FC000CDF804C04FF0010CCDF800C0DDF804C02E
:100FD000159DAC444FEA8C0505EB0C07CDF804C019
:100FE00007EB0C094FEA4C0808EB0C0609EB0C0A5E
:100FF00002EBCC0C02EBC80802EBC60602EBC505FF
:1010000002EBC70702EBC90902EBCA0A9CED00DA42
:101010009CED018AD8ED00CA96ED00CAD5ED00BA64
:1010200097ED00BAD9ED00AADAED008AD8ED017A81
:1010300096ED01AA95ED017AD7ED016A99ED016A65
:10104000DAED019ADDF800C00CEB0307FD1805EBA3
:10105000030A0AEB030808EB030606EB030B00EB9D
:10106000CC0900EBC808D9ED000A98ED000A00EBA6
:10107000C70700EBC606D7ED001A96ED001A70EE12
:10108000803A0BEB030E70EEC00A31EE810A00EBE2
:10109000C50500EBCB0B31EEC11AD5ED001A9BED67
:1010A000002A00EBCA0A00EBCE0E31EE824A71EE46
:1010B000C21A9AED002ADEED002A32EE223A32EE12
:1010C000622A73EEC42A73EE843A30EE435A30EE4D
:1010D000030A33EE803A73EEC0DA89ED003A99EDF7
:1010E000010A98ED013AD7ED013A95ED014A70EE0B
:1010F00003EA30EE433A96ED010A9AED01EADEED9D
:10110000014A33EE809A73EEC03A9BED010A74EE09
:10111000005A34EE404A3EEE240A7EEE644A3EEE29
:10112000E5EA7EEEA55A79EE40EA39EE009A32EE13
:10113000AE0A72EEEE2A75EE89EA35EEC99A7EEEB7
:10114000455AC9ED01EA3EEE055A2BEEADEA67EECF
:1011500009EA2BEE899A67EE2DDA3EEE2EEA39EE99
:101160006D9A88ED00EA67EEA5DA88ED019A2CEE1B
:10117000809A6CEEA55A27EE800A39EE2D9A35EE4C
:10118000C00A85ED009A66EE055A85ED010A2AEE41
:10119000A20A2AEE855A66EE222A30EE250A8BED47
:1011A000000A35EE620A73EEA42A8BED010A31EED5
:1011B000420A31EE021A33EEE42A62EE8F3A20EE52
:1011C0000F0A21EE0F1A22EE0F2A70EEC02A30EE1F
:1011D000800A71EEC10A71EE811A33EE421A33EEC3
:1011E000022A34EE633A34EE234A70EE043A30EECB
:1011F000444A01E0F304353F72EE834A72EEC32A9B
:1012000032EE613A32EE210A71EE601A71EE200A76
:101210002DEE232A28EE031A2DEE033A68EE233A28
:10122000A44432EE011A28EE842A8C4587ED001A78
:1012300033EE631A29EE843A87ED011A29EE801AFB
:1012400028EE800A32EE011A30EE430A26EEA42A76
:101250008EED001A8EED010A2BEE240A26EEA11A5D
:101260006BEE211A30EE010A2CEE221A86ED000AEE
:1012700031EEC20A6AEE221A86ED010A2AEE200A2F
:101280006CEE200A31EE000A8AED000A30EEE10A27
:101290008AED010AFFF4D8AEDDF800C00CF1010CB4
:1012A000CDF800C063453FF691AEDDF854C04FF66F
:1012B000FF7404EACC0CCDF854C0072B3FF6A0AD68
:1012C00002B0BDEC108B04B0BDE8F08F0649074AB0
:1012D0000868504343F239021044086040087047E0
:1012E0000149086070470000180000206D4EC6419B
:1012F00040EA01039B0703D009E008C9121F08C098
:10130000042AFAD203E011F8013B00F8013B521E17
:10131000F9D27047421C10F8011B0029FBD1801A3A
:10132000704700F0004230F000400AD0C10D01F5D6
:101330006071C0F3160042EA0151C2084007114330
:10134000704700200146704701F0004330B421F09F
:10135000004150EA010206D00A0DA2F56072C1F305
:101360001301002A02DC30BC00207047440F44EA1D
:10137000C104C100E01830BC00EBC25000F031B82D
:101380002DE9F05F0546002092469B4688460646BA
:10139000814640241BE0284641464746224600F04D
:1013A00000FA53465A46C01A914110D311461846C6
:1013B000224600F0E7F92D1A67EB01084F46224656
:1013C0000120002100F0DEF917EB00094E41201E3C
:1013D000A4F10104DFDC484631462A464346BDE815
:1013E000F09F0029A8BF7047401C490008BF20F0AB
:1013F0000100704710B4B0FA80FC00FA0CF050EA1B
:10140000010404BF10BC704749B1CCF1200421FA9B
:1014100004F411FA0CF118BF012121430843A3EB96
:101420000C01CB1D4FEA00614FEA102042BF0020A3
:1014300010BC704700EBC35010440029A4BF10BC7F
:101440007047401C490008BF20F0010010BC7047E5
:101450002DE9FE4F804681EA0300C00F0C46009044
:1014600021F0004123F00045B8EB0200A94105D26C
:101470004046214690461C460B46024623F000405B
:10148000104347D0270DC7F30A00C3F30A51029057
:10149000401A019040286BDAC3F3130040F4801B1C
:1014A0000098924620B10023D2EB030A63EB0B0BAA
:1014B00001985946C0F14002504600F063F90646D3
:1014C0000D4650465946019A00F07BF910EB080092
:1014D0006141002487EA115284EAE7731A4340D03D
:1014E000009A62B3019A012A4FEA075215DC001BE9
:1014F00061EB02014FF0004202EA0752CDE90042DF
:10150000001C41F5801132462B4600F07BF903B0F8
:10151000BDE8F08F40462146F9E7001B61EB020170
:10152000001C41F5801300185B412018A2F500173C
:1015300047EB030140EAD570B6196D4111E06D0823
:101540004FEA360645EAC0754FEA0752001B61EBC9
:101550000201001C41F5801149084FEA30000019D2
:10156000514132462B4603B0BDE8F04F00F03BB985
:101570000098012240000023D0EB020263EBE073ED
:10158000009821464FEAE074B8EB000061EB0401DB
:10159000E9E783F000435BE781F0004158E72DE97C
:1015A000FE4F81EA030404F0004421F0004100945E
:1015B0004FF0000B23F0004350EA01045ED052EAE2
:1015C00003045BD0C3F30A54C1F30A552C44A4F2BC
:1015D000F3340194A0FB0254C1F3130141F48011D0
:1015E000C3F3130343F4801301FB024400FB034ED7
:1015F000840A970A44EA815447EA8357A4FB0768A0
:1016000002958D0A05FB07854FEA932C04FB0C54C9
:101610002705029D4FEA065847EA1637B5EB08053D
:101620006EEB070C870E920E47EA811742EA83128F
:10163000A7FB0201B6EB0B0164EB00042B0D43EAA0
:101640000C335E1844EB1C50DA465146E7FB0201AE
:10165000C5F313044FEA0B3343EA14534FEA043241
:10166000019C43EA0603A4F10C040294009CCDE91A
:1016700000B400F0C7F803B0BDE8F08F00200146C9
:10168000F9E72DE9F04D81EA030404F0004B21F065
:10169000004514464FF0000A23F0004150EA0502CD
:1016A00020D054EA01021DD0C5F30A570246C5F303
:1016B0001303C1F31300C1F30A5640F4801543F439
:1016C0008013A7EB0608101BD64608F2FD3873EB13
:1016D000050002D308F1010801E092185B41B8F15E
:1016E000000F03DA00200146BDE8F08D00204FF422
:1016F0008011064684460EE0171B73EB050705D3E1
:10170000121B63EB050306434CEA010C49084FEA40
:10171000300092185B4150EA0107EDD152EA030014
:1017200012D082EA040083EA0501084305D0101BA9
:10173000AB4106D20122002306E000224FF0004315
:1017400002E06FF0010253101AEB06004CEB085157
:1017500010EB0A0041EB0B01BDE8F04D00F043B87F
:10176000064C074D06E0E06840F0010394E80700EE
:1017700098471034AC42F6D3FEF7A6FE183C0000A2
:10178000383C0000202A04DB203A00FA02F1002055
:1017900070479140C2F1200320FA03F319439040AF
:1017A0007047202A04DB203A21FA02F0002170471A
:1017B00021FA02F3D040C2F12002914008431946B9
:1017C0007047202A06DBCB17203A41FA02F043EAA1
:1017D000E07306E041FA02F3D040C2F120029140EA
:1017E00008431946704710B5141E73F1000408DA57
:1017F000401C41F1000192185B411A4301D120F0D5
:10180000010010BD2DE9F04D92469B4611B1B1FA91
:1018100081F202E0B0FA80F220329046FFF7B2FF88
:1018200004460F4640EA0A0041EA0B0153465A4675
:10183000084313D0114653EA010019D0C8F1400201
:101840005046FFF7AEFF05460E4650465946424603
:10185000FFF798FF084305D0012004E020463946F1
:10186000BDE8F08D0020054346EAE0762C4337437F
:101870000A986305E40AA0EB08000022FD0A44EA86
:1018800047540A3002D500200146E9E70105101946
:101890006941DDE9084500196941BDE8F04DA2E75D
:1018A0000EB5C10F80EAE0700844CA07002140F27B
:1018B00033438DE80E000A460B46FFF7A3FF03B043
:1018C00000BD0EB540F2334102910021CDE9001177
:1018D0000A460B46FFF796FF03B000BD70B5C1F393
:1018E0000A5201F000450024C1F3130140F2FF3316
:1018F00041F480119A4201DA002070BD40F2334376
:101900009A42A2F2334203DC5242FFF74AFF00E060
:1019100090402C43F1D0404270BD00000448006864
:10192000F1EE101A016C21F09F0101647047000074
:1019300038EF00E070B58D480023021D0178101DBE
:101940000124062907D115782D0704D10578C5F3A0
:101950000315032D02D0062904D00FE0854E844DD7
:1019600075670EE015782D0708D10578C5F30315C6
:10197000032D06D0042D04D0052D02D0062909D050
:1019800010E04FF08055D5F844527B4EC5F34235F8
:10199000356002E015782D0704D10578C5F30315ED
:1019A000032D02D0062906D011E0744D2E6826F0D2
:1019B00080762E600EE015782D0708D10578C5F3E6
:1019C0000315032D06D0042D04D0052D02D00629C1
:1019D0000AD011E04FF08045C5F80C31C5F8103140
:1019E000654D2D1F2B6002E015782D0704D1057879
:1019F000C5F30315032D02D0062905D00CE05E4A7D
:101A00000321643211600AE015782D0704D10578AE
:101A1000C5F30315032D02D006290DD06AE0584AFC
:101A200005211160564978310C60554908310B6029
:101A30003F21121D116002E0117809075AD1007888
:101A4000C0F30310052855D14E4800684E49086080
:101A50004C48001D0068091D08604A4808300068AD
:101A6000091D086047480C300068091D086045489A
:101A700010300068091D0860424814300068091DD4
:101A800008604048183000683F49203108603D48F0
:101A90001C300068091D08603A4820300068091DA4
:101AA0000860384824300068091D0860354828302F
:101AB0000068091D086033482C300068091D086063
:101AC0003048303000683049403108602D483430AB
:101AD0000068091D08602B4838300068091D08603F
:101AE00028483C300068091D0860264840300068DE
:101AF000091D086021487438016841F470010160D3
:101B0000BFF34F8FBFF36F8F4FF01021D1F800025A
:101B1000002803DBD1F80402002822DA1B4A1460F3
:101B20001B480468002CFCD01524C1F8004205684D
:101B3000002DFCD0C1F8044201680029FCD01360DC
:101B400001680029FCD0BFF34F8F0C48F0380168C2
:101B5000104A01F4E06111430160BFF34F8F00BFF1
:101B6000FDE70E490C48086070BD0000E00F00F072
:101B70000DF0ADBA00C007403C050040FCED00E0B0
:101B8000105600400404001020C5004004E5014048
:101B900000E401400400FA050090D0031400002086
:101BA0000448017F04480029024901D001F0B5BD75
:101BB00001F024BD28030020002000400FB4084B92
:101BC00010B504A902AA039800F0B4FC044602A9C7
:101BD000002000F0E0FE204610BC5DF814FB000081
:101BE0009729000003B401984100009850EAC120F1
:101BF00018BF04204A0D18BF40F0010040F2FF72E8
:101C0000B2EB515F08BF40F00200012808BF052079
:101C100002B070470000000010B52F499FED2C1B4B
:101C20002DED020B84B0059820F000408842DCBF07
:101C300000209DED040B32DD2849884209D104982B
:101C400040B94FF0010000F06FFC00F03DFC06B021
:101C500010BD05DB9DED040B00F02AFC06B010BDA5
:101C600068469DED040B00F03BF810F0030011D026
:101C7000012818D09DED021B9DED000B02281AD003
:101C800000F04AFA51EC100B81F0004106B041EC33
:101C9000100B10BD9DED021B9DED000B012000F00F
:101CA0006FFB06B010BD9DED021B9DED000B00F01B
:101CB00033FA06B010BD012000F062FB51EC100BAE
:101CC00081F0004106B041EC100B10BD0000000097
:101CD0000000000000000000FB21E93F0000F07F51
:101CE0002DE9F14F04462DED020B2DED088B8AB046
:101CF0009FEDE70B80ED020B139EE74826F00045B1
:101D000085420ADC9DED120B002084ED000B0AB029
:101D1000BDEC088B03B0BDE8F08FE0489FEDE0AB71
:101D20009FEDE1BBA84247DDE14F9FEDE39B9FEDB7
:101D3000E48B9DED120B53EC1A2B51EC100B002E83
:101D40001CDDFFF726FC41EC100BBD4208D053EC24
:101D50001B2B51EC100BFFF71CFCC4E900010BE03E
:101D600053EC192B51EC100BFFF713FC53EC182B11
:101D7000FFF70FFCC4E900010120C8E7FFF768FB8B
:101D800041EC100BBD4208D053EC1B2B51EC100B57
:101D9000FFF75EFBC4E900010BE053EC192B51EC9B
:101DA000100BFFF755FB53EC182BFFF751FBC4E961
:101DB00000014FF0FF30AAE7C348A84279DB9DED50
:101DC000120B51EC100B00F0D9FE41EC180B9FEDFB
:101DD000C00B53EC102BFFF7E2FB9FEDBF1B53EC46
:101DE000112BFFF735FBFFF779FD0746FFF758FD8D
:101DF00041EC190B53EC1A2BFFF7D1FB53EC182BCA
:101E0000FFF7CAFB41EC180B53EC1B2B51EC190BE1
:101E1000FFF7C5FBDFF8C8A241EC100B4FEA1558DD
:101E20000125FA4453EC102B51EC180BFFF7B1FBD2
:101E3000032DC4E900013DD0C1F30A5005EB451163
:101E4000A8EB00001139814234DA0AEB051BB0EE31
:101E500048AA9BED000BF0EE68AA53EC102B51EC56
:101E6000190BFFF79CFB41EC1B0B51EC1A0B53ECCD
:101E70001B2BFFF78EFB41EC180B51EC1A0B53ECAC
:101E8000182BFFF786FB53EC1B2BFFF782FB9BED18
:101E9000020B41EC1A0B53EC102B51EC190BFFF712
:101EA0007EFB53EC1A2BFFF774FB41EC100B6D1CFF
:101EB000B8E70EE0002EA8BF3846BFF628AF94ED75
:101EC000000B51EC100B81F00041C4E90001784295
:101ED0001DE7C6F3130040F4801EC6F30A50A0F2BB
:101EE000F530471100F01F05C5F12000DDF848B0BE
:101EF00008900020069007900520EC467949002DB7
:101F000007EB0002794408BF51F8221009D051F8BC
:101F1000223001EB8201AB404A68089922FA01F1B4
:101F20001943A1FB0E26A1FB0B131A449A4234BF9E
:101F30000123002303EB06080CEB8003D3E901A681
:101F40000E448E4234BF0121002192448A4411B1D3
:101F5000924502D903E0924501D2012100E000211F
:101F6000C3E901A641444CF82010011EA0F1010074
:101F7000C4DC029800F10050850F0298DDE9036788
:101F80008000DDF81480FFF78BFC41EC1A0B304623
:101F9000FFF797FC9FED541B53EC112BFFF7FFFA53
:101FA00041EC1B0B3846FFF78CFC9FED511B53ECAB
:101FB000112BFFF7F4FA41EC180B4046FFF781FCB8
:101FC0009FED4D1B53EC112BFFF7E9FA41EC190B78
:101FD00051EC180B53EC192BFFF73AFA53EC1B2B6F
:101FE000FFF736FA53EC1A2BFFF732FACDE9080166
:101FF000002008909DED080B53EC1A2B51EC100BB0
:10200000FFF7C7FA53EC1B2BFFF7C3FA53EC182B5F
:10201000FFF7BFFA53EC192BFFF7BEFA9FED381B01
:1020200053EC112BFFF7BBFA9FED370B41EC180B6C
:1020300053EC102B9DED080B51EC100BFFF7AFFA92
:1020400053EC182BFFF704FA9FED310B41EC180B02
:1020500053EC102B9DED080B51EC100BFFF79FFA82
:1020600053EC182BFFF7F4F941EC100B139810F018
:10207000004F06D06D4251EC100B81F0004141EC55
:10208000100B284684ED000B41E600000000000024
:102090000000000000000000FB21E93F7CD9024065
:1020A00000004054FB21F93F3163621A61B4D03D16
:1020B000FB21F93F000000000000601A61B4D03D30
:1020C0007370032E8A19A33BFB21394100000000E5
:1020D00083C8C96D305FE43F000000000000E03FAE
:1020E000BA1C0000081C0000000000000000103EA8
:1020F000000000000000103C000000000000103A4A
:10210000182D4454FB21F93D3326A611460B113CF2
:1021100000000054FB21F93D10B52DED040B2DED11
:10212000088B82B0B0EE419AF0EE619A0B9820F0E5
:1021300000449FED4BABB4F1795F11DA9DED0A0BD2
:1021400051EC100BFFF7CAFB002801BFB0EE4A0AA2
:10215000F0EE6A0A02B0BDEC088B04BF04B010BDFB
:102160009DED0A0B53EC102B51EC100BFFF717FAF7
:1021700041EC180B3C480621B0EE480AF0EE680A24
:10218000784400F081F853EC182B51EC100BFFF75A
:1021900006FA9DED0A0B41EC1B0B53EC192B51EC8D
:1021A000100BFFF7FCF941EC190B53EC1B2B51EC16
:1021B000180BFFF7F4F953EC192BFFF7EAF99FED31
:1021C0002C0B41EC190B53EC102B51EC180BFFF7B7
:1021D000E6F941EC100B2848844210DA53EC192B35
:1021E00051EC100BFFF7D5F953EC1A2BFFF7D4F98C
:1021F00041EC100B02B0BDEC088B04B010BD1F48C1
:10220000A042BCBF9FED1E1B8DED001B06DBA4F59D
:1022100000100190002000909DED001B51EC100B70
:1022200053EC112BFFF7B5F99DED000B41EC180BAA
:1022300053EC102B51EC1A0BFFF7ABF941EC1A0BD6
:1022400053EC192B51EC180BFFF7A3F953EC1A2B95
:10225000FFF7A2F941EC100BCCE7000000000000F2
:10226000000000000000F03F2C19000000000000FA
:10227000000000000000E03F3333D33F0000E93F9F
:10228000000000000000D23F70B504462DED028B27
:102290004D1E00EBC500B0EE408AF0EE608A90ED76
:1022A000000B35F0060017D053EC182B51EC100B37
:1022B000FFF775F941EC100B6D1E04EBC50090EDB6
:1022C000001B51EC100B53EC112BFFF7C1F841EC44
:1022D000100B35F00600E7D1022D36D0042D1CD0AE
:1022E000062D1CBFBDEC028B70BD53EC182B51ECBE
:1022F000100BFFF754F994ED0A1B53EC112BFFF769
:10230000A7F853EC182BFFF74AF994ED081B53EC90
:10231000112BFFF79DF841EC100B53EC182B51ECEF
:10232000100BFFF73CF994ED061B53EC112BFFF754
:102330008FF853EC182BFFF732F994ED040B53ECA4
:10234000102BFFF785F841EC100B53EC182B51ECD8
:10235000100BFFF724F994ED021B53EC112BFFF740
:1023600077F853EC182BFFF71AF994ED001B53EC98
:10237000112BFFF76DF8BDEC028B41EC100B70BD1B
:1023800031B504462DED040B2DED0A8BB0EE41BAAC
:10239000F0EE61BA0B989DED0A0B20F00040B0F111
:1023A000795F0DDA51EC100BFFF71CFC042808BF15
:1023B00000F09AF89DED0A0BBDEC0A8B05B030BD1C
:1023C00053EC102B51EC100BFFF7E9F841EC180B14
:1023D0009DED0A0B53EC182B51EC100BFFF7DFF8B7
:1023E00041EC190B2C48B0EE480AF0EE680A0521C2
:1023F0007844FFF749FF9FED2ACBB0EE40AAF0EEFC
:1024000060AA9CB353EC1C2B51EC190BFFF7C7F8D7
:1024100041EC1C0B53EC1A2B51EC190BFFF7BFF8D6
:102420009FED210B41EC190B53EC102B51EC1B0BC6
:10243000FFF7B5F853EC192BFFF7ABF853EC182B5B
:10244000FFF7ADF853EC1B2BFFF7A3F853EC1C2B55
:10245000FFF79FF89DED0A1B53EC112BFFF79CF83B
:10246000BDEC0A8B05B041EC100B30BDFFE753EC1F
:102470001A2B51EC180BFFF792F853EC1C2BFEF7BC
:10248000E7FF53EC192BFFF78AF89DED0A1B53EC7D
:10249000112BFEF7DDFFE3E7B4170000000000009A
:1024A000495555555555C5BF000000000000E03F97
:1024B00010B553EC102B51EC100BFEF7C9FF41EC9B
:1024C000100B10BD000000009FED050B10B553EC84
:1024D000102B51EC100BFFF7D4F841EC100B10BD92
:1024E00000000000000000009FED050B10B553EC4C
:1024F000102B51EC100BFFF752F841EC100B10BDF4
:10250000000000000000001002E008C8121F08C10F
:10251000002AFAD170477047002001E001C1121F64
:10252000002AFBD170470000014908607047000095
:10253000240000202DE9FF4F8DB00F4605460026F0
:1025400006E025280BD0DDE90F1290476D1C761CA4
:1025500028780028F5D111B03046BDE8F08F00246E
:10256000A246A1460122EC4900E0044315F8013FD0
:10257000203B02FA03F00842F7D128782A2810D02D
:102580006FF02F022878A0F13001092914D80AEB46
:102590008A0102EB410144F0020400EB010A6D1CC8
:1025A000F0E701CF5FEA000A03D544F40054CAF112
:1025B000000A44F002046D1C28782E2817D115F863
:1025C000010F44F004042A280ED06FF02F0228785F
:1025D000A0F1300109290AD809EB890102EB410178
:1025E00000EB01096D1CF2E757F8049B6D1C28787D
:1025F0006C280FD006DC4C2817D068280DD06A282C
:1026000014D104E0742810D07A280FD10DE044F4DE
:1026100000140AE044F4801401E044F440146978A2
:10262000814202D104F580146D1C6D1C2A786E2A3B
:102630001FD00CDC632A31D004DC002A8BD0582A4E
:1026400011D1A3E0642A68D0692A0CD165E0732A0D
:102650002ED004DC6F2A73D0702A04D19BE0752A37
:102660006FD0782A6ED01046DDE90F129047761CA5
:1026700050E1C4F30250022806D0032809D00428F0
:1026800001CF09D0066045E101CFF117C0E9006133
:1026900040E101CF06803DE106703BE117F8040BF5
:1026A0008DF8000000208DF80100EB46012003E0CA
:1026B00057F804BB4FF0FF3061074FF0000102D420
:1026C0000DE008F10101884649450FDA8045F8DB45
:1026D0001BF808100029F4D108E008F10101884630
:1026E0008142FADB1BF808100029F6D1DDE90F233F
:1026F000AAEB08008146214600F036F9304400EB91
:10270000080604E0DDE90F121BF8010B9047B8F151
:102710000108F7D221464846F7E00A21C4F30253E4
:102720004FF0000B0891022B04D001CFC117032BEF
:1027300009D00AE0FF1D27F00707F7E8020108E0CB
:1027400032E01FE020E000B2C117042B01D140B2FB
:10275000C117031E71F1000307DA4FF0000CD0EB34
:102760000C006CEB01012D2302E0230504D52B2383
:102770008DF82430012303E0E30701D02023F7E79D
:10278000984658E00A2110E010210EE010204FF08A
:10279000000B08900CE010214FF0000B44F00404F3
:1027A0004FF00809089103E008214FF0000B089151
:1027B000C4F30253022B04D001CF0021032B06D017
:1027C00006E0FF1D27F00707F7E8020103E080B2EB
:1027D000042B00D1C0B24FF0000823072BD5702A7C
:1027E00007D0DDF820C08CF0100C5CEA0B0C05D093
:1027F0000EE040238DF82430012308E050EA010365
:1028000006D030238DF824308DF8252002239846F9
:10281000DDF820C08CF0080C5CEA0B0C0BD150EA00
:10282000010301D1630706D530238DF824304FF022
:102830000108A9F10109582A04D038A20B9208AA6C
:102840000A920BE03AA2F9E75B46089AFEF798FD78
:102850000B9B9B5C0A9A521E0A92137050EA01026B
:10286000F2D10A98ADEB000000F1200B600702D511
:1028700024F4803401E04FF00109D94502DDA9EBD1
:102880000B0000E0002000EB0B0141440890AAEB94
:10289000010AE00306D4DDE90F232146504600F08B
:1028A00063F806444FF0000908E009A911F809008F
:1028B000DDE90F12904709F10109761CC145F4DBEF
:1028C000E0030CD5DDE90F232146504600F04CF81B
:1028D000064404E0DDE90F1230209047761C089989
:1028E000481E08900029F5DC08E00A980A9900784B
:1028F000491C0A91DDE90F129047761CBBF10001DB
:10290000ABF1010BF1DC21465046DDE90F2300F06D
:1029100019F806446D1C1BE60928010030313233DA
:10292000343536373839616263646566000000000B
:1029300030313233343536373839414243444546F5
:10294000000000002DE9F041044600251E46174610
:10295000880404D405E039462020B0476D1C641E6D
:10296000F9D52846BDE8F0812DE9F041044600255F
:102970001E469046C80301D5302700E02027880472
:1029800004D505E041463846B0476D1C641EF9D5B4
:102990002846BDE8F0810A68531C0B601070704730
:1029A00008A1012000F03AFDBFF34F8F0B480168EA
:1029B0000B4A01F4E06111430160BFF34F8F00BF88
:1029C000FDE700004150505F4552524F523A455288
:1029D000524F523A466174616C0D0A000CED00E0F2
:1029E0000400FA050EB500210091CDE901106A46F8
:1029F00044F20100FFF7D4FF0EBD00002DE9F041C5
:102A000005460878214F012606FA00F00C4638608A
:102A1000086800F0A2FB0021606800F095FB2879AF
:102A20001B4901EB4010A169007F00282868C0F80D
:102A3000241519D0607D217D2A680843C2F86C05F1
:102A400018E00021A06800F07FFB207B86403E60FC
:102A5000E06800F082FBD4E902122868C0F808257B
:102A6000C0F81015BDE8F081607D227D2968104313
:102A7000C1F86C05D4E900122868C0F80C15C0F83C
:102A80001425207D0128DCD0ECE70000080500506B
:102A900028030020002901DA002070470268114451
:102AA00001600120704700002DE9FC4105461646F3
:102AB0000C46481C00F070F9074601AB6A462146F7
:102AC0002846FEF729F935004FF000082FD0681E80
:102AD00000EE100A00207C22F8EE400A00EE106A98
:102AE00021492023B8EE401A80EE810ADDED000A6C
:102AF00020EE800A0DE000BF01EB800CDCED000A47
:102B0000F4EEC00AF1EE10FA01DD3A5400E03B5455
:102B1000401CA042F0D307F80480384600F0A9FC1E
:102B2000024612A1032000F07DFC6D1ECFD1601C77
:102B300000F032F9054600202D2101E02954401C07
:102B4000A042FBD305F80480284600F092FC024620
:102B500006A1032000F066FC284600F06DF8384618
:102B600000F06AF8BDE8FC81280200204150503A8C
:102B7000494E464F3A25730D0A00000082B0CDE958
:102B8000000121F0004001909DED000B02B051ECDE
:102B9000100B70472DE9F04117462DED028BB0EE7A
:102BA000608AF0EE408A804602293BD300244D1E05
:102BB00036E09FED1E0A68EE000A00EE104AB8EEFD
:102BC000400A60EE800A80EEA80A10EE100AFEF7B6
:102BD000A8FB41EC100BFFF71FF851EC100BFEF7B0
:102BE000B3FBA2B208EB82063060A7B1FEF76EFB22
:102BF000642190FBF1F201FB120000EE100A9FED40
:102C00000C1AB8EEC00AC0EE010A96ED000A20EEDA
:102C1000800A86ED000A9FED070AA41C86ED010AD2
:102C2000AC42C6D3BDEC028BBDE8F081DB0FC940DE
:102C30000000C8420000000010B5002821D0114B50
:102C40000022001F196803E0814203D80A46496840
:102C50000029F9D152B11368841A9C4204D100684A
:102C600018441060104602E0506000E0186039B16E
:102C700002680B1A934203D10B681A440260496838
:102C8000416010BD1C00002000242DED048B204667
:102C900000F0DEFB08B1FFF7A5FE2A49032000F093
:102CA000BDFB2949C02081F8000427494020223972
:102CB000C1F88002C1F80001DFED248A9FED249A5B
:102CC000DFF89090DFF8908084F00104FEF7FEFAC0
:102CD000B0FBF8F208FB120000EE100A2246802139
:102CE000B8EE400A1D4880EE288AB0EE490AF0EEA0
:102CF000480AFFF74FFF194D194805F500774026A0
:102D000099F8043099F800202946FDF75FFF324614
:102D100039462846FDF7F0FB0CB112A300E012A3E0
:102D2000BCEEC80A11A110EE100A82B2032000F016
:102D300080FB142240211748FFF7B6FE404600F002
:102D400061F8C1E7D03B000026E000E00000C84287
:102D500000442C470000002040420F0028000020C3
:102D60002C380000796573006E6F00004150503AB6
:102D7000494E464F3A496E7075743A2073696E65D4
:102D8000202575487A2C206E6F6973653A2025736B
:102D90002E0D0A0028020020F0B50B30154D20F052
:102DA00007010024144A0FE003688B420BD38B42C7
:102DB00005D95E1A43184768C3E9006700E0436815
:102DC000136002C004E0021D10680028ECD1204608
:102DD000002802D1286808B10020F0BD064A074843
:102DE0001060074A121A22F00702C0E900240120ED
:102DF0002860D7E7200000201C0000206C04002081
:102E00006824002000283ED01F49204A096800BFDE
:102E100000BF00BF00BF00BF00BF00BF00BF9142A6
:102E20002FD000BF00BF00BF00BF00BF00BF00BF6A
:102E300000BF00BF00BF00BF00BF00BF00BF00BF9A
:102E400000BF00BF00BF00BF00BF00BF00BF00BF8A
:102E500000BF00BF00BF00BF00BF00BF00BF00BF7A
:102E600000BF00BF00BF00BF00BF00BF00BF00BF6A
:102E700000BF00BF00BF00BF00BF00BF00BF00BF5A
:102E800000BF401EC3D17047140000200024F4008E
:102E90004907090E002806DA00F00F0202F1E022CD
:102EA00082F8141D03E000F1E02282F8001400F023
:102EB0001F02012191404009800000F1E020C0F88C
:102EC0008012C0F8001170472DE9F04104460079E6
:102ED0002D4F904607EB40150E46E87E10B10820B6
:102EE000BDE8F081707F28772046FFF787FD5FEA15
:102EF000080068603169296031D0207996F81C801B
:102F000007EB40104FF4A276007F0028206814D011
:102F10004FF4887100F0C4FA4FF49071206800F00B
:102F2000BFFA4FF49271206800F0BAFA3146206877
:102F300000F0B6FA1549206809E04FF48E7100F0F0
:102F40009EFA3146206800F09AFA11492068C0F8CC
:102F5000041320684146000B40B2FFF799FF207927
:102F600007EB4010007F0028206801D0082100E016
:102F70000421C0F800150020E8752876A875012105
:102F8000E976A876ACE700002803002010030200D1
:102F9000800002002DE9F047054600793E4C0E46C0
:102FA00004EB4013187F38B14FF40050B0EB164FCC
:102FB00002D01020BDE8F087284600F06FF808B175
:102FC0001120F7E79A7500279E609F8228794FF0BD
:102FD000010804EB40143E46207F0028286825D0D5
:102FE0004FF49079494600F05BFA4FF4AC7A5146C1
:102FF000286800F055FA2868A17DA268C0F8442529
:10300000C0F848152868C0F808806068F0B94946DB
:10301000286800F040FA80465146286800F03BFAE4
:1030200058EA0001F3D058BBA7750FE04FF48E7A31
:10303000514600F024FA2868C0F808802146286824
:1030400000F0B6FA61684FF4807089B13046B1E79C
:103050005146286800F00EFA10B9A08A4845F7D109
:10306000A08A484505D02146286800F0A1FA00E072
:103070008146A08AA17D8842EAD3A08A484501D131
:103080000F26D1E75146286800F0F4F90028F9D05E
:103090002868C0F80C80C7E728030020007904499D
:1030A00001EB4010807D002800D001207047000017
:1030B0002803002070B50179144A002502EB411461
:1030C0000168237FC1F800556168C9B1017902EB3D
:1030D0004111097F0029016801D00D4A01E00C4A25
:1030E0008C3AC1F8082301680122090B49B201F0AA
:1030F0001F039A404909890001F1E021C1F88021AC
:1031000000F0D4F9E576656070BD0000280300206A
:103110001003020030B541EA4201DDE9034541EA0E
:103120008301800041EA042100F1A04041EA054109
:10313000C0F8001730BD1CB5002100910B460122DC
:103140000191FFF7E7FF1CBD1CB500220B46009262
:1031500011460192FFF7DEFF1CBD1CB50021009156
:103160000B46012201911146FFF7D4FF1CBD000060
:1031700000487047E931000030B5184C054689B069
:10318000207828B16078854202D1002009B030BD96
:10319000202213496846FEF7ABF800208DF8140092
:1031A000062000900820019005200390072002903F
:1031B0004FF0EB7006900948001DFFF77BFF0DB143
:1031C000002200E0074A05486946001DFFF77CFE23
:1031D0000028DBD1012020706570D6E708000020B0
:1031E0000C380000ED3500002DE9F04FC1B00D00A6
:1031F000DDF82CB14D984FF000011C4690460BEBCA
:10320000000A409101D00A2600E0002600F09CF957
:10321000002873D16F46BCB9409840AA3918284697
:1032200000F0AEF9002869D04046FEF773F8C228D6
:1032300000D9C220054640982A4638444146FEF748
:1032400057F84098284440904FF020094098821940
:1032500031320DEB02016844002202E000F8019BCC
:10326000521CB242FAD30027544508D300F8019B00
:1032700000F8019B00F8019B01F8019B26E05C45EA
:1032800002D24A9A125D03E04C9AA4EB0B03D25C83
:1032900084460125AB0022FA03F808F00F03092B3E
:1032A00001D9373300E03033C5F101086D1E0CF849
:1032B0000830EFD20CF10200A2F1200300F8019BCC
:1032C0005E2B00D92E2201F8012B641C7F1C102FCD
:1032D000CAD30D220A700A224A7080F800904098E2
:1032E000811943316846409100F034F930B100F063
:1032F0002BF918B9002040905445A7D341B020467F
:10330000BDE8F08F2DE9F043C5B000251C4690467E
:1033100089464C9F449500F017F9B0BB449804AE21
:10332000311844AA484600F02BF900282ED0072F68
:1033300022D2DFE807F00412192E3844510040462B
:10334000FDF7E8FF054644982918FF2914D83044B2
:103350002A464146FDF7CCFF0EE0449822683044EF
:103360004146FEF72BFC06E0D4E900234498414691
:103370003044FEF723FC0546294644A8FFF78AFBA4
:1033800018B14499B1F5807F33D9002045B0BDE82C
:10339000F083A0680090D4E900234498414630446B
:1033A000FEF70CFCE7E7D4E90201CDE90001D4E91E
:1033B0000023449841463044FEF700FCDBE704F16B
:1033C000080007C88DE80700D4E900234498414667
:1033D0003044FEF7F3FBCEE704F108000FC88DE898
:1033E0000F00D4E90023449841463044FEF7E6FB41
:1033F000C1E704A800F0AEF8C8E700000048704735
:103400000533000038B50D460093034B00215C697D
:1034100013462A46A04738BD4804002000231A4618
:10342000FFF7F0BF08B5012300926A46FFF7EAFFF5
:1034300008BD1CB5CDE9002302236A46FFF7E2FF71
:103440001CBD0000014AC2E9050170474804002084
:1034500070B50120FFF790FE040008D1FFF7CEFF02
:103460000546FFF785FE01462846FFF7EBFF20469D
:1034700070BD70474058002800D00120704708B543
:10348000002242504058009008BDD0F80403084084
:1034900000D0012070474058002800D0012070471C
:1034A00008B5002242504058009008BD70B5024651
:1034B0004FF0FF301168D1F80C35D1F81465D1F810
:1034C0000855D1F81045C1F80C05C1F8140511686C
:1034D000C1F80805C1F810051846FFF72CFE304664
:1034E000FFF729FE601C02D02046FFF724FE681C6F
:1034F00004D02846BDE87040FFF71DBE70BD70B512
:103500000546C87D0C4600284FF4847128460AD031
:10351000FFF7B5FFD5F81805627EE1688854607E34
:10352000401C607670BDFFF7AAFFD5F8180570BD86
:103530001FB501238DF800308DF808100192D0E9F5
:103540000012684690471FBD0148FFF7A7BD000065
:103550000C00002070B50D460A46014601240648BD
:10356000FDF7C6FEEAB204490448FFF713FD00B1B7
:103570000024204670BD0000480300200C000020FD
:1035800010B5144602004FF001000AD00846126838
:1035900005A1FEF713FB01462046BDE81040FFF7EA
:1035A00079BA0021216010BD5B253038645D0000D0
:1035B00070B50C4605464FF48E71FFF760FFA18A87
:1035C000A068415CA08A401CA082C5F81C1570BD93
:1035D0001FB500228DF800208DF808108168019138
:1035E0008275D0E90012684690471FBD0078012817
:1035F00001D1014988707047080000202DE9FF477C
:103600000C4605464FF40071FFF73FFF01274FF4CA
:103610000178002618B34FF4927949462846FFF7FF
:1036200029FFE0B149462846FFF729FFC5F808837E
:10363000A07E00B96F6002208DF80000D5F88004EC
:10364000C5F880040390E07D8DF80800E0680190E3
:10365000E6752676D4E900126846904727E00421F3
:103660002846FFF712FF10B34FF484712846FFF786
:1036700001FFE0B121462846FFF741FFE07D617E72
:10368000884214D1207E38B1617EE268E0752069FD
:10369000E0602676667607E0A07E00B96F60C5F828
:1036A0000883E675617EE2682046FFF741FF4FF42C
:1036B0008E7841462846FFF7DDFE88B1A08AA17DBD
:1036C000884204D221462846FFF772FF08E04146AF
:1036D0002846FFF7D4FEA17D11B12046FFF778FF01
:1036E0004FF4A27841462846FFF7C4FE002812D0C6
:1036F00041462846FFF7C3FEA07E00B12F60E07D63
:10370000002808D0E675617EE26804B02046BDE876
:10371000F047FFF70DBFBDE8FF872DE9FF410C46DD
:103720004FF4927705463946FFF7B5FE0026C0B143
:1037300039462846FFF7B4FE02208DF80000D5F880
:103740008004C5F880040390D5F83C058DF8080086
:10375000E0680190E6752676D4E900126846904745
:1037600024E04FF4887739462846FFF794FEE8B105
:1037700039462846FFF794FED5F83C05C1B2E07DF6
:10378000884213D1207E60B1E268D5F8000220F0B3
:103790002000C5F80002207EE0752069E0602676F2
:1037A00001E0E675E2682046FFF7C2FE4FF4A2771B
:1037B00039462846FFF76FFE68B139462846FFF7BD
:1037C0006FFEE07D38B1E675D5F83C05E268C1B220
:1037D0002046FFF7ADFE4FF4907631462846FFF7BE
:1037E0005AFE00280FD031462846FFF759FEA07D2B
:1037F000002808D0D5F84C0504B0C1B22046BDE879
:10380000F041FFF7E5BEBDE8FF810000FFFFFFFFCD
:10381000FFFFFFFFFFFFFFFFFFFFFFFF00000000B4
:10382000000000000000D60106010000400000007A
:103830003C3800003C3A0000380000000000803FA7
:10384000000000006DC47E3F36BDC83DBE147B3F06
:10385000C2C5473E0BFA743F31A0943E5E836C3F75
:1038600015EFC33E98C5613FEA5AF13E31DB543F44
:10387000DA390E3F03E4453F9967223FF304353FB1
:10388000F304353F9967223F03E4453FDA390E3FA1
:1038900031DB543FEA5AF13E98C5613F15EFC33E14
:1038A0005E836C3F31A0943E0BFA743FC2C5473E25
:1038B000BE147B3F36BDC83D6DC47E3F0000000096
:1038C0000000803F36BDC8BD6DC47E3FC2C547BE47
:1038D000BE147B3F31A094BE0BFA743F15EFC3BEFC
:1038E0005E836C3FEA5AF1BE98C5613FDA390EBF7C
:1038F00031DB543F996722BF03E4453FF30435BFF2
:10390000F304353F03E445BF9967223F31DB54BFE1
:10391000DA390E3F98C561BFEA5AF13E5E836CBF4B
:1039200015EFC33E0BFA74BF31A0943EBE147BBFAB
:10393000C2C5473E6DC47EBF36BDC83D000080BFD6
:10394000000000006DC47EBF36BDC8BDBE147BBF85
:10395000C2C547BE0BFA74BF31A094BE5E836CBF74
:1039600015EFC3BE98C561BFEA5AF1BE31DB54BF43
:10397000DA390EBF03E445BF996722BFF30435BFB0
:10398000F30435BF996722BF03E445BFDA390EBFA0
:1039900031DB54BFEA5AF1BE98C561BF15EFC3BE13
:1039A0005E836CBF31A094BE0BFA74BFC2C547BE24
:1039B000BE147BBF36BDC8BD6DC47EBF0000008095
:1039C000000080BF36BDC83D6DC47EBFC2C5473E46
:1039D000BE147BBF31A0943E0BFA74BF15EFC33EFB
:1039E0005E836CBFEA5AF13E98C561BFDA390E3F7B
:1039F00031DB54BF9967223F03E445BFF304353FF1
:103A0000F30435BF03E4453F996722BF31DB543FE0
:103A1000DA390EBF98C5613FEA5AF1BE5E836C3F4A
:103A200015EFC3BE0BFA743F31A094BEBE147B3FAA
:103A3000C2C547BE6DC47E3F36BDC8BD080040004C
:103A4000100080001800C000200000012800400184
:103A5000300080013800C001500088005800C800C4
:103A60006000080168004801700088017800C80102
:103A70009800D000A0001001A8005001B0009001F3
:103A8000B800D001E0001801E8005801F0009801EA
:103A9000F800D801280160013001A0013801E001DF
:103AA0007001A8017801E801B801F00100000000F0
:103AB0004C5555555555A53F7751C1166CC156BF4C
:103AC0009015CB19A001FA3EAD529C804F7E92BE5C
:103AD000C4B1B4BD9EEE213ED43888BEE9FAA8BD7B
:103AE00000004054FB21F93F3163621A61B4D03DBC
:103AF0000000601A61B4D03D7370032E8A19A33B95
:103B00000000002E8A19A33BC14920259A837B39E6
:103B100000000000000000006E83F9A22915444E49
:103B2000D15727FCC0DD34F5999562DB4190433CC9
:103B3000AB6351FE61C5BBDE3A6E24B7E0D24D42A5
:103B4000EA2E49061C92D1091CEB1DFE3EA729B1A5
:103B5000F53582E88444BB2E26709CE9417E5FB433
:103B600039D69139F43953838B5F849C3B28F9BD56
:103B7000FF97F81F0F9805DE8B112FEF1F6D0A5A64
:103B8000CF7E366DB709CB27663F464F2DEA5F9E45
:103B9000C7BA27757BF1E5EBF739073DEA92528A00
:103BA000B15FFB6B085D8D1FA6F810111111813FED
:103BB000D561C119A0012ABF7DFEB157E31DC73EE3
:103BC000EB9C2B8AE6E55ABE7CD5CF5A3AD9E53D27
:103BD0004150503A494E464F3A54686973206973D0
:103BE00020465055207573616765206578616D705A
:103BF0006C652077697468204646542063616C6365
:103C0000756C6174696F6E20616E64206472617797
:103C1000696E672E0A000000383C0000000000209A
:103C20002800000008250000603C0000280000205B
:103C300040440000182500000000000001000000C2
:103C40000000000000200040000000000090D003B1
:103C50000000000000000000000000000000000064
:04000005000004C132
:00000001FF
