:020000040000FA
:100000006022002049040000510400001504000093
:1000100055040000570400005904000000000000CF
:100020000000000000000000000000005B04000071
:100030005D040000000000005F0400006104000097
:10004000E506000063040000BD0900006304000031
:100050006304000001050000630400006304000065
:1000600063040000630400006304000063040000F4
:1000700063040000630400006304000063040000E4
:1000800063040000630400006304000063040000D4
:1000900063040000630400006304000063040000C4
:1000A000630400006304000063040000A909000069
:1000B0006304000063040000000000000000000072
:1000C0006304000063040000630400006304000094
:1000D00063040000630400006304000000000000EB
:1000E0000000000000000000000000000000000010
:1000F0000000000000000000000000000000000000
:1001000000000000000000000000000000000000EF
:1001100000000000000000000000000000000000DF
:10040000DFF80CD000F056F800480047250D00003A
:1004100060220020094B1EF0040F1CBFEFF309807F
:100420001847EFF308800649064A884201D89042EF
:1004300002D88D464FF0000018470000D904000094
:1004400060220020600200200648804706480047DE
:10045000FEE7FEE7FEE7FEE7FEE7FEE7FEE7FEE774
:10046000FEE7FEE73D0700000104000040EA01034B
:100470009B0703D009E008C9121F08C0042AFAD25A
:1004800003E011F8013B00F8013B521EF9D270471E
:10049000D2B201E000F8012B491EFBD270470022C6
:1004A000F6E710B513460A4604461946FFF7F0FF73
:1004B000204610BD064C074D06E0E06840F0010301
:1004C00094E8070098471034AC42F6D3FFF79CFF3E
:1004D000101800003018000000F000F8BFF34F8F34
:1004E00005480168054A01F4E06111430160BFF36A
:1004F0004F8F00BFFDE700000CED00E00400FA059F
:100500002DE9F05F5D4CD4F804015D4D012690B1FA
:10051000D4F8000380070ED55A4800F0CDFF687864
:1005200040B905F1100000F05FFF5748C660066053
:100530000020A8606E70D4F81801544F08B3D4F8A6
:10054000000340061DD552480068C0F3C800A0F162
:1005500002084C48143000F0AFFF3878302803D040
:10056000387850280BD00BE0D5F804C0BCF1000F50
:1005700007D04346454A0221E868E04701E02E7073
:10058000E661D4F81001DFF808A14FF0100BAAF1D2
:10059000140AD0B1D4F80003C00616D539480C307F
:1005A00000F08AFFC4F808B3CAF800700AF1040129
:1005B000C1F800B0E661D5F804C0BCF1000F04D06A
:1005C00000231A460321E868E047D4F84C01DFF81D
:1005D000C4904FF00D0838B3D4F80003000323D5BE
:1005E0002848483000F068FF2648143000F064FFC7
:1005F0002448243000F060FFCAF800702449103904
:10060000C1F800B0E6614FF48860C4F804032149E2
:100610000831C1F80080C9F800806F6827B1002355
:100620001A461946E868B847D4F8280160B1D4F8EA
:100630000003400508D5174F0837386811482430A3
:1006400000F03AFFC7F80080D4F81C01002813D04E
:10065000D4F8000300060FD5D9F800704C460948BD
:10066000183000F029FFF80704D0287810B1266070
:1006700000202870C4F80080BDE8F09F00500040C2
:10068000040000200451004000B00140D0010020CF
:10069000245500400454004000F01F020121914005
:1006A0004009800000F1E020C0F88012704700F09F
:1006B0001F02012191404009800000F1E020C0F8B4
:1006C000001170474907090E002806DA00F00F00F4
:1006D00000F1E02080F8141D704700F1E02080F860
:1006E000001470472DE9F0414FF48077384600F050
:1006F00049FE0124104EA50748B1384600F049FED6
:100700000120C5F808037470002000F0A9F94FF427
:100710008277384600F036FE00280BD0384600F0CD
:1007200038FE0220C5F80803B470BDE8F04101208E
:1007300000F096B9BDE8F0819C01002070B58D48AD
:100740000023021D0178101D0124062907D1157808
:100750002D0704D10578C5F30315032D02D0062912
:1007600004D00FE0854E844D75670EE015782D0797
:1007700008D10578C5F30315032D06D0042D04D048
:10078000052D02D0062909D010E04FF08055D5F88C
:1007900044527B4EC5F34235356002E015782D0793
:1007A00004D10578C5F30315032D02D0062906D020
:1007B00011E0744D2E6826F080762E600EE01578DC
:1007C0002D0708D10578C5F30315032D06D0042D98
:1007D00004D0052D02D006290AD011E04FF0804543
:1007E000C5F80C31C5F81031654D2D1F2B6002E0A6
:1007F00015782D0704D10578C5F30315032D02D014
:10080000062905D00CE05E4A0321643211600AE03B
:1008100015782D0704D10578C5F30315032D02D0F3
:1008200006290DD06AE0584A0521116056497831F1
:100830000C60554908310B603F21121D116002E028
:10084000117809075AD10078C0F30310052855D153
:100850004E4800684E4908604C48001D0068091D5C
:1008600008604A4808300068091D086047480C3095
:100870000068091D0860454810300068091D0860BF
:10088000424814300068091D08604048183000686C
:100890003F49203108603D481C300068091D086050
:1008A0003A4820300068091D086038482430006844
:1008B000091D0860354828300068091D0860334864
:1008C0002C300068091D086030483030006830491D
:1008D000403108602D4834300068091D08602B48FD
:1008E00038300068091D086028483C300068091D40
:1008F0000860264840300068091D086021487438A7
:10090000016841F470010160BFF34F8FBFF36F8F37
:100910004FF01021D1F80002002803DBD1F80402C7
:10092000002822DA1B4A14601B480468002CFCD003
:100930001524C1F800420568002DFCD0C1F804421E
:1009400001680029FCD0136001680029FCD0BFF3C6
:100950004F8F0C48F0380168104A01F4E0611143F0
:100960000160BFF34F8F00BFFDE70E490C480860E0
:1009700070BD0000E00F00F00DF0ADBA00C0074000
:100980003C050040FCED00E010560040040400105F
:1009900020C5004004E5014000E401400400FA05E0
:1009A0000090D0036800002010B500F0FDF8024967
:1009B0000020C1F8400110BD00B001400448017F93
:1009C00004480029024901D000F06ABE00F0D9BDF8
:1009D000B00100200020004002E008C8121F08C13A
:1009E000002AFAD170477047002001E001C1121FB0
:1009F000002AFBD170470000BFF34F8F0548016804
:100A0000054A01F4E06111430160BFF34F8F00BF5D
:100A1000FDE700000CED00E00400FA050EB5002132
:100A20000091CDE901106A4644F20100FFF7E4FFAE
:100A30000EBD00F003B800F009B8000072B602481D
:100A40000168491C016070470000002003490868E4
:100A5000401E086000D162B6704700000000002010
:100A600070B5084C050009D010342168002907D062
:100A700008682060496828468847F6E70834F4E7A4
:100A800070BD00009C01002070B5254CA0421ED115
:100A9000F1B1012936D0022928D0032917D1072026
:100AA00000F0B4F9002812D194F8680094F86910A5
:100AB00088420CD194F86A00002808D10023D4E9B8
:100AC00001501A460321A847012084F86A0070BD2E
:100AD000052000F09BF90028F9D1A0686468002384
:100AE000A446BDE870401A4601216047104619002F
:100AF000EDD00028EBD00278302AE8D1BDE8704074
:100B000000F0A4B9082000F081F928B9A0680023FA
:100B100064681A460221A047BDE8704000F030BA70
:100B2000F0010020F0B51C490B68091D09681B4A3B
:100B30000224C2F804431A4CC2F80443DAB2C3F3E5
:100B40000724C3F30743027082EA040583F0880692
:100B5000447075408370C57001710D0A0E0C4571AB
:100B60000F0E867169407E40C7717140017203218A
:100B7000417211040B4A41EA042119431160416892
:100B8000C07909BA21F0FF010143101F0160054936
:100B900044200C310860F0BD5004001000500040AB
:100BA0008000080094550040FEB513480068134CBF
:100BB00010F0030F4FF0000501D0A560FEBDA06846
:100BC000401CA0600728F9D90D480126066100F0F5
:100BD000F7FBBFF35F8F0B480560BFF35F8F0660C5
:100BE000666826B100231A460121E068B0476570A7
:100BF0006846FFF797FFFEBD3C540040040000200C
:100C000000B00140FC5F004070B50C00054613D0F9
:100C10000A4800F051FC0A480560094940F6FF7097
:100C20000C3100EAC400086006481021C0F8041323
:100C30000121C160002070BD0C2070BD105100402A
:100C400010550040005000403EB51C4AD160506035
:100C50006846FFF767FF0A21684600F0EBFA17487D
:100C6000174910300025C0E9005100F0E9FB0446A7
:100C70001448056013490120091D0860114A042128
:100C80000C3211600F4A64213C3211600E49C1F8E8
:100C900000020004C1F804031B20FFF7FDFC06213D
:100CA0001B20FFF70FFD1B20FFF701FD1CB1852C5A
:100CB00001D003203EBD00203EBD00000400002006
:100CC000A914000004B5014000B00140094910B565
:100CD0000D2008600520FFF7DFFC06210520FFF747
:100CE000F1FC0520FFF7E3FC0349012088600020A8
:100CF00010BD00000454004000500040054910B5EC
:100D000001200860012000F04DFB0028FAD10249C3
:100D1000487010BD040000409C01002002680A6079
:100D2000016070470EB500200122032102FA00F392
:100D30009B0304D5830003F1A043C3F80017401CB4
:100D40002028F3D315494FF4003008600020091D16
:100D500008600146124800F0A5FA08B1FFF75EFEF0
:100D60004FF48070029002A90E480F4ACDE90001AD
:100D700026232021A2F1200000F06EF908B1FFF730
:100D80004DFE0848029900F06DFA08B1FFF746FEE3
:100D900000F045FA08B1FFF741FEFEE708050050F4
:100DA000351000009C000020B017000010B51C4654
:100DB000934200D914462246FFF758FB204610BD47
:100DC00010B51C46934200D914460A462146FFF747
:100DD0005FFB204610BD00000B4900F110021346D6
:100DE0004A610A6913448B6128B14FF47C73CB616B
:100DF0004FF4806301E00023CB61C01C10448008E5
:100E00000B6281F869007047F001002070B50D4D4C
:100E10000D4A00212C7800BF01EB4103D65CA642AD
:100E20000AD113445B78834206D101EB41001044A0
:100E300080782870002070BD491C0F29ECD3082051
:100E400070BD0000F00100206C00002070B5044669
:100E5000022920D10620FFF7D9FF00281BD10E4917
:100E600064784B69A2002046934208D88D69103DF2
:100E7000954204D3C968C3EB8400084403E000F042
:100E800017F8054838301021FFF7BEFE2046BDE8B0
:100E9000704000F099B870BDF0010020034902686D
:100EA0004A6242688A62008988857047F0010020A2
:100EB0002DE9F041264F8400102529463846FFF7DA
:100EC000EEFAA7F138067069A0420BD9021B31195E
:100ED0002B4638462431FFF769FFD0F11005044452
:100EE000074432D0B069A0420CD970693169201A28
:100EF0000A1AF1682B4601443846FFF757FF2D1AAE
:100F000004440744002D20D0F069A04209D9021BF7
:100F10002B4600213846FFF753FF2D1A044407449F
:100F200013D0306AA04208D9021B2B46FF21384655
:100F3000FFF746FF2D1A074407D02B463846BDE879
:100F4000F0411A460021FFF73BBFBDE8F0810000E9
:100F50002802002070B50C460546914201D90C20AC
:100F600070BD0120FFF752FF08B1082070BD05B920
:100F700000240248C0E90354002070BDF0010020A5
:100F800070B5002103230A460C460E4801260CE0EA
:100F900006FA03F50D43E9B25B1E05D5831883F805
:100FA000481007230021521C641C90F86950A54288
:100FB000EEDC024482F84810002100F8681F8170BE
:100FC00070BD0000F0010020F0B5C208514200EBF6
:100FD000C1010024124BC1F107010125042813D3DC
:100FE00005FA01F603EB020CF7B29CF848603E42AA
:100FF00004D0BE438CF848602E4600E0002693F8EB
:1010000068703E4483F86860491E01D50721521C70
:10101000401C10F0FF0002D0641C042CDEDBF0BD8D
:10102000F0010020024AC2E9000102F10800704705
:101030003000002010B5074B00201C1F4FF4003279
:10104000012904D0022901D12260186010BD1A6064
:10105000206010BD0C0500502DE9F0470546DDE984
:1010600008980E4614461F46124800F038F84CB156
:101070003946204600F076F901460E4800F06BF83C
:10108000002815D14DB131462846FFF7CBFF014668
:10109000084800F060F800280AD10648806830B19E
:1010A00042464946BDE8F047024800F01BB8072019
:1010B000BDE8F0872400002070B515460B000446FB
:1010C00009D028686268904201D2042070BD184699
:1010D0002168FFF7CBF960682860002070BD00210F
:1010E000816070472DE9F8439046894607004FF02C
:1010F000000606D0B8F1000F03D03D680DB1002402
:1011000022E00E20BDE8F88324B1611C884207D19B
:10111000402106E0012801D0802102E0C02100E04A
:101120000021D8F800006B46801B00904A462868D2
:1011300000F01FF80028E5D10098B9F1000F06442F
:1011400000D08144641C2D1DB868A042DCD800206A
:10115000C8F80060D6E7D0E901329A4201D30420F2
:101160007047036843F822108168491C81600020A1
:1011700070472DE9F843144698460A4605004FF09B
:1011800000074AD06878297A4618B61D00B1761C47
:101190008CB332F0C00002D00720BDE8F883D8F845
:1011A0000000B04201D20420F7E722702B78601CC7
:1011B0001A4322702A7A00F8012B21460746041DA3
:1011C000687828B104F8010B087840F0080008702E
:1011D0002A7A2046E968FFF749F9287A6A780444B0
:1011E0002AB120466968FFF741F968780444D8F8C5
:1011F0000000801B00902B697BB16A46214668691C
:1012000098470028C9D114B1009800BA38600098F6
:1012100031180020C8F80010BFE70E20BDE710B558
:101220000420FFF7F3FD08B1082010BDBDE8104011
:10123000FFF74CBD10B5040003D00A2901D00C20E3
:1012400010BD0320FFF7E2FD08B1082010BD2CB14E
:101250004FEA0400FFF722FE002010BD0048F9E726
:101260000618000010B54FF47772FFF773FE040004
:1012700013D10B480322016900F8342FFE2902D84C
:101280004170022005E0FF2242700A0A8270C1709C
:101290000420FFF7A1FDFFF773FE204610BD0000FC
:1012A000F001002070B50E46050005D00020FFF7C4
:1012B000ADFD18B1082070BD072070BD0B4C0C4867
:1012C000C4E901561434FFF7E9FDFF20A076E0766B
:1012D000E1202077112060777C20A0770F20E07735
:1012E000BDE8704001490348FFF7AEBCF0010020A3
:1012F00006180000890A00002DE9F047164604464A
:101300000279007B1518ED1D41B33068A84202D266
:101310000420BDE8F0874FF0000801F8018B4FF082
:10132000010981F800904F1C207907F8010B227900
:1013300038462168FFF79AF820790744207B07F8A0
:10134000010B227B3846A168FFF790F8207B202113
:10135000384480F8008080F801908170002035606A
:10136000D7E70000054A044B13600C23137190600B
:101370001173034870470000FA170000E0010020D5
:101380005000002000F180400068002800D00120BB
:10139000704708B500F180400021016000680090AE
:1013A00008BD00000549096840F4803001F00111D2
:1013B000814201D101207047002070470C04004099
:1013C00010B50020FFF735FB06484168491E416013
:1013D000406808B9FFF792FCBDE810400020FFF715
:1013E0002ABB00009C01002070B5144D04466878AB
:1013F00038B114B16168002088470020FFF719FB5D
:1014000013E00020FFF715FB24B10C4821460830FB
:10141000FFF784FC686840B94FF48070FFF7B9FFAC
:1014200001208107C1F8040308606868401C6860F7
:10143000BDE870400020FFF7FEBA00009C010020CC
:1014400010B5094C207808B1852010BD0020A0609F
:1014500060602061E060062100F00AF80349012085
:1014600008602070002010BD9C010020180500407D
:101470004907090E002806DA00F00F0202F1E02207
:1014800082F8141D03E000F1E02282F8001400F05D
:101490001F02012191404009800000F1E020C0F8C6
:1014A0008012C0F800117047002802D101490120C4
:1014B000086070470050004008B5002101600068D6
:1014C000009008BD4058002800D00120704708B5A2
:1014D000002242504058009008BDD0F80403084054
:1014E00000D0012070474058002800D001207047EC
:1014F00008B5002242504058009008BD70B505461E
:10150000C87D0C4600284FF4847128460AD0FFF7A6
:10151000DEFFD5F81805627EE1688854607E401CC5
:10152000607670BDFFF7D3FFD5F8180570BD1FB505
:1015300001238DF800308DF808100192D0E90012D7
:10154000684690471FBD70B50C4605464FF48E7136
:10155000FFF7BDFFA18AA068415CA08A401CA08261
:10156000C5F81C1570BD1FB500228DF800208DF840
:101570000810816801918275D0E900126846904791
:101580001FBD2DE9FF470C4605464FF40071FFF7DC
:10159000A4FF01274FF40178002618B34FF4927985
:1015A00049462846FFF78EFFE0B149462846FFF737
:1015B0008EFFC5F80883A07E00B96F6002208DF809
:1015C0000000D5F88004C5F880040390E07D8DF814
:1015D0000800E0680190E6752676D4E900126846B6
:1015E000904727E004212846FFF777FF10B34FF418
:1015F00084712846FFF766FFE0B121462846FFF7D1
:101600007DFFE07D617E884214D1207E38B1617E0D
:10161000E268E0752069E0602676667607E0A07EE5
:1016200000B96F60C5F80883E675617EE268204600
:10163000FFF77DFF4FF48E7841462846FFF742FFC3
:1016400088B1A08AA17D884204D221462846FFF7AE
:101650007AFF08E041462846FFF739FFA17D11B126
:101660002046FFF780FF4FF4A27841462846FFF757
:1016700029FF002812D041462846FFF728FFA07E08
:1016800000B12F60E07D002808D0E675617EE26839
:1016900004B02046BDE8F047FFF749BFBDE8FF872B
:1016A0002DE9FF410C464FF4927705463946FFF786
:1016B0001AFF0026C0B139462846FFF719FF02205D
:1016C0008DF80000D5F88004C5F880040390D5F8A3
:1016D0003C058DF80800E0680190E6752676D4E9AF
:1016E00000126846904724E04FF488773946284630
:1016F000FFF7F9FEE8B139462846FFF7F9FED5F8BD
:101700003C05C1B2E07D884213D1207E60B1E26821
:10171000D5F8000220F02000C5F80002207EE07518
:101720002069E060267601E0E675E2682046FFF772
:10173000FEFE4FF4A27739462846FFF7D4FE68B183
:1017400039462846FFF7D4FEE07D38B1E675D5F876
:101750003C05E268C1B22046FFF7E9FE4FF49076FF
:1017600031462846FFF7BFFE00280FD031462846F5
:10177000FFF7BEFEA07D002808D0D5F84C0504B0C8
:10178000C1B22046BDE8F041FFF7EDBEBDE8FF81E4
:101790006E6F2E6E6F7264696373656D692E616E14
:1017A00064726F69642E6E7266746F6F6C626F78AC
:1017B0007B65313264326461372D343838352D34ED
:1017C0003030662D626364342D366362643562386E
:1017D00063663632637D616E64726F69642E636F17
:1017E0006D3A706B6777696E646F77732E636F6D98
:1017F0002F4C61756E636841707057696E646F77C6
:101800007350686F6E65000102030405060708093E
:1018100030180000000000209C000000D8090000E3
:10182000CC1800009C000020C4210000E809000042
:1018300000000000000000000000000000000000A8
:101840000000000000000000000000000000000098
:10185000000000001C00002002000000000000004A
:101860000000000000000000040000000000000074
:101870000F000000D6170000B91000003000002053
:10188000030000000000000015000000E517000044
:10189000F9120000E00100200090D00304060504C6
:1018A00008030409020507040508030509020305E6
:1018B0000403090200000101030101010202040303
:0C18C000020A00020102020902000000FE
:0400000500000401F2
:00000001FF
