:020000040001F9
:10F00000602B0020E9630200FF04020007050200F4
:10F010000F0502006F050200AB05020000000000B2
:10F020000000000000000000000000005F1002006F
:10F030008F1C020000000000EB520200EF5702009C
:10F0400015560200AD630200AB600200CF63020000
:10F05000DB6302000D640200835B02000F640200A8
:10F0600011640200136402001564020017640200B8
:10F07000196402001B6402001D6402001F64020088
:10F08000216402004B2B020023640200256402006D
:10F09000CD2B020027640200B92E02002964020071
:10F0A0002B6402002D6402002F6402003164020010
:10F0B000336402003564020000000000000000001C
:10F0C00037640200396402003B6402003D640200C0
:10F0D0003F6402004164020043640200000000003B
:10F0E0000000000000000000000000000000000020
:10F0F0000000000000000000000000000000000010
:10F1000000000000000000000000000000000000FF
:10F1100000000000000000000000000000000000EF
:10F40000DFF8EC1B0A78104308707047DFF8E01B48
:10F410000A7822EA000008707047DFF8D41B0978E8
:10F42000084018BF0120704738B504460025DFF8B2
:10F43000C40B00EB8500416808001CBF20468847CC
:10F440006D1C082DF3D331BD81884FF6FF729142B8
:10F4500003D0008810B1012000E00020C0B2704746
:10F460002DE9F04100F5805800F108060C461546DC
:10F47000002702200FE0DFF8240CB2688169914276
:10F4800038BF11468161708806EB800101F10C06DE
:10F490002188C01C4018464520800AD2306810F1EF
:10F4A000010F06D03046FFF7CFFF0028E3D1012738
:10F4B000E9E705B12F70BDE8F0810289CB1C9A18ED
:10F4C00002814289511AC91E4181704780B50020CE
:10F4D00000900223DFF8C40B0FF2040201690AE076
:10F4E000DEC0ADDEFF011EF180B5002100910223D8
:10F4F00001460FF20C02DFF8A80B00F0E9FE02BD96
:10F50000DEC0ADDEFE011EF130B5C01C80B240F29F
:10F51000FE32904201DB092030BD0022DFF8843B3F
:10F5200003EB02131C786CB91C895D8924182C1913
:10F53000A4B2B4F5806F05DA0A8059894018588161
:10F54000002030BD521C022AE8DB072030BDDFF866
:10F55000542B02EB01114A89101AC01E48817047D2
:10F5600070B5DFF8402B0C4602EB001021684568AF
:10F5700019B1488801EB800005E005F1080604E0B8
:10F58000708806EB800000F10C0605F5805086427D
:10F590000BD2306810F1010F07D03046FFF754FF4F
:10F5A0000028EDD02660012070BD002070BDF8B5A8
:10F5B00005460C466968DFF8E46A0A0025D0DFF8E2
:10F5C000E03A1F680846B84224BF5B6883421CD3F8
:10F5D00011F0030202BF2A8933899A4202BF2A68C6
:10F5E0008B689A4211D10021DFF8F82A02EB011250
:10F5F000526882423CBF02F58052904203D3491CBC
:10F600000229F1DB1BE0218011E000202080002096
:10F61000009020886946FFF7A3FF50B10098296841
:10F6200080688842F5D1009868603089288101207F
:10F63000F2BD2088401C208080B20228E7DB002039
:10F64000F2BDF8B504460D4616461F4600F0E4FC30
:10F6500008B90220F2BD002E18BF002F05D10520E9
:10F66000F2BD3860B888401CB880B888022821DA1A
:10F67000DFF8301A0001405C0028F3D1B888394621
:10F68000FFF76EFF0028ECD03868002C1EBF828880
:10F6900023889A42F2D1002D1EBF02882B889A42FD
:10F6A000ECD1816831607060DFF83C0A00893081FC
:10F6B0000020F2BD0A20F2BD0168DFF8302A02F115
:10F6C000380399421ABF08310160026070472DE982
:10F6D000F041DFF81C7A82B00C460346796F0020B7
:10F6E000042990462ED2DFF8046A756CC4F1080232
:10F6F000AA4227D3386F401800F003001C2111FBE9
:10F70000007019461C2200F0CFFE786F401C78670D
:10F71000BCB1306C401900F0070006EBC00000904F
:10F72000002708EBC7027F1CD2E90001009AC2E95A
:10F7300000016846FFF7C0FFA742F2D3706C2018A3
:10F7400070640120BDE8F6812DE9F0470024A04651
:10F7500000260027DFF84459DFF89899D9F800000F
:10F76000DFF8943900EB073008F1010102681FFA55
:10F7700081FADFF870199A4201EB081125D142682D
:10F78000DFF87839D21A02D0521E0AD01DE00A7072
:10F79000486001F10E020831FFF762FE44F00204F6
:10F7A00029E036B102220A70D0462A694A60022254
:10F7B0000A812861002205F11401FFF751FEA88A91
:10F7C00002280CBF042008201EE0002250F822303E
:10F7D00013F1010F0DD1521CB2F5806FF6D32A69D7
:10F7E0005AB102220A7048600A81A5F80280D04608
:10F7F00007E003200870D04607E0286101260220B8
:10F80000A88244F0010400E004437F1C032FA5DB21
:10F81000E0B2BDE8F08780B50021009101230146E8
:10F820000FF6DC02DFF8CC0800F052FD00B10E202C
:10F8300002BD10B5DFF86448DFF86818608801EB96
:10F840000011DFF8B0088A893AB94968002301221B
:10F8500000F07AFD0421217010BD052121700023E4
:10F860000221A18201222169BDE8104000F06CBD97
:10F8700080B5DFF87408416849884268CB1C0321D1
:10F8800001709BB2002100910169808A01EB800127
:10F8900031E680B5DFF80408011D4088FFF760FEFF
:10F8A00000281CBFBDE80140FFF7E2BFBDE80140F2
:10F8B000BFE70000DFF8E407DFF828180278072A1E
:10F8C00000D9704710B5DFE802F0042E2E151D2A6E
:10F8D0002A2C0289521C02810022428002731301E9
:10F8E0005C5C631E9B411418521CDB0F022AA3723E
:10F8F000F5DB16E042685288818AD21C5118818259
:10F9000002210FE04388026901EB03114B68036198
:10F910004A60828A0A8102218182062102E007214F
:10F9200000E00121017010BD70B502460C460F20A9
:10F930001AB100F0ECFA012070BD2179DFF8A4576C
:10F94000DFF8586703293CD8DFE801F002061E2AD9
:10F95000FFF7BCFD012121E029780020022907D111
:10F96000040160194068FFF7BFFD0021615528E0E0
:10F97000297C01200229F3D00220FFF741FD00F08D
:10F98000C6FA41F61D5070BD3169DFF868070023E3
:10F99000012200F0D9FC0221B1820021217110E086
:10F9A0003069FFF7A1FD7188326905EB01114B68E1
:10F9B00033614A60B28A0A810222B28200220A704E
:10F9C000227110B100F0A3FA0E2070BD2DE9F041B4
:10F9D0000C4682B0618ADFF80C2702EB011528B1D2
:10F9E000E1882846FFF769FD01207DE068682989E4
:10F9F000DFF8AC8600EB8106207C06286ED8DFE8B5
:10FA000000F010511C2B04626A000020D06269468D
:10FA1000A069906202F12800FFF7C9FD08B90A2029
:10FA200062E0002000900123221D314600F05EF8C4
:10FA300002212174A0B30E2651E000200090012382
:10FA400004F10C0206F1080100F050F8A17D002934
:10FA50000CBF0121032132E0DFF89006416C002742
:10FA600041B1026C00EBC207521C02F00702491EB2
:10FA70000264416400200090A08ABB883A6806EBCB
:10FA8000800100F033F8A18ABA885118A182A17DC3
:10FA9000491EA175C9B209B9012121740028CAD132
:10FAA000002620E000200090012304F10802311D0F
:10FAB00000F01CF8217803290CBF0521062100283D
:10FAC0002174B8D1ECE7D06AFFF7A5FE0646062000
:10FAD000207426B907E041F61D5600E00F26E188A4
:10FAE0002846FFF7EAFC3046BDE8F681404600F0C4
:10FAF000EFBB7FB50C4608B1012042E02079DFF86A
:10FB0000E45541F61D5618B1022837D01ED337E010
:10FB100001A80021002200230EC0E0680190694680
:10FB200001A8FFF744FD68B102988188E18001884F
:10FB30002181FFF770FEBDF8002005EB02120121C4
:10FB4000917300E00A20022121711AE005F12003DF
:10FB500001AA0021A01DFFF774FD40B90298FFF72C
:10FB60005AFEA98C05EB011101228A7304E005F10C
:10FB70002001002200230CC10A2802D1304600E0F7
:10FB80000F2004B070BD000010B508B1012010BDF9
:10FB9000DFF80845207B00281ABF00202073FFF7FC
:10FBA00089FE2178DFF83C05491E062935D8DFE8B3
:10FBB00001F0041B1E2134242D0000210A19937A20
:10FBC0003BB10023937200EB011293890BB9927B36
:10FBD0004AB9491C0229F1DB002020706080606076
:10FBE00041F61D5010BD6180BDE8104051E6BDE8F2
:10FBF00010403DE6BDE810401BE6062121706188FB
:10FC000000EB0110BDE8104040686DE40720207053
:10FC100000206060BDE8104058E40F2010BD0000D7
:10FC200070B5DFF8CC5486B0296F1C2404FB015654
:10FC30003178491E05291BD8DFE801F0030F0F13A7
:10FC400013173146FFF770FE00286ED041F61D51A4
:10FC500088420FD1002001901CE03146FFF7B6FE2C
:10FC6000F2E73146FFF745FFEEE7FFF78DFFEBE7E1
:10FC70000F20EBE701903078022818BF032809D144
:10FC8000DFF86804B27D016C89180164B27D416CB3
:10FC9000891A41643078401E05282CD8DFE800F02E
:10FCA0002820110C0503052023E0042000F03FF874
:10FCB0000020ADF80E001EE0032000F038F8308977
:10FCC00011E0022000F039F8ADF80E00F068029063
:10FCD000307C06280CBF012000208DF810000AE0BF
:10FCE000012000F02AF8ADF80E00F068029002E062
:10FCF00000208DF800006846FFF796FB286F1C2156
:10FD000004FB005000F0FCFB686F38B1296F491C00
:10FD100001F00301401E2967686703D10420FFF743
:10FD200075FB02E00020FFF77BFF06B070BD8DF889
:10FD30000000F088ADF80C0070478DF800003089A5
:10FD4000ADF80C00B088704780B50420FFF765FB64
:10FD500030B90420FFF754FBBDE8024000205FE704
:10FD600001BD08465CE72DE9F041044688B00D4628
:10FD70001646984600F050F9002708B9022070E0B6
:10FD80000DB905206DE028884FF6FF7188421ABF33
:10FD900068880028042064D028896968BC4601E08E
:10FDA0000CF1010C844506D211F83C2012F003023C
:10FDB000F6D0032055E07EB9002205E001EBC20336
:10FDC000521C9B88DF19BFB28242F7D3694638467E
:10FDD000FFF79AFB20B144E03088ADF80000778847
:10FDE000DFF804638DF8048000208DF81400BDF85E
:10FDF0000000ADF8160028898DF81A000320ADF830
:10FE00001800B069401CB0610490B8F1030F288855
:10FE1000ADF80C006888ADF80800ADF80A7004D1A0
:10FE200004208DF81400206807900020ADF80E0023
:10FE30006A68298901A8FFF74AFC30B9BDF80010AB
:10FE40003846FFF784FB08200BE03CB100206060DF
:10FE5000049820600020A07230892081FFF774FF91
:10FE6000002008B0BDE8F08162490A78082A01D173
:10FE70000C20704701EB82035860501C0870002072
:10FE8000704700B58DB007A8142100F03DFB00F0CD
:10FE9000C3F8A8B90120FFF7C0FA002834D1012027
:10FEA000FFF7AEFA00F0C8F9FFF74EFC08B90B20D7
:10FEB0002BE0062808D10220FFF7A2FA00F027F86D
:10FEC00007A8FFF7B1FA1FE001218DF80010012803
:10FED00018BF03280AD0052818BF07280ED0092804
:10FEE00006D00A2806D00B2802D009E0002002E044
:10FEF000032000E002208DF8040001E08DF80410DA
:10FF000000F0ADF8FFF720FF00200DB000BD01208C
:10FF1000FFF77CBA38B504000D4618BF002D01D19B
:10FF2000052032BD6946FFF742FB78B1BDF80020DD
:10FF30006C49606801EB02118A89521C8A81286031
:10FF40000C3068600120A072002032BD0A2032BD52
:10FF500010B5040082B001D1052016BD6946FFF737
:10FF600026FB88B1BDF800105E4800EB01108189C6
:10FF700000291CBFA27A002A04D0491E81810020DA
:10FF8000A07216BD062016BD0A2016BD38B504465F
:10FF90000D4600F041F808B9022032BD0CB9052029
:10FFA00032BD69462846FFF7AFFA18B9BDF8001010
:10FFB0002180658032BD10B500F02DF808B902200F
:10FFC00010BD0CB9052010BD218803290DDA454B61
:10FFD000608803EB01125289121AD21E05D4FFF772
:10FFE000B6FA00202080608010BD042010BD000003
:10FFF0007E3400203433002002230AE0002A1CBF94
:020000040002F8
:100000000223FFF7B0BE0520704708B905207047EE
:1000100003230022A7E604460220FFF7FEB910B52D
:10002000044688B0FFF7F8FF08B9022015E04FF644
:10003000FF70844208BF04200FD005208DF8000017
:10004000ADF8064001208DF8040000F008F818B162
:10005000FFF77AFE002000E0082008B010BD002263
:1000600000216846FFF733BB00B587B0FFF7D4FF28
:1000700008B902200FE006208DF80000FFF7EFFF1F
:1000800040B11948017809B101210173FFF75CFE05
:10009000002000E0082007B000BD0000D43300209D
:1000A000502300200033002003B581B002A901A82D
:1000B000FFF7C7FA0EBD01B513460A466946002090
:1000C00004E001B513460A4600216846FFF7B9FA75
:1000D00002BD002818BF00290FBF05200068086076
:1000E0000020704700330020D43300205831002016
:1000F000182F002050230020DEC0ADDEFE011EF1CF
:100100000000FFFF7FB5024668460023002400255B
:10011000002678C0107A012802D0022808D012E008
:100120008DF8003010690290908AADF80C000AE05A
:1001300001208DF80000D3899089C01AADF808001D
:100140009089ADF80A00506801906846126892687C
:1001500090477FBD40B1C6494A68904204D3896840
:10016000884201D20120704700207047C148416E8B
:10017000491E416604D1BE490A7802F0FD020A70A8
:10018000016E491C042908BF002101667047B94867
:10019000016E182202FB0103406E00B9704710B5D2
:1001A000187A012802D0022811D01DE0DC8A998A31
:1001B0000A1BB2F5806FA8BF4FF48062D86800EBCD
:1001C0008401186992B200EB840029DF01E098896C
:1001D00028DF112807D1A648017801F0FD0141F080
:1001E0000401017010BD20B1BDE81040092118467E
:1001F00088E710BD9E4801780622114203D141F0E4
:1002000002010170C3E7704738B504469948416E52
:10021000042901D1002032BD026E8A18042A28BFA9
:10022000121F491C4166182101FB0205284600F0F7
:1002300067F92560012032BD2DE9F0438E488F49D2
:10024000401A4FEA10198E48056815F1010F4B4608
:1002500002D18C480068050385480178CA0734D468
:100260004268002608E002EB06173C68002C1EBF1F
:100270007F68002F5B1E761C4E45F4D300261AE0E3
:1002800002EB0C173C68002C1CBF7C68002C04D1CE
:100290007F7BBE453CBFBE46E0460CF1010CCC4521
:1002A000EED35FFA88F402EB0417761C7D603C7B8A
:1002B000A5EB04353D609E4204D24FF0000EB046DF
:1002C000F446ECE741F0010101700020BDE8F08345
:1002D000F8B500F06FF801D40120F2BD2046FFF719
:1002E00039FF08B90220F2BD002E18BF002D01D140
:1002F0000320F2BD16F0030008BF15F0030001D083
:100300000620F2BD2068854222BF606805EB8701A8
:10031000884201D20520F2BD0FB90420F2BD684623
:10032000FFF772FF08B90720F2BD009906984860F0
:10033000009804600120009908720098C660009837
:1003400005610098878231E0F8B500F033F801D4F8
:100350000120F2BD2046FFF7FDFE08B90220F2BDE4
:100360000DB90320F2BD280501D00620F2BD20689A
:10037000854222BF606805EB0631884201D2052024
:10038000F2BD0EB90420F2BD6846FFF73DFF08B983
:100390000720F2BD00984760009804600220009991
:1003A0000872280B0099888100980682FFF722FFC7
:1003B0000020F2BD04462E480078C0070D461646C0
:1003C0001F46704708B9032070472A49496E0160EB
:1003D0000020704738B5274A0146106E182303FBEA
:1003E0000020234B1C78A50734D5022902D003290D
:1003F00022D039E000215970017A01290CD002295C
:1004000032D18189028A491C8181C189491CC181FB
:1004100089B2914228D10DE0C18A828A531AB3F57C
:10042000806FB4BF9BB24FF480635918C18289B208
:10043000914219D1002108E05978491C5970C9B27C
:10044000042911DB002159700821FFF75BFEFFF73B
:100450008DFE09E0600707D504F0FB001870516EAF
:1004600011B140F002001870BDE831408FE6000085
:1004700028210020902F00206023002050230020FE
:10048000141000101400001062B38B0708D0521E25
:1004900011F8013B00F8013B00F024808B07F6D1F6
:1004A000830740F0208000BF103A07D330B4B1E892
:1004B0003810103AA0E83810F9D230BC530724BFE6
:1004C000B1E80810A0E8081044BF51F8043B40F818
:1004D000043BD20724BF31F8022B20F8022B44BF83
:1004E0000B7803707047083A07D3B1E80810083A50
:1004F00040F8043B40F804CBF7D25307E4E7FEE7AB
:10050000002200F005B8FEE7002200F035B8FEE753
:10051000401810F0030308D0C91A1FD3DB0748BFE7
:1005200000F8012D28BF20F8022D130030B4144626
:100530001546103928BF20E93C00FAD8490728BFE2
:1005400020E90C0048BF40F8042D890028BF20F89E
:10055000022D48BF00F8012D30BC7047C91818BFE4
:1005600000F8012DCB0728BF00F8012D7047FEE7EA
:1005700062F30F2262F31F4200B500BF13009646DC
:100580009446103928BFA0E80C50FAD85FEA417CA5
:1005900028BF0CC048BF40F8042BC90728BF20F86B
:1005A000022B48BF00F8012B00BDFEE780B50320F9
:1005B00000F00EFC00281CBFBDE8024000F03EBD6C
:1005C00001BD704701780E2900D9704780B5DFE87A
:1005D00001F008350C101B242E3529352E2B2E3515
:1005E0003300808800F0DDFF19E0808800F0D9FF3B
:1005F00015E0418941F2060291421FD14088012154
:1006000000F047FF08280BE00FF2C4610968009171
:100610006946408800F046FF01BDFFF725FD11281F
:100620000CD005E0002004E0FFF7C0FF01BD8068AA
:1006300020B100F003FD01BD00F036FF01BD10B593
:10064000DFF80C46214604F1900001F023F8C1B216
:1006500004F1780001F033F900281EBF082843F2A6
:100660000401884207D043F2014188421CBFBDE823
:10067000104000F0E3BC10BD10B5DFF8D44504F124
:10068000100104F1980001F005F80146606F401C6C
:10069000606789B204F1240001F091FA002818BFC4
:1006A000082808D043F2040188421EBF43F20141EA
:1006B000884200F0C3FC606F0321B0FBF1F101EB55
:1006C0004101401A18BF012084F8200010BD10B568
:1006D000DFF87C4594F8200060B1DFF8781504F16C
:1006E000A00000F0D7FF81B204F12400BDE8104063
:1006F00001F093BA10BDDFF86005017881F00101C7
:100700000170DFF8580501F0A4BA10B59CB00320C1
:100710008DF80000142106A8FFF7F6FE00200690D1
:1007200001208DF81C0011208DF8240000208DF888
:1007300025008DF8260011208DF8270000208DF867
:100740002800CDF820D006A9DFF8044504F12400E4
:1007500001F00CFA08B100F071FC142101A8FFF7B8
:10076000D3FE11208DF811008DF8120001A9002090
:100770008DF8130011208DF8140000200190012045
:100780008DF808000020039064208DF8100004F11B
:10079000780001F071F808B100F050FC40210BA87E
:1007A000FFF7B2FE0FF204510BA801F067FA112017
:1007B0008DF8680000208DF869000BA801F0BAFAE6
:1007C00008B100F03BFC1CB010BD007840B9DFF868
:1007D000900400883B2176DF002818BF00F02EBC73
:1007E000704700F02BBC80B5002001F0CEFC08B1B2
:1007F00000F024FC01F08FFD08B100F01FFC32DF97
:1008000000281CBFBDE8024000F018BC01BD80B547
:1008100048B1032808D1022001F0B7FC20B1BDE89F
:10082000024000F00BBC96E001BD30B5044689B033
:100830002088DFF82C5402281CD010280AD0112858
:1008400010D03B2812D0512818D0552834D0562823
:100850000CD037E0072001F098FC08B100F0EEFB67
:10086000A08801E04FF6FF7028802BE0A0881321BC
:1008700076DF24E02888002167DF20E06846A11D9C
:100880001022FFF701FE9DF80000D8B19DF8080086
:1008900004281CBF0628052814D19DF80000022852
:1008A00018BF01208DF8100004A94FF4C170ADF8F5
:1008B0001400A088A8DF02E0A0881721ADDF08B1EE
:1008C00000F0BCFB09B030BD38B5044601F092FD24
:1008D000204600F07FFDDFF87853214605F1240023
:1008E00001F031F8214605F1780000F0F8FE2046CD
:1008F00001F0D6FE204601F017FD2046FFF795FFD8
:100900002046BDE8324000F037BB10B50446FFF783
:1009100061FD2046BDE8104000F05BBB80B5D049CA
:100920000A88042804D0072806D00A2812D112E029
:100930001321104676DF05E04FF6FF70824209D1A1
:1009400000F05CFB082805D000281CBFBDE8024071
:1009500000F074BB01BDBDE8014044E700B597B0AD
:10096000382109A8FFF7D0FD02208DF824002021AE
:1009700001208DF8260006208DF827000320ADF811
:100980003400B8480E9001A8FFF7BEFD01208DF895
:1009900007004FF4967005901E20069000200090EE
:1009A00001AAB14B002109A800F096F908B100F0A6
:1009B00045FB17B000BD30B5A54C8BB0002304F546
:1009C00094720521002002F002F908B100F036FB14
:1009D000A64A0FF2EC2000F05FF908B100F02EFB00
:1009E000A34A0FF2E02000F057F908B100F026FB0F
:1009F000A04A0FF2D42000F04FF908B100F01EFB1E
:100A00009D4A0FF2C82000F047F908B100F016FB2C
:100A10009A4A40F6CD41032001F0C1FB08B100F035
:100A20000DFB03A9002001F0BCFC08B100F006FB9F
:100A30009DF80C0002280FF29C200CBF0125002518
:100A4000006802900023502204F5D07102A802F041
:100A5000FEF908B100F0F2FA04AA0121002002F028
:100A60003AFA08B100F0EAFA1720ADF8200004A81D
:100A700002F049FA08B100F0E1FA814802F00EFAFA
:100A800008B100F0DBFA7F4802F00FFA08B100F07D
:100A9000D5FA00F0B1FC08B100F0D0FA25B100F0B1
:100AA00013FD08B100F0CAFA05216846FFF72CFDD6
:100AB0009DF8000000F00D0040F031008DF80000BE
:100AC00007208DF8010010208DF802009DF803002A
:100AD00040F003008DF803009DF8040040F003008F
:100AE0008DF80400684600F0CBFC08B100F0A6FACF
:100AF000654800F0B3FC08B100F0A0FA6348FFF7C6
:100B0000B3F908B100F09AFA11208DF808000A2212
:100B10000FF28C1102A87CDF08B100F08FFA40F2CE
:100B2000413078DF08B100F089FA684600210022E0
:100B300006C04FF4A070ADF80000ADF804104FF4FB
:100B40000270ADF802004FF4C870ADF806006846B8
:100B50007ADF08B100F072FAFFF700FFFFF7D5FD6A
:100B6000512020602146642060600120A060207335
:100B700004F1900000F084FD8C20206104F110014C
:100B80004FF4967060610A20A0610020207704F184
:100B9000980000F075FD2F49642008604FF4FA704A
:100BA0004860012088600020087304F1A00000F074
:100BB00067FD1C2104A8FFF7A7FC002004904FF458
:100BC000203005904FF47020069003208DF81C0013
:100BD000208EADF81E0000208DF820002C480990D2
:100BE0002C480A9004A801F00AFD08B100F026FA8A
:100BF00000224FF4803104F1A80002F027F808B178
:100C000000F01CFA00224FF4004104F1C80002F089
:100C10001DF808B100F012FA002242F2666104F1F8
:100C2000E80002F013F808B100F008FA00224FF4CF
:100C3000203104F5847002F009F808B100F0FEF9E3
:100C4000FFF7B4FC3EDF0028FCD000F0F7F9F9E72D
:100C5000342100203434002080340020582100202A
:100C600048230020242300200F0802003F06020032
:100C700079060200CF060200F70602001D090200F5
:100C8000C90802000B090200C5050200C3050200E5
:100C9000CB070200E3070200012101F0C4BF0000FE
:100CA0004E6F726469635F48524D00004E6F72640C
:100CB000696353656D69636F6E647563746F720009
:100CC000DC210020FC2100201C2200203C220020EE
:100CD0000000000001000007F8B5040018BF002A5A
:100CE0000D4601D10E20F2BDDFF84003DFF840636E
:100CF000012101720021C17292EC080BDFF834135C
:100D000081EC080B0699816143614FF6FF71018206
:100D10000721FFF7F9FB38213046FFF7F5FB207874
:100D20003070A078B070E078F07060787070D4E9BE
:100D30000401C6E90401D4E90201C6E90201D4E9CB
:100D40000601C6E90601626ADFF8EC1201F1400013
:100D50007AB170628160626A13880380002392888E
:100D6000828004E0676ABF68DF5D5F545B1C93426A
:100D7000F8D3A26AD2B101F12002426101F14C0222
:100D8000B262A26A9388038212888281002206E0FE
:100D9000A36A9B68D35C5718521C87F82030038ADB
:100DA0009A42F5D394F82C2086F82C20226A32B18E
:100DB00058313162216A4A88428309880183606818
:100DC00000B1706029463046BDE8F44002F013BB24
:100DD00070B5964C86B00646207A08B90820C1E066
:100DE000E67204A8FFF7EEFA0498B8B90721204686
:100DF000FFF78AFB8F4DE07A697809B1012805D0A9
:100E0000A97881B1012818BF02280CD161690800B6
:100E100007D0012020730820884704E00120607279
:100E20009FE00020207300200119497879B9401C07
:100E30000628F9D30020761E032E17D8DFE806F027
:100E400002090E126978014203D001200FE001204F
:100E5000F1E7A978014218BF022008D1E87808B16B
:100E6000032004E0287908B1042000E00020E072AB
:100E70006169080011D0E07A032818BF04280CD15A
:100E8000627B287882F00102104206D00020E073D5
:100E90000120A0730720884701E00020A073684666
:100EA00000210022002300264EC08DF800108DF88E
:100EB00008105F48E17A042931D8DFE801F04C03DB
:100EC0000D1A36000120A07201948DF80000ADF8D3
:100ED0000C20ADF80A2024E00220A0720194012029
:100EE0008DF80000E868ADF80C00A868ADF80A00BD
:100EF00017E02969627BADF80A1082F00102696986
:100F0000ADF80C1029781140E27B114202D1032088
:100F1000A07206E000F028F808B90520A072E07A77
:100F2000D0B1684673DFB8B11CE0A969627BADF847
:100F30000A1082F00102E969ADF80C10297811401D
:100F4000E27B114208BF0420E2D000F00DF8002837
:100F5000E5D10620E2E7A272616908001CBFA07A11
:100F60008847002006B070BD02218DF808100421CA
:100F7000C170002102F03FBA10B501882B4C102936
:100F800004D0112908D01B290ED010BDC17B012926
:100F90001ED18088208210BD002161738088218A43
:100FA000884215D101200AE0007A88B9E07A401C15
:100FB000052190FBF1F101EB8101401AC0B2FFF76E
:100FC00007FF28B1A1690A001CBFBDE8104008470F
:100FD00010BD801E012800D9704710B5134C607AEF
:100FE00058B100206072E07AFFF7F2FE28B1A169E3
:100FF0000A001CBFBDE81040084710BD10B574DFE3
:101000000A4C0120607306210020E0730848C1707B
:10101000002102F0F0F940B9E07AFFF7D9FE18B1EB
:10102000A1690A0018BF8847002010BDB83300200E
:1010300060320020783300205830002010B584B092
:1010400069460022002300241CC100F001F81FBDE6
:1010500002906A46002144F2010002F0FDB9FEE769
:1010600038B50446002505E001EB850120460969F5
:1010700088476D1CDFF8DC15C8788542F4DB31BD8C
:1010800070B58AB0054600F0EEFA6888DFF8C465EE
:10109000ADF804004FF6FF7402F07EFBADF80200DD
:1010A000287809286CD8DFE800F005122331373D95
:1010B000526B646607208DF8000028798DF80800CF
:1010C00000208DF80900039000F063F856E0072037
:1010D00000F06FF800F05DF8B06800284ED0A96805
:1010E00088424BD10020B060BDF80400F08010E0D1
:1010F000082000F05EF8E8680490B06800283DD051
:10110000A96888423AD100F0A7FA02E0072000F06F
:1011100047F80020039031E0082000F041F8A8686B
:1011200004902BE009208DF80000B07830B3204601
:1011300002F024FEA04221D1204602F021FEA0426E
:101140001CD100F041F80B2000F01CF80DE00A2043
:101150008DF80000A8680290B07878B100F034F8FB
:101160000C2000F00FF8A868079005A8FFF778FF9B
:1011700004E0052000E006208DF8000000F004F9EE
:101180000AB070BD8DF81400ADF81840ADF81640E7
:1011900070479DF80A0040F001008DF80A00704782
:1011A0008DF8000028798DF8080001208DF80900DD
:1011B00070478DF8000028798DF8080000208DF820
:1011C0000900A868039070470020B070142105A89A
:1011D000FFF79AB9F0B585B000F044FA6088DFF8FF
:1011E00074643179ADF8020001252078401E0B2887
:1011F0006ED8DFE800F076061529303C474B515792
:1012000059698DF800502079020018BF0122012889
:101210000CBF01270027608801F0A2F93A460EE0D2
:1012200002208DF800002079002814BF0120022040
:101230008DF808000122608801F092F92279717915
:10124000608801F08DF944E000F04DF8002814BFEB
:10125000012002200FE0608801F077F9002840D1DA
:1012600002208DF8000000208DF8080031E00320F6
:101270008DF8000000208DF80800A0798DF80C0092
:10128000A0881EE0072000F035F828E0082000F0D4
:1012900031F8A068049022E006208DF80000606814
:1012A000029016E0052010E000F01DF8002814BFA1
:1012B000012002208DF8080000208DF80C0041F27A
:1012C0000110ADF80A0004E004208DF8000000E0F1
:1012D0000025608802F00AFAADF804000DB100F0B4
:1012E00053F805B0F0BD03208DF8000071796088D7
:1012F00001F02BB98DF80000A088ADF8040007209C
:101300008DF8080000208DF80900704710B586B0F0
:1013100000F0A8F96088ADF8040002F03DFAADF8DD
:1013200002002078092824D8DFE800F00505090B21
:101330000D131525171B00F020F8082006E00D20DE
:101340000CE00E200AE000F018F805208DF80800E7
:101350000FE00F2002E0102000E005208DF80000D3
:1013600007E006208DF80000A0680290A088ADF884
:10137000020000F009F806B010BD07208DF800004B
:1013800000208DF809007047684669E610B50446EC
:1013900086B0207810B1012804D019E0E08800F070
:1013A0008BF815E0DFF8AC0241796088012201F08A
:1013B000D7F800F058F96088ADF80200608802F0B4
:1013C00095F9ADF8040000208DF80000FFF7DCFF70
:1013D00006B010BD10B50446DFF87802007850B1B1
:1013E000204602F0CDF8204602F076FE2046BDE809
:1013F000104003F014B810BD10B503F09CF928BBE1
:1014000002F033FB10BB02F043FEF8B903F019FC05
:10141000E0B902F082FFC8B903F053FEB0B902F0A0
:101420004EF998B9DFF82C424FF6FF70E0800020AB
:10143000A06018202071607101F075F818282071E3
:1014400004D001F070F81828607101D1032010BD9C
:101450000020607001202070002010BDDFF8F41122
:101460000A780AB908207047CA78032A01DB0420E9
:10147000704701EB82031861501CC8700020704750
:10148000DFF8D0110978002918BF02F067BE0820E4
:101490007047DFF8C0211278002A18BF02F07CBE26
:1014A0000820704702F06FBEDFF8A801007800281E
:1014B00018BF03F022B8704766490978002918BFA1
:1014C00002F097B90820704738B56248017809B929
:1014D000082032BD012181704FF6FF74204600E0E4
:1014E000284602F04BFC0546A54205D0FFF7E4FF75
:1014F0000028F5D0032032BD002032BD2DE9F34F86
:10150000544883B0007814461D4608B9082045E0C9
:101510004FF6FF78404602F031FC814600200090F3
:1015200000260FF24C124FF0FF37D2E90001CDE94F
:101530000101CDF808D001AA0621484602F022FC9C
:101540000728C246C34614D1052027E0002000909A
:101550000098B04224BF0646CA46B8423CBF074680
:10156000CB46484602F00AFC814601AA062102F059
:1015700009FC0028ECD00528E8D0C1450DD103991D
:10158000002009B1A1F800A0049901B10E600CB1CE
:10159000A4F800B015B12F6000E0032005B0BDE84D
:1015A000F08F70B52B4E88B00546307808B908200A
:1015B0004DE00FF2C400D0E90023CDE90523707897
:1015C00068B90023002206F10C01B01DFFF796FF59
:1015D000002818BF052802D10120707001E0707842
:1015E00008B1B06808B1112430E0F188F0688D428C
:1015F0001CD1D8B100F037F807208DF80000002486
:10160000284602F0C9F8ADF80200ADF804500620F3
:101610008DF808008DF8094003949DF80A0000F049
:10162000FE008DF80A00FFF7AFFE0FE0401CF060EF
:1016300006F1080205A9284602F0ACFB040005D01B
:1016400000F00AF8112C1CBF042C0324204608B01B
:1016500070BD0000F03300200020B060F068401E34
:10166000F0607047044614216846FEF74DBF000045
:10167000010000000000000001000600FC33002013
:101680000A7B002A19BF49680022096801220271F9
:101690000160704710B5044620790028204602D02A
:1016A00000F005F801E000F00EF8206810BD10B55C
:1016B0004A6803688968D41AA14232BFCA18002157
:1016C0000171026010BD10B58A68096803685C1A70
:1016D000A24232BF991A01220271016010BD10B5F9
:1016E00082B0040018BF002925D00888102804D033
:1016F000112804D0502806D013BD888801E04FF689
:10170000FF70608213BD207DA8B1881D62890188A9
:10171000914204BF418902290DD1216859B10C3091
:1017200000F09FFA401E8041C00F8DF8000069460E
:1017300022682046904713BD30B5044691B0207D05
:101740000D4688B1032102A8FEF7DEFE11208DF8B8
:101750000800687B8DF809009DF80A0000F0F90088
:1017600040F002008DF80A001C2109A8FEF7CCFE0B
:101770009DF8240040F002008DF8240000F0EF00F6
:10178000217D40EA01108DF8240000200A900C9081
:101790000D90207D00B102A80E90032100200F9033
:1017A00001208DF8060042F6192000F055F8A87BBC
:1017B0008DF800001421E87B00F053F8287B8DF8A9
:1017C0000E0004A8FEF7A0FE01A80490CDF814D0E6
:1017D0000120ADF81800A31D0020ADF81A0004AADE
:1017E0000120ADF81C0009A90DF10E000890A08899
:1017F000A2DF00282ED1A86850B301208DF8060082
:10180000032142F6081000F027F8287C8DF800002C
:10181000002000F026F803A8A96800F029FA054680
:10182000142104A8FEF770FE01A80490CDF814D08E
:101830000020ADF81A00ADF8185003A80890ADF8D4
:101840001C5004F10E02E08804A9A3DF08B101E0F6
:10185000E081002011B030BDADF804006846FEF70D
:1018600053BE8DF801009DF8020000F0E20040F048
:1018700002008DF80200704710B582B003000C46DC
:1018800018BF002C01D10E2016BD206818601A1D4B
:101890004FF6FF705882694620791875FF2018743A
:1018A00001208DF8020041F60F00ADF80000012084
:1018B000A0DF18B921461846FFF73EFF16BD32B526
:1018C00086B003000FBF0E2000201A7C914233D057
:1018D00068460021002206C00120ADF80000ADF8E6
:1018E000021006A801906A46D988588AA4DF18BB5E
:1018F0009DF8180018744FF6FF71588A88421CBF73
:10190000187D002817D002A80021002200240025FD
:1019100036C0D888ADF80800CDF810D001208DF879
:101920000A0002A9BDF80200ADF80C00019805906C
:10193000588AA6DF00E0082007B030BD0870000A12
:1019400048700220704710B582B0044608881028FD
:1019500004D0112804D0502806D013BD888801E097
:101960004FF6FF70208413BD881DA2890188914223
:1019700004BF418902290DD1216859B10C3000F012
:1019800070F9401E8041C00F8DF800006946226842
:101990002046904713BD2DE9F0418046084608F1E6
:1019A000050115460A78002602B10426497F09B1CF
:1019B00046F00206FF2807DD691CFFF7BFFF471C42
:1019C00046F00106FFB201E068700227B8F84C004B
:1019D00008B146F01006002406E0808C7919FFF764
:1019E000ADFFC719FFB2641CB8F84C108C420CDA7A
:1019F000BA1C152A08EB4400EFD3091B4A0000F17A
:101A0000240108F1240003F019FCB8F84C00001B75
:101A1000A8F84C002E703846BDE8F08130B595B07E
:101A200004460D46032101A8FEF76EFD11208DF836
:101A300004001C21287B8DF805009DF8060000F0AD
:101A4000F90040F002008DF8060008A8FEF75CFDE2
:101A50009DF8200040F010008DF8200003210020A8
:101A600009900B900C9001A80D9000200E90012081
:101A70008DF80A0042F63720ADF808006846FEF7F8
:101A800043FD687B8DF800001421A87B8DF80100D0
:101A90009DF8020000F0E30040F003008DF8020022
:101AA00003A8FEF731FD02A80390CDF810D00FAACD
:101AB00000212046FFF76FFFADF8140004F1080382
:101AC0000020ADF8160003AA1420ADF8180008A9EC
:101AD0000FA80790E088A2DF15B030BD30B58FB0F9
:101AE00004460D461C2107A8FEF70EFD9DF81C00BC
:101AF00040F002008DF81C000321002008900A909D
:101B00000B900C900D9001208DF8060042F63820C5
:101B1000ADF804006846FEF7F7FCE87B8DF800009E
:101B20001421287C8DF801009DF8020000F0E200ED
:101B300040F002008DF8020002A8FEF7E5FC01A8C3
:101B40000290CDF80CD00120ADF8100004F1100384
:101B50000020ADF8120002AA0120ADF8140007A978
:101B6000A8680690E088A2DF0FB030BD38B50D46FA
:101B7000044628682060002128796071A21D4FF674
:101B8000FF70208404F122000170418501208DF84E
:101B90000200694641F60D00ADF800000120A0DF0B
:101BA00060B929462046FFF739FF38B9A86820B147
:101BB00029462046FFF792FF00B9002032BD70B5DC
:101BC00004468AB0208C4FF6FF72904222D005AABC
:101BD0002046FFF7E0FE024601A8ADF800200021F4
:101BE0000023002500266AC02089ADF80400ADF866
:101BF000081001208DF80600CDF80CD005A804903F
:101C000001A9208CA6DF30B9BDF80010914202D0A6
:101C10000C2000E008200AB070BD38B504460D461F
:101C2000B4F84C0014280BD1262204F1260104F14B
:101C3000240003F003FBB4F84C00401EA4F84C0051
:101C4000B4F84C00411C04EB4000A4F84C1085840F
:101C500031BD80F8221070470178407841EA0020B9
:101C6000704780B5FFF7F8FFFFE700F0010002BD05
:101C70000A780270497841700220704738B50446EE
:101C80000D46284603F016FB2080656031BDFEE757
:101C90000870000A487002207047F0B58FB0044603
:101CA0000D0016461F4604BF0020FFF7C7F916B9FE
:101CB0000020FFF7C3F91C2107A8FEF725FC9DF8BB
:101CC0001C00ADF8044040F002008DF81C00032118
:101CD000002008900A900B900C900D9001208DF838
:101CE00006006846FEF710FC38788DF800001421D5
:101CF00078788DF801009DF8020000F0E20040F0D5
:101D000002008DF8020002A8FEF7FEFB01A8029077
:101D10000020ADF81200CDF80CD0ADF81060ADF891
:101D20001460069502AA6748149B008807A9A2DFE1
:101D30000FB0F0BDF0B585B0044601208DF8060067
:101D400041F60A00ADF8040001A95E4D2A460120C3
:101D5000A0DF00283ED122884AB1281D00F0B4F847
:101D6000616842F62920FFF798FF002832D12289C6
:101D700052B105F10C0000F0A7F8E16842F624200A
:101D8000FFF78BFF002825D1228A52B105F11400FC
:101D900000F09AF8616942F62520FFF77EFF0028DF
:101DA00018D1228B52B105F11C0000F08DF8E169C9
:101DB00042F62720FFF771FF00280BD1228C52B189
:101DC00005F1240000F080F8616A42F62620FFF752
:101DD00064FF002873D1228D52B105F12C0000F070
:101DE00073F8E16A42F62820FFF757FF002866D112
:101DF000236B5BB3D3E900018DF8080002AAD3E995
:101E000000010004000E5070D3E90001000C907036
:101E1000D3E90001000E8DF80B00D3E90001117128
:101E200002A998688DF80D009868000A907198686A
:101E3000000CD07104F13C0305F13400009008223D
:101E400042F62320FFF729FF002838D1606B58B1F4
:101E500005F13C01009104F13C030279016842F66E
:101E60002A20FFF71AFF50BBA66B3EB330788DF8DF
:101E700008000DF109017088FFF70AFF471CFFB247
:101E800002A83918B088FFF703FFC719FFB202A8EC
:101E90003918F088FFF7FCFEC019C0B207281CBF34
:101EA0000020FFF7CBF805F1440000F00DF8072201
:101EB00002A942F65020FFF7F0FE00B9002005B05D
:101EC000F0BD00000C310020009004F13C0370478D
:101ED00004280BD2DFF8B4230FF2DC33126853F876
:101EE0002000D243C24002F0010000E00020087050
:101EF000002070472DE9F0418046002400200FF2B9
:101F0000B83252F82030434502D0401C0428F8D3A0
:101F100004282DD2DFF8786300EB40029719851969
:101F2000A1B102291BD01BD23C78787858B17069D6
:101F30000A21414306F10D0206F1640000F086FE1D
:101F400008B986F80D80B878287409E006F16400B5
:101F500000F0BBFEBC78287CA04209D100E07C7870
:101F600034B1316A080003D02046BDE8F04108478B
:101F7000BDE8F08100780221BCE700002DE9F047C0
:101F8000C34CC44EE16982460020CA436169BAF17C
:101F9000170F02F4E01701EB81034FF4C87E4FF4F2
:101FA0007A684FF4F0194FF4003512D8DFE80AF0E0
:101FB0000C1212272F3E515D636D636DC97D7D7DCF
:101FC0007D7DA7ACB4BEC9C902F4F0117160B060E8
:101FD0002073BBE07760B060326882F4F012920345
:101FE00007D57560BAF1020FB06019D14FF4E16EF8
:101FF00027E0B560BAF1020F706022D11FE000F057
:10200000ABF819D500F0A4F84FF4487E19E07760DA
:10201000B060306880F4F010800303D500F098F8C9
:10202000C6460EE0B560002070600AE000F094F84B
:1020300002D500F08DF802E0B560002070604FF02E
:10204000C80E6420BEFBF0F084F80CA000224143CF
:1020500025E000F081F802D500F07AF802E0B560E2
:1020600000207060062020730DE07760B060B560DE
:102070007060072163E03068C24302F4802272601E
:1020800000F48020B060002209E03068C14301F410
:102090008021716000F48020B0600022194604F1B4
:1020A0002400BDE8F04700F0D1BD04F1440000F089
:1020B0000CFEDAF1110E1AD0C8B94FF40021BEF1AE
:1020C000020FE1610CD3C821606911FB0EF164239A
:1020D000B1FBF3F14143002204F1440000F0B6FDEE
:1020E000E16901F4F011B160002171602EE0E16955
:1020F00001F4F01171600021B160E16126E0C6F8E1
:102100000490B06012211AE04FF4E0117160B060E9
:10211000B5607060132112E04FF4D0117160B060AF
:102120004FF48021B1607060142108E04FF4C011B9
:102130007160B0604FF4C021B160706015212173EF
:1021400004E0C6F80890706084F80CA0BDE8F08741
:1021500075600020B06070477760B060306880F4D0
:10216000F010800370474A48017EC90744BF007BD6
:10217000FFF704BF704747480168CA4302F40022D2
:10218000426001F4002181607047414A127E01469D
:102190000020D20744BF0846FFF7F0BE704770B575
:1021A0000D463B49044600204D618C610A62A1073F
:1021B0001BD5002601220121304600F030F8761CA4
:1021C000042E01D20028F5D028B96A0804210FF2A4
:1021D000F80003F0E4F808B903F013F928B92E4A1F
:1021E0000FF2D000002100F01EFDE10706D52B49BB
:1021F0004FF4F0120A6000234B600A6128B90021F5
:10220000274A0FF2A80000F00EFD38B9BDE8704073
:10221000244A0FF29C00012100F005BD70BD10B5ED
:102220000023042814D2012A04D101290CBF00F193
:102230000D020022164C00EB4000001931B10229BA
:1022400002D005D2027004E0427002E0827000E029
:102250000723184610BD70B500210FF25C02124B27
:1022600052F8214053F8245020FA01F6F6074CBFEB
:102270000326002625F4403545EA0645491C43F867
:1022800024500429ECD3002070BD0000100500503C
:10229000942E002004050050751F02000805005010
:1022A000672102007721020000070050B82E0020AD
:1022B000D82E0020F82E00200D0000000E00000097
:1022C0000F000000100000000D000300F51E0200CA
:1022D0000E000300F51E02000F000300F51E0200B1
:1022E00010000300F51E020080B5012200F055F831
:1022F000002818BF07280DD100F04AF8002818BFA1
:10230000072807D10A22002100F048F8002814BF4E
:102310000728002002BD80B50320FFF79CFF00289E
:1023200014BF0628002002BD10B5314C008861683A
:10233000102802D011281ED010BDC1B9012200F012
:102340002DF8002818BF07280CD100F021F800282C
:1023500018BF072806D1042200F01FF8002818BF74
:10236000072804D018B121680A0018BF88476068A0
:10237000401C606010BD481E606008D1FFF7B4FFCC
:1023800028B121680A001CBFBDE81040084710BDF5
:10239000072202210120FFF742BF02210020FFF7A0
:1023A0003EBF70B5124D82B00E4600242860BEB10B
:1023B0000DF101010020FFF78BFD78B9694601207E
:1023C000FFF786FD50B99DF8000008B1022003E038
:1023D0009DF8010000B10B20307001E0040004D131
:1023E000686810B9FFF780FF0446204676BD0000FC
:1023F0006034002070B5044686B02088654D1028F2
:1024000004D0112847D01A284AD064E0687D297D7D
:1024100021EA0002291D01A803F060F800260CE063
:10242000002000901D2201A800EB460005F11401D8
:102430008388281D03F01FF8761C01988642EFD38D
:10244000287DA688C043C0B202F0FDFF4FF6FF71A1
:10245000884216D005EB400001238680324605F104
:102460001501281D03F000F80123324605F114017F
:10247000281D02F0F9FFE07B02280CBF0123002396
:1024800005E006B0BDE870400420FEF7D7BDA28885
:1024900005F1160119E0A288002305F1150114E0E9
:1024A000207A00090228ACBF01230023A28805F18D
:1024B0001701281D02F0D8FF207A00090328ACBFBD
:1024C00001230023A28805F11801281D06B0BDE8EC
:1024D000704002F0C9BF06B070BD70B500F00DF8D5
:1024E000002540B1B17D2246301D02F0E5FF0028F5
:1024F00014BF02250125284670BD264E317D0446B5
:102500002246301D02F0D8BF224BD97D0246181D4D
:1025100002F0D2BF1F4B197EF8E71E490A7DFFE784
:10252000091D02F0DBBF1B490A68002022FA00F3F4
:10253000DB0704D4012383401A430A607047401C20
:10254000C0B21828F2DB18207047124B1A68CA4034
:10255000D20703D50246C818417ED8E7002070474D
:1025600010B50C4C2368CB40DB0709D51346024657
:10257000081900F11901201DBDE8104002F074BFD8
:1025800010BD04490A68C240D20746BF4018407EC9
:1025900000207047CC320020614940880A88904270
:1025A00023BF4988814201200020704710B55D4C4F
:1025B00082B0E08B4FF6FF7188421FD0217F227BD3
:1025C000491C2177C9B28A4207D3554975DFA8B1A2
:1025D000A1690A0012D0884713BD00212177217C10
:1025E00031B13B2176DF18B1A1690A0018BF8847D5
:1025F0006169080002D0002000F04EF813BD38B524
:102600000446484D284621461C22FDF74DFF002078
:1026100068772168424C0029204612D000F07CF8EF
:1026200020467ADF60B94FF6FF70E88300202877F4
:102630000021BDE838403C4A0FF2F40000F0F3BA44
:1026400032BD7BDF0028EED032BD10B582B03748F6
:10265000344CFFF7A1FFB0B9607F20B16169080079
:1026600017D0002013E0207F00280CBF6168A1680C
:10267000002204F1200000F0E9FA50B1A1690A003B
:1026800007D0884705E06169080002D0012000F00A
:1026900003F80020607713BD8DF8000068460847F6
:1026A00010B501461F4C0A882048102A06D0112A6E
:1026B0000ED0122A29D0502A10D010BD8A88E28369
:1026C000103100F029F800202077E08918BB1FE0C6
:1026D0004FF6FF70E083002020770BE0881DE28931
:1026E0000188914204BF4189022914D10C30FFF7BF
:1026F000B8FA68B904F1200000F0E7FA58B1A1690E
:102700000A0008D0BDE810400847083100F004F87E
:10271000BDE8104099E710BD0822FDF7B5BE0000E6
:1027200050340020A0310020AD2502005834002094
:10273000C0310020012100F01F029140DFF8A825E0
:1027400005E0012100F01F029140DFF8A0254009BB
:1027500042F820107047012100F01F029140DFF87D
:102760009025F4E74901002807D5DFF8882500F017
:102770000F00801800F8041C7047DFF87C25815496
:1027800070470000002842D0DFF87015DFF8702590
:10279000096800BF00BF00BF00BF00BF00BF00BF8F
:1027A00000BF91422FD000BF00BF00BF00BF00BFDD
:1027B00000BF00BF00BF00BF00BF00BF00BF00BF21
:1027C00000BF00BF00BF00BF00BF00BF00BF00BF11
:1027D00000BF00BF00BF00BF00BF00BF00BF00BF01
:1027E00000BF00BF00BF00BF00BF00BF00BF00BFF1
:1027F00000BF00BF00BF00BF00BF00BF00BF00BFE1
:1028000000BF00BF00BF401EC3D1BFF35F8F704742
:1028100010B5DFF8F014DFF8F0444FF40030086032
:102820004FF48031DFF8E40401640160012020608E
:1028300000F001F9012060600020DFF8D44420613D
:1028400000F0F9F80020A07210BD70B5DFF8C004E8
:102850000178C26819E01C46DB69B3B1AB42FAD11A
:102860009C4202BFF569C560002D07D1DFF8A46462
:1028700001253560002505610125C5721D68DB69EC
:10288000E36113B11C682C191C60437899421DD078
:102890004368182414FB0133491C8478C9B2A1424F
:1028A00008BF00211C78022C02D0032C05D0ECE7D5
:1028B000C6685D6834462346CFE7C368002B1FBF58
:1028C00000241C74DB69C360F7D1DEE7C068904266
:1028D00014BF0120002070BDF0B5DFF83414CA68C1
:1028E00000E0CB6068BB0B784C78A34257D04C68B3
:1028F000182515FB03445B1C8D78DBB2AB4208BF87
:1029000000230B7025786368012D04BF1D7C002D0A
:10291000E9D1A5685D60E5689D602569DD60646951
:102920009C61CC7A0CB100245C600C695D68DFF8B6
:10293000E8732E1B3602360ABE4205D29C68A419E3
:102940000AE00346D869F0E7641B24029D68240A64
:10295000AC4234BF2C1B00241C6000245C609C60D3
:1029600001241C740024DC61CC68002CB9D02568DB
:102970001E68B54203D3AD1B2560DC61B1E7254677
:102980002F68B74205D22C46ED69F61B002DF7D112
:1029900001E0BF1B2F601E60DD61E361A2E7C86834
:1029A000904214BF01200020F0BD2DE9F843DFF86C
:1029B0006043E068002839D0D0F80080DFF85C532D
:1029C0002E682769F01B0002000A00F10309A07AB3
:1029D00090B9DFF84C034FF480310164016011209D
:1029E000FFF7B9FE1120FFF7A5FECE4901200860D0
:1029F00000F021F80120A072C14538BFC14609EBA3
:102A000007000002000AE863801B2968891B09028D
:102A10000002090A000AC91C88420AD22868E86331
:102A200000F009F8BDE8F24311208AE6BDE8F14361
:102A3000EEE6BDE8F1832F20A4E62DE9F047B44E81
:102A4000737A3069317AD6F80C8000259942814634
:102A50000A460DD0521CD2B2022A08BF002206EB51
:102A6000820101274C6920180002000A306101E050
:102A7000002400273272FFF7E8FEF1688246EFB1CA
:102A8000002312E0241AC318002010600846D16900
:102A9000D76857B103EB090E4FEA0E2E4FEA1E2EF0
:102AA000C2F804E09760D561054629B10A4610686E
:102AB0008442E7D2001B10604FF0010AF160284603
:102AC000FFF70AFF00280EBFBAF1000F4046FFF7DC
:102AD0006CFF0020F072BDE8F0878D4948707047A8
:102AE00010B58B494A788C78531CDBB2A34208BFDF
:102AF00000230C78A34201D1002010BD0370486868
:102B0000182111FB020010BD70B582B004460026EA
:102B10000D468DF80060684602F002FD0DF10100DF
:102B2000FFF7DEFF08B9042605E0057044609DF854
:102B30000100FFF7D2FF9DF8000002F00CFD16B96E
:102B40001420FFF7FEFD304676BDF8B57648704C90
:102B50000021016441648164C16401604160E668F0
:102B60009EB36E4800682169401A070200253F0A9B
:102B70003068874216D33F1A45193046F669017C02
:102B800071B10021017442698169E369180005D0BF
:102B90001046984720B1FEF751FA01E008469047E9
:102BA000002EE5D1607A217A814201BF401C60721B
:102BB000C0B2022804BF00206072607A04EB80007B
:102BC00045611420BDE8F240BBE5F1BD35E72DE9D4
:102BD000F0410446174617F003000E46984600D110
:102BE0000FB907201DE0FFF713FE0020484D288095
:102BF000E8602881C5F81C80AE706F601420FFF774
:102C0000AAFD06211420FFF7ADFD1420FFF792FD69
:102C1000424E062174601120FFF7A4FD3068286140
:102C20000020BDE8F0813A4B5B6843B1130018BF48
:102C3000002801D1072070470068037C0BB10820F1
:102C40007047037441744261002070472DE9F041E0
:102C500006462F4882B04068002818BF002E0C4658
:102C6000904605D0052C38BF07202CD3706908B9D1
:102C7000082028E0707C01280CBF2546002500278D
:102C80008DF80070684602F04BFC0DF10100FFF773
:102C900027FF08B904270DE00121017046601F4994
:102CA00009688160C4600561C0F814809DF8010066
:102CB000FFF713FF9DF8000002F04DFC17B9142038
:102CC000FFF73FFD3846BDE8F68111494968002904
:102CD00018BF002801D0416909B9082070470021B8
:102CE0000174022110E7000000E100E000E200E0D2
:102CF00080E200E018ED00E000E400E04423002062
:102D00000024F40080E100E00410014008130140B9
:102D10005833002008100140FFFF7F0004150140D8
:102D2000041301400010014000110140012100F096
:102D30001F029140794A04E0012100F01F029140F6
:102D4000774A400942F820107047202804DA754974
:102D5000C14001F001007047402807DA0121203806
:102D600011FA00F018BF0120C0B27047012070476F
:102D700010B50446FFF7E9FF10B942F2010010BD9B
:102D8000200006D5684900F00F02511811F8041C04
:102D900001E0664AA15C490908290ED2002918BF42
:102DA00001290AD0042918BF052906D060498A687C
:102DB00032B9FFF7BBFF002010BD42F2020010BD88
:102DC000400951F82020012304F01F04A3401A43B6
:102DD00041F82020EFE700F03FBB7CB5554C207850
:102DE00088B3E068002500280CBF0126002600E01B
:102DF0009DB9607838BB684648DF052808BF0125C3
:102E00000BD010B1FEF71AF907E0009802F025FC8C
:102E1000216908001CBF0098884796B9607890B96E
:102E20006088ADF8040001A9A06861DF052808BF2B
:102E3000012606D010B1FEF701F902E0A068E168B2
:102E400088473542D4D073BD3A480078704770B592
:102E5000044611B111F0030001D0072070BD354DBB
:102E60002E48A9606A806B60006810F001061CBFE4
:102E70000020FFF761FF3049204610DF040005D035
:102E800016B10020FFF752FF204670BD01202870C8
:102E900002F0E8FBBDE87040162069E701000FBFB3
:102EA0000E202449C8600020704701000FBF0E208B
:102EB000204908610020704780B51E484068010025
:102EC00005D0804730B1BDE80240FEF7B7B8BDE895
:102ED000014082E701BD70B505460E4614461C212F
:102EE0002046FDF711FB0120208026720020A06102
:102EF0006572207D00F0FE00207528001CBF0120B7
:102F0000A072002070BD82B00C490091009901911F
:102F100001A960DF009902B07047000000E100E005
:102F200080E100E0FC06FFBC18ED00E000E400E0FA
:102F30004434002020340020D72D02002821002016
:102F40000870000A48700220704730B50D4683B003
:102F5000044628880930824201D20C203EBD6846D2
:102F60006DDFF0B92988082008551B212888401CEE
:102F70002880062280B201550DF1010100F082F98E
:102F80000019FDF781FA2888801D288080B29DF8FD
:102F900000104A0818BF012202552888401C2880CA
:102FA00000203EBD70B5054682B028780C46012849
:102FB00004BF6978002901D1072076BD11888E1CD5
:102FC000B3421FD3012804D168780818801C8342BB
:102FD00018D3581A831EADF80030694610880019BE
:102FE000801C7DDF58BB297802290FD1BDF8000075
:102FF0009BB2834208D20820ADF80030BDF8001023
:10300000FF290CD30C2076BD0920F7E70820012901
:10301000F2D169789BB28B42EED90B46ECE713886C
:10302000491C19551188491C118089B2085510880E
:10303000401C1080BDF8001008181080002076BDDC
:103040002DE9FC470A9E0B9C37884FF0000E054681
:1030500088469146F24607E030889DF8001050FA05
:1030600081F030800AF1010A288882452FDA6868E9
:1030700050F82A0001900022694601A865DF98BB3C
:103080009DF800004845EDD1BEF1000F14BF0020AF
:10309000022031889DF8002012FA81F252FA80F065
:1030A00084421DDBBEF1000F09D1481C30804FF077
:1030B000010E80B200F803803088401C30806946E1
:1030C0003088C21801A865DF0028C5D00CE0BEF129
:1030D000000F08D03088C01B401E80B2FF2801DDE1
:1030E0000C2001E0F8540020BDE8F6872DE9FC41F2
:1030F000089F099C019416460546984600970222AF
:10310000FFF79EFF38B901940097434610223146DD
:103110002846FFF795FFBDE8F681F8B51446054649
:1031200020880E46811D8B4201D20C20F2BD2988D9
:1031300006290EDB40F68147B9424FF6FF7301DBEB
:10314000994206D16A88062A03DBBA4203DB9A4217
:1031500005D00720F2BD994201D08A42F9D305215A
:10316000815512212088401C208080B28155208802
:10317000401C208080B281192888FFF7E1FE218859
:1031800051FA80F0208080B281196888FFF7D8FE5C
:10319000218851FA80F020800020F2BD70B50446ED
:1031A00016460D46A0883188801C10FA81F2921CC8
:1031B000934201D3FF2801D30C2070BD401C485519
:1031C000FF213088401C308080B241553088401C3F
:1031D000308080B241192088FFF7B2FE318851FA61
:1031E00080F03080A2885AB1A16809B9072070BD6B
:1031F00080B24019FDF748F93088A188081830805E
:10320000002070BD2DE9F04100F128060C46306821
:10321000154690B34FF0000809E080B20019FDF7A1
:1032200033F92888B9880818288008F101085FFA5E
:1032300088F83079804522D230680C2111FB0807CC
:10324000B888801CFF2801D30C2019E02988401C75
:103250000855162100F016F8015500F013F8011971
:103260003888FFF76DFE298851FA80F02880BA88E7
:10327000002ADAD0B9680029CFD1072000E0002069
:10328000BDE8F0812888401C288080B270472DE975
:10329000F043174683B00546B7F80090002005F1CB
:1032A0002C080E46388098F8011031B14A4639464C
:1032B0003046FFF74AFE002835D1A978C1B13888D9
:1032C000001D81452ED3684679DF00282BD139882F
:1032D00003208855192100F085F880B28119BDF8C6
:1032E0000000FFF72DFE398851FA80F03880002069
:1032F000E97879B13888C21C914549B212D30222CB
:10330000825501223888401C388080B2825500F0F6
:1033100069F800206968C1B191F900003988CA1CB8
:10332000914501D20C2052E002228A550A223988A6
:10333000491C398089B28A553988491C398089B23B
:1033400088553888401C38800020298949B100F010
:1033500044F80622022105F10800FFF7C7FE002805
:1033600035D1298A41B100F038F80722032105F14F
:103370001000FFF7BBFE50BB298B41B100F02DF8C8
:103380001522142105F11800FFF7B0FEF8B92C6AD8
:103390002CB100F01EF82046FFF7BFFEB8B96C6AEA
:1033A0002CB100F016F82046FFF7F8FE78B998F82F
:1033B000001029B100F00DF82846FFF723FF30B9BF
:1033C000297821B100F005F82846FFF7EBFDBDE8AC
:1033D000FE834B463A4631467047CDF8049000973D
:1033E000334670473888401C388080B28155388811
:1033F000401C3880704730B591B00C461F21ADF8A5
:103400000210ADF8001050B1C17849070DD50DF18B
:10341000020209A9FFF73BFFE0B909AD02E0002570
:10342000ADF802005CB1E07808B1072012E06A460E
:1034300001A92046FFF72BFF60B901AA02E0002294
:10344000ADF80000BDF80030BDF80210DBB2C9B223
:10345000284672DF11B030BDBFF34F8F0548064AD2
:10346000016801F4E06111430160BFF34F8F00BFB9
:10347000FDE700BF0CED00E00400FA0510B50446BE
:10348000FDF784FF2046BDE8104000F02ABF70B56C
:103490000024DFF88853DFF888630C2000FB045019
:1034A00031784088FFF751F808B9E0B270BD641C6C
:1034B000082CF2D3FF2070BD10B50446DFF860037E
:1034C00001782046FFF741F868B10020DFF84C137F
:1034D0000C2202FB00125288A24201D1C0B210BDE0
:1034E000401C0828F4D3FF2010BDF8B50D46FF2777
:1034F0000446002D1CBF4FF6FF76B4421ED0DFF805
:103500002003017801222046FFF72AF82046FFF722
:10351000D3FF0746FF2F02D1FFF7B9FF0746FF2F62
:103520000CD00C2010FB07F0DFF8F01242184652C6
:103530005480101D29460722FCF7A6FF3846F2BD2D
:1035400000210A5C0AB101207047491C1029F8D3F8
:103550000020704780B5002818BF002905D00278E8
:103560000B785208B2EB530F01D0002002BD0622A7
:10357000491C401C02F08EF8401E8041C00F02BD65
:1035800001460888102800D0704730B591B003A8D4
:10359000091D3422FCF788FF9DF8100040084FF603
:1035A000FF740328254620D001F025F99DF810006E
:1035B000400802D002280CD017D200F02EF8A0B19B
:1035C000019800F1110104A8FFF7C4FF0028F4D00E
:1035D00009E000F022F840B10198411C04A800F075
:1035E00046F90028F5D0BDF80850BDF80C0004A934
:1035F000FFF77BFFA5420ED0BDF80C00294600F076
:10360000F7F8BDF80C00ADF8020001208DF80000BD
:103610006846FFF733FF11B030BD6A4602A90720A4
:1036200001F0EEB870B504460D46601CFFF788FF48
:1036300070B11022691C601C02F02CF8461EB641C5
:1036400005F1110104F11100FFF784FF40EAD67083
:1036500070BD10B5044688B02078002804BF2079DA
:1036600007282AD1608805AA072100F03FFA20BB6D
:1036700001F0C1F803AA6946072001F0C1F8E0B1E2
:103680006088BDF800108842F4D004990698FFF7CE
:10369000C9FF0028EED0608800F07EF8ADF8060083
:1036A00000208DF804006088ADF80800BDF8000027
:1036B000ADF80A0001A8FFF7E1FE08B010BD10B593
:1036C000574C5649182020704FF6FF7200200C23EB
:1036D00003FB0013401C08285A80F8D3FEF723FF91
:1036E000207018280CBF0320002010BD80B5FFF704
:1036F000E3FEFF2803D000F076F8008802BD4FF605
:10370000FF7002BD10B50C46FFF7D6FE0146FF293B
:103710000AD0424A0C2313FB01212046091D07222F
:10372000FCF7B2FE002010BD052010BD38B50446E0
:103730000D4600F042F818B120882988884201D04F
:10374000002032BD0822A91CA01C01F0A3FF401ECE
:103750008041C00F32BD10B584B0044601F04BF873
:1037600001AA6946072001F04BF888B1029800F1E0
:1037700046012046FFF7DAFF38B9029800F12A0126
:103780002046FFF7D3FF0028EAD0BDF8000001E093
:103790004FF6FF7004B010BD10B500211F4A0C2376
:1037A0004B439C5AA04202D19818408810BD491C36
:1037B0000829F4D34FF6FF7010BD018811B90A181B
:1037C00092780AB101207047491C0829F7D30020DC
:1037D000704710B50C46FFF76FFEFF2802D000F0CF
:1037E00002F8048010BD0D490C2212FB0010704736
:1037F000EFE738B50446FFF7CFFF0546204600F057
:1038000054F904464FF6FF70854204D01CB90146B6
:103810002846FFF7DEFF204632BD0000F82F0020CB
:103820007F34002030B58DB00D46144600216B4624
:10383000421AD27BCA54491C1029F9D30D2104A87D
:10384000FCF762FE0020415DADEB0002401C032846
:10385000D177F8D3684643DF0020ADEB000191F843
:103860002F100155401C0328F7D30DB030BD3EB5D5
:1038700004460D4620784008022801D000203EBDB5
:103880000322611C02A8FCF7FFFD0322211D6846EC
:10389000FCF7FAFD01AA69462846FFF7C3FF032299
:1038A00001A902A801F0F6FE401E8041C00F3EBDF6
:1038B0004FF6FF710180FF2181700174417C01F09E
:1038C000F80141740021C16041608160704710B50A
:1038D0000968DFF89C2400E0491C082906D214235B
:1038E0004B439C5A8442F7D1981810BD002010BD5C
:1038F00038B504460D46002001E00098401C0090B9
:1039000069462046FFF7E3FF00281CBF8178A942E3
:10391000F3D132BD38B50446002507E0207C2918D4
:10392000C9B2DFF8500401F04CFF6D1CE06885421D
:10393000F4D32046BDE83240BAE770B5044600250E
:103940000FF2584656F82510204688476D1C052D65
:10395000F8D370BD7FB505460FF254400FC86E46D0
:10396000002486E80F006888DFF80C64ADF80200D8
:1039700028798DF8040029796888FFF7B9FF29783C
:10398000092948D8DFE801F0050531191933353721
:103990003D4568B1417CC9070AD5FFF7BBFF8DF8EB
:1039A00000402878012818BF00208DF808002CE07E
:1039B00001208DF80000A86821E080B18168AA6824
:1039C00091420CD1417CC90709D53168491C31604D
:1039D000417C01F0FE0141F0040141741BE0022032
:1039E0008DF80000E86803900FE003200BE004204E
:1039F00002E0052007E006208DF80000E86802904C
:103A000003E0012407208DF800006846FFF795FFCA
:103A100001E0E8680290306830B30025D4481421F2
:103A200001FB0506707C410702D4800719D5C4B19B
:103A3000B178308800F040F998B13188ADF80210C3
:103A40000428B1788DF8041003D108208DF8000007
:103A500003E009218DF8001002906846FFF76DFF22
:103A60007FBD6D1C082DD9D37FBD3EB50024C04D50
:103A7000142000FB0450FFF71BFF641C082CF7D335
:103A80005020029005F1A003082001904FF420720D
:103A90000120009005F1B40105F1A40001F02BFE16
:103AA00000B103203EBD00F046BF38B500250446F6
:103AB00000950AE08178204600F0B7F800281CBF86
:103AC000052803250098401C009069462046FFF712
:103AD000FEFE0028EED13DB9204600F030FF18B1BF
:103AE00007280CBF07250325284632BD002300F018
:103AF0004FBE817042605021594389B2C91C891060
:103B0000018070479BB2F4E78178012918BF06292C
:103B100006D0072902D0082904D07047142105E0F7
:103B2000012103E0416889880931890801807047D3
:103B30002DE9F84F07465FEA03080C46154608BF13
:103B40000E2070D0072C18BF082C05D125B1092DE7
:103B500002D200F0FFFE08B9072064E02146384693
:103B6000FFF7C6FE06004FF0000ADFF8089215D0F6
:103B7000F068A84229D2D34608E0307C0BEB000164
:103B8000C9B2484601F01DFE0BF1010BF0685FFA67
:103B90008BFB8345F1D33046FFF78AFEFF214FF6BA
:103BA000FF70FFF7A5FE06001ED03780B470307C92
:103BB000FF281DD12946484601F0BEFDFF2830747C
:103BC00014D13046FFF774FE0EE08542EFD22F4647
:103BD000F068FFB28742EAD2307C3918C9B2484651
:103BE00001F0EFFD7F1CF3E711201CE04FF0010A0C
:103BF000F5604846317C01F0CEFD020008BF03208D
:103C000011D0ABB221464046FFF773FFBAF1000F67
:103C100008D0082C06D1B8F80000D8F804108000AD
:103C2000801F88800020BDE8F28F38B5FFF760FE66
:103C30000024050001D1052032BD686820B100F0E4
:103C400022FE040018BF03242846FFF763FE204627
:103C500032BDF0B583B0072918BF08290C4601D042
:103C60000720FEBDFFF744FE0026050001D1052018
:103C7000FEBD6868F0B9297C3E4801F08CFD020069
:103C80000FF23C10D0E90067CDE900678DF80240E3
:103C90000ED0EB6821466846FFF734FF6846FFF711
:103CA00033FF291D684600F0D7FD0646092E01D1D5
:103CB0000320FEBD3046FEBD7CB50D46072D18BF66
:103CC000082D044601D0072076BD0FF2FC00D0E994
:103CD0000023CDE900238DF802502046FFF708FEAF
:103CE000060001D1052076BD707CC00701D50020FB
:103CF00076BD317C1F4801F04EFD020001D103204A
:103D000076BDF36829466846FFF7FCFE6846FFF774
:103D1000FBFE726806F108036946204600F0BAFD12
:103D20001549737C0A6803F00604062C08BF521E6E
:103D300020B903F0F90343F0010311E0541C1128EA
:103D400007D103F0FD0040F004007074224600200B
:103D50000BE0042806D103F0FB03224643F00203E4
:103D6000737402E0072818BF03200A6076BD0000C4
:103D7000602B0020042C00207434002000F0ECBDE7
:103D800000F0ECBD80B513889B0000936B4600F0FB
:103D9000FFFC02BD1346002200F07CBD8110020032
:103DA00053360200554002008F4902007D50020048
:103DB0000000000000000000000000000000000003
:103DC00000000000000000000000000000000000F3
:103DD000FDF700BA70B5044600200025042903D081
:103DE000112903D0F1B902E0012000E00125002AE9
:103DF000DFF8A06302460BD0B17B00F0B0F8717B16
:103E00002A4600F0ACF8B17A00F0A8F8002203E0EE
:103E1000B17A00F0A4F82A46717A2046BDE87040D5
:103E2000FEF79EBB70BD01B970473EB5112914D095
:103E30006A4600230024002538C2ADF80200019133
:103E40000D2908BF0B2003D004290CBF0A2009202C
:103E50008DF800006846FFF7BBFF37BD2DE9F8433A
:103E6000CC4F8046387A0D46284391461C4608BF01
:103E700005202FD0002D14BF00213946404601F007
:103E80003CF80646002231464046FFF7A3FF1CB12E
:103E900031464046FFF7C7FF397BD6B1042E11D01B
:103EA000082E18BF0D2E14D0112E04D043F202029A
:103EB00096420ED00CE02A4600F010F800F00CF804
:103EC000002606E02A4600F009F800F005F800E0B8
:103ED00003263046BDE8F283F97A4A464046FEF7AB
:103EE0003FBB3EB50446FEF7F8FA0128A94D18D1AC
:103EF0002046FFF7FBFB4FF6FF71884211D0E97BAC
:103F0000012200F02CF868460021002200230EC098
:103F10000C208DF80000ADF802406846FFF758FF0E
:103F200002E0E97B00F01AF8287A38B1E97B2046F4
:103F3000FEF70BFB10B92A69294601E00022002197
:103F4000204600F096FE0546012229462046FFF74E
:103F500041FF29462046FFF766FF37BD0022204675
:103F6000FEF7FEBA10B5044684B0207828B1401E92
:103F700007D0401E07281AD91FBD6088FFF7B1FF80
:103F80001FBD8448027A00215AB10078237900F0DD
:103F900001029A4221BF400800F00100627990427C
:103FA00000D20121608801230022FFF757FF20780B
:103FB0008DF800006088ADF80200D4E90101CDE978
:103FC00001016846FFF704FF1FBD2DE9F04186B0EF
:103FD0000446FEF7D6FAD8B16846FEF79EFA0025E9
:103FE0006C4F12E000F02EF870B1F97A3046FEF70F
:103FF000ACFA8046397B3046FEF7A7FA014601232A
:1040000042463046FFF72AFF6D1C00988542E9D3EF
:1040100006B0BDE8F08170B586B00446FEF7B1FA8F
:1040200070B16846FEF779FA002506E000F00AF85C
:1040300010B13046FFF755FF6D1C00988542F5D34F
:1040400006B070BD684600EB4500214686883046C4
:10405000FEF77BBA10B500784E4C062807D9C01F72
:104060000CD1A07BFFF7D7FFA07AFFF7AEFF607BF4
:10407000FFF7D1FF607ABDE81040A6E710BD10B58C
:1040800004462078182802D1FEF74DFA207010BDA2
:1040900010B5404C04F10900FFF7F1FF04F10A00EC
:1040A000FFF7EDFF04F10B00FFF7E9FF04F10C004F
:1040B000FFF7E5FF04F10D00FFF7E1FF04F10E004B
:1040C000FFF7DDFF04F10F00FFF7D9FFE07B1828B1
:1040D0000CBF0320002010BD80B500F025FF2D4847
:1040E000407ABDE8024070E7B0B301788A0701D496
:1040F0000A0631D4C1F30212052A2DDA01F0F202C8
:10410000322A29D042788378934225D3072A23DBA9
:10411000112B21DAC278C2F38003002B02BF007991
:10412000C0F38003002B17D1C2F3C003002B04BFE0
:10413000C0F3C003002B0FD1C90702F0030206D45D
:10414000002A04BF0321084206D101207047002A3B
:1041500004BF03210842F8D10020704738B504009D
:104160000C4D02D10020287232BDFFF7BDFF40B1D7
:10417000284621460522FCF787F9012028720020F5
:1041800032BD072032BD097881F001020149C97BA7
:10419000FEF7E6B9302300200A46002300215DE641
:1041A000FDF7B4B870B5044600254FF6FF708442A1
:1041B00084B024D0204600F0C9FF060008D00B28A8
:1041C0000AD0112806D043F20201884212D00BE037
:1041D000022002E001250DE0032000F04BF8ADF8CD
:1041E0000200ADF8044003E000F043F800F03BF8B3
:1041F00000F075F8DFF84803417800F030F87FBD33
:1042000070B584B0044600F062FF002506000AD0B5
:1042100004280ED00C280AD0112806D043F202013F
:10422000884217D010E0012004E0012512E00720A9
:1042300000E008208DF80000ADF804402046FFF7AC
:1042400055FAADF8020003E000F013F800F00BF8A7
:1042500000F045F8BA48017800F001F87FBD2A4621
:104260002046FEF77DB9ADF80200ADF80440029695
:10427000704709208DF800002046FFF737BA10B5C7
:10428000044684B06088ADF80200207818B1022896
:1042900014D00AD31FBD8DF8000000F020F860880C
:1042A000FFF77AFAFFF77EFF1FBD01208DF80000AF
:1042B000A088ADF8040000F012F81FBD207968B1A5
:1042C0006088FFF769FA4FF6FF71884206D09C4973
:1042D00089780122FEF744F900F03CF81FBD6846DA
:1042E0005EE710B50446207801280ED16088FFF7FC
:1042F00059FF608800F069FF38B191488178608883
:10430000BDE810400122FEF72BB910BD0178072946
:1043100004BF4088FFF774BF704710B5884CFEF7A4
:1043200002F92070FEF7FFF86070FEF7FCF8A0704D
:10433000FEF7F9F82178E07018291CBF6178182978
:1043400004D0A178182918BF182801D1032010BD66
:10435000002010BD2DE9F041794C88B0A078FEF71F
:1043600010F9002858D003A8FEF7D7F8002517E069
:10437000092102908DF80010ADF804603046FFF777
:10438000B5F9ADF80200FFF7AAFFA1783A4630462A
:10439000FEF7E6F8E17842463046FEF7E1F86D1C9C
:1043A0000398854238D200F0A3F8A17800F09DF878
:1043B0000028F4D0E17800F098F80028EFD13046DA
:1043C00000F011FF012701004FF0000818D0062867
:1043D00018BF08280DD011281CBF43F202029042DA
:1043E000D3D043F201429042C2D13046FFF7DAFE09
:1043F000CBE73046FFF77AF900F00AFF0027C4E761
:1044000005208DF80000B8463046FFF76FF9ADF88B
:104410000200ADF80460B6E708B0BDE8F08170B501
:10442000054688B02888464C50281FD0522802D014
:10443000542804D029E0A888FFF7B4FE25E0062020
:104440008DF80000A888FFF751F9ADF80200A888A0
:10445000ADF80400BDF8020000F0DAFEA178A888EB
:104460000022FEF77DF8FFF73AFF0EE0A81D8179E4
:10447000012904BF0179012907D1408842F60211C0
:10448000884204BFA888FFF7BBFE6078FEF779F882
:1044900088B103A8FEF741F8002509E000F028F8EC
:1044A000617800F022F810B13046FFF77BFE6D1CFA
:1044B00003988542F2D32078FEF763F888B103A809
:1044C000FEF72BF8002509E000F012F8217800F043
:1044D0000CF810B13046FFF793FE6D1C039885422F
:1044E000F2D3FFF737FF08B070BD3046FEF72DB8A6
:1044F00003A800EB45008688704730B585B000F012
:104500005AFE6846FEF709F8002412E0684600EB00
:10451000440085882846FFF7E9F84FF6FF71884286
:1045200005D10748817801222846FEF719F8641C56
:10453000A4B200988442E9D305B0BDE8304009E751
:1045400070340020FFF706BAB0F5404F05DB4FF698
:10455000FF71884201D00120704700207047B0F5FC
:10456000404F05DB4FF6FF71884201D001207047B4
:1045700000207047072818BF012807D0082818BF57
:10458000052803D0062818BF042801D10120704750
:104590000020704770B58AB004A80021002206C030
:1045A0004FF6FF75284603E0204601F069F92046E2
:1045B00001F0ADF90446AC4226D0A4F5804604AA29
:1045C00006A9B0B2FBF77DFD0A28EDD09F4D6878B3
:1045D000D0B901206870B0B2FBF721FD082802D1E4
:1045E0000120287010E078B1002169700390092142
:1045F0008DF80010ADF80240FF218DF804106846D8
:1046000000210291FFF79EFF0AB070BD7CB5044601
:104610000D4616462846FFF7ADFF684600210022EA
:1046200006C0A5F58041A4F580406B46324689B2AC
:1046300080B2FBF739FD00B1052076BD30B50546E7
:1046400085B06868814C401E8041C00F0390287877
:10465000401E04285ED8DFE800F003031F34570033
:10466000A889FFF771FF20B9E889FFF778FF0028D4
:1046700050D000F057F829786868012904D1002843
:1046800014BF0321002103E000280CBF01210421F5
:1046900003908DF8001011E0A889FFF755FF20B9AD
:1046A000E889FFF75CFF002834D000F03BF8686829
:1046B00000280CBF022005208DF80000A868029099
:1046C00025E0A889FFF740FF20B3E88910BBA8893F
:1046D00000F58040ADF80200E9898DF80410FF2153
:1046E0008DF80410696831B906218DF8001080B288
:1046F00001F0C6F802E007208DF8000000202070CD
:104700006070FFF747FF02E008208DF80000684660
:10471000FFF718FF207818B100202070FFF73AFF4C
:1047200005B030BDA88900F58040ADF80200E889E9
:104730008DF80400704710B588B04548FBF794FB2E
:1047400008B1032022E0FBF79CFB08B104201DE028
:1047500001F04EF868460021002206C00DE002A9D3
:1047600004A8FBF7D7FB0298808800F5804404A8D2
:10477000FBF7EEFBA0B201F071F86A4604A94CF217
:104780000700FBF798FC0028E9D0002008B010BD16
:10479000F0B50446FF2C85B00D4616461F4603DCD7
:1047A0002846FFF7E7FE08B9072022E002AA2946BB
:1047B0002046FFF72BFF20B9694602A8FBF7AAFBAA
:1047C00008B1052015E0B57000984088308057B1D9
:1047D00082003868824204D301997068FBF754FE66
:1047E00003E0042005E00198706002A8FBF7B0FB2D
:1047F000002005B0F0BD17480021002206C0704718
:1048000070B5054686B00C461646A5F58040114A9F
:1048100002A980B2FBF74FFC20B9694602A8FBF75A
:1048200079FB08B100200EE0B57000984088308018
:10483000019870600098808800F58040208002A870
:10484000FBF786FB012006B070BD00007C34002021
:104850003D4602006834002038B504460D46A07875
:10486000FFF788FE08B9072032BD21882846FBF7EC
:104870008DFB38B1072802D0092803D001E00420BD
:1048800032BD032032BD01B56846FBF794FB00B191
:10489000032002BD74B50446FF2C89B00D461E46A8
:1048A00003DCA878FFF766FE08B9072041E06868D6
:1048B000039005AA2888ADF81000A4F58040ADF853
:1048C0000000A878A0F58040ADF8020003A8019090
:1048D0000120ADF808002046A978FFF797FE0528CB
:1048E0000CD1099820B9694605A8FBF785FB0CE0B7
:1048F00009AA694605A8FBF781FB06E009A8FBF7B2
:104900005AFB694605A8FBF780FB30B107280DD09C
:10491000082818BF0E2807D00AE01EB1314605A8A6
:10492000FBF7D7FB002004E0112002E0042000E0A8
:1049300003200AB070BD4FF6FF7000F08FBF80B546
:10494000FF2801DD072002BD00F08AFFFFF722FEED
:10495000002002BD00F0A0BF00F0C5BF00F0D7BF2F
:1049600010B50446FFF7FEFA2046BDE81040FFF7F9
:10497000CDBC70B50FF2946384B070CB6A4670C240
:10498000ADF802008DF8041000F0FFF87FBD3EB5D1
:1049900004462078002804BF207907280ED10FF2A2
:1049A00078612CC968462CC06088FEF7F5FEADF82A
:1049B00002006088ADF8040000F0E7F837BD2DE98B
:1049C000F843DFF840668946317805461746984631
:1049D000FDF7C6FD089C87B1717842462846FDF771
:1049E000BFFDB17822462846FDF7BAFD5CB14946C5
:1049F0002846BDE8F443FEF7FBBE24B14846BDE8B7
:104A0000F243FEF7F6BEBDE8F183F0B5044687B089
:104A100004F10C00FEF79FFE054600262088ADF845
:104A200006004FF6FF77BD4203D12088FEF75EFEF9
:104A30000546BD4213D004AA07212846FFF756F8C1
:104A400068B9059800F13407387CC00706D404F132
:104A50000C0107F11200FEF769FE00B13E46208806
:104A600000230022314686DF38B1092102908DF8FB
:104A7000041001A8FFF774FF1DE086B906208DF829
:104A800004008DF80A2041F20600ADF8080001A8E4
:104A9000FFF766FF002000900023002207E0208837
:104AA0000021FFF766FF00200090002301222088EC
:104AB0002946FFF784FF07B0F0BDF0B5044685B086
:104AC0002088DFF84075FDF708FD06462088FEF7D0
:104AD0000DFE0546207A397804900022607A039012
:104AE0002088FDF73DFD002E38D06079C0F38000AE
:104AF00080B107212846FFF7DFF898B108218DF82B
:104B0000001021880290ADF80210ADF8045000F0BA
:104B10003CF807E0B9782088FDF717FD10B128466A
:104B2000FEF767FE03208DF800002088ADF8020034
:104B30006079800800F001008DF80400A0798008F9
:104B400000F001008DF805009DF810008DF80600BA
:104B50009DF80C008DF8070000F017F805B0F0BDC7
:104B6000FEB50FF2D844E0CC6B46E0C3ADF80410BC
:104B70008DF80620ADF802000022DFF888140978CD
:104B8000FDF7EEFC00F001F8F7BD6846E8E62DE918
:104B9000F041DFF8705486B08846297804461646FE
:104BA000FDF7D3FC002840D02046FEF79FFD0746C6
:104BB0004FF6FF70874238D069782046FDF7C5FC74
:104BC00070B30FF26C41B1E80C1003A8A0E80C1010
:104BD000A978ADF80E40ADF810808DF8126020462F
:104BE000FDF7B3FC18B13846FEF703FE0FE00721CE
:104BF0003846FFF71AF850B1052808D109208DF87A
:104C00000000ADF8024005200190FFF7BEFF2978B3
:104C100000222046FDF7A4FC03A8FFF7A1FE04E054
:104C2000324641462046FFF79BFF06B0BDE8F081C3
:104C300010B504462078182802D1FDF774FC2070C6
:104C400010BD10B5DFF8BC432046FFF7F1FF601C34
:104C5000FFF7EEFFA01CFFF7EBFF207818281FBF1F
:104C600060781828A078182801D1032010BD0020F2
:104C700010BD2DE9F04F8BB083460D469046FDF7F1
:104C80002CFC0646202102A84FF6FF740027FBF7F4
:104C90003BFCA146BA4616B943F202004FE00DB9FB
:104CA000852735E02878C00732D55846FEF71EFD27
:104CB0008146A14506D1FEF7F6FE8146A14534D0D6
:104CC0004FF0010A6B46012207214846FEF730FFEC
:104CD00004001CD101985021FBF712FC01980670CA
:104CE000CDF81480019800F13401029100F118010F
:104CF0000691411C0791C449099100F111015846E0
:104D0000FEF700FD07214846FEF7A3FF04463CB925
:104D1000022E02AB16D10022394658467FDF0446E8
:104D200024B9852F02D0012201E003240022CDF80E
:104D300000A0012349465846FFF741FE20460BB02C
:104D4000BDE8F08F2A46394658467FDF002D0446DD
:104D5000E6D0002CE4D12878C0074CBF0121022105
:104D60005846FFF706FEDCE72DE9F04F85B0804698
:104D70000D4691469B4601AA07215846FEF7B6FE0E
:104D800000260400B24609D1029890F8441000F1C0
:104D9000180611F0010A18BF00F134060E9FB9F190
:104DA000000F08BF002C12D1AEB1BAF1000F04D130
:104DB00006F11200FEF701FD68B1324606F112015C
:104DC000404685DF044600203870002324E0002C94
:104DD00018BF052C1DD12878C0070DD503AB0122C3
:104DE00007215846FEF7A4FE040004D107215846C7
:104DF000FEF72FFF04461CB9294640467EDF0446D5
:104E00003CB107215846FEF710FF00281CBF0528BB
:104E100003243B7803B10123621E924100200090DD
:104E2000D20F59464046FFF7CAFD204605B0BDE8FF
:104E3000F08F2DE9FF410D000446164601D17EDFBB
:104E400058E02878C0074CBF012002208DF80400EC
:104E50004FF6FF782046FEF749FC0746474509D044
:104E600001A800903B46324629462046FFF77CFFCA
:104E7000064638E02878C00727D5FEF714FE074617
:104E8000474502D1032600201DE002AB0122072185
:104E9000FEF74EFE060004D107213846FEF7D9FE84
:104EA00006461EB9294620467EDF064616B9012071
:104EB000012212E007213846FEF7B7FE00281CBF8A
:104EC000052803260120002207E0294620467EDF30
:104ED0000646721E9241D20F0020009001233946EF
:104EE0002046FFF76CFD26B99DF804102046FFF719
:104EF00040FD304604B0BDE8F08170B504460D4673
:104F00001646FDF7EAFA012807D0022809D13246F1
:104F100029462046BDE870408BE7294620467EDFC3
:104F200070BD43F2020070BD3EB5018811290AD060
:104F3000132912D0142919D0192930D01A293BD09D
:104F40001E2917D037BD001D01793D290CBF41F244
:104F50003D014FF4885100222AE0694600220023D7
:104F600000241CC18088ADF8020040E0001DFFF75E
:104F70004CFD37BD0FF2AC0238CA694638C130F873
:104F8000041FADF80210017901F001018DF8041041
:104F90000079400800F001008DF8050027E0001DB1
:104FA000017911B9FFF789FD37BD427902F003029B
:104FB0000088FFF7ECFD37BD041D2088FDF7A4FA3B
:104FC000C0B1104D20886978FDF7BFFA20B9297863
:104FD00020880022FDF7C4FA2088ADF802000520E1
:104FE0008DF800002088FDF795FA8DF80400FFF792
:104FF000CCFD37BD2088012241F20601FFF7B0FD4C
:1050000037BD00004A2300202032002002000000AB
:105010000000000000000000070000000000000089
:10502000000000000100000000000000000000007F
:105030000400000000000000000000000600000066
:1050400000000000000000001CB50FF2E0106E4CE4
:10505000D0E90023CDE90023208803E00846FEF7CD
:105060008DFE208000226946FEF794FE21884FF6CF
:10507000FF72914218BF1128F0D113BD1FB504462D
:105080002078012804BF2079012811D1608802AA64
:105090000121FEF72BFD58B902208DF80000608831
:1050A000ADF8020001208DF804006846FFF7E7F82C
:1050B000554800884FF6FF71884218BFFFF7C4FFBC
:1050C0001FBD51494FF6FF700880002070472DE941
:1050D000FC410446FEF70AFB80464FF6FF70804510
:1050E00008BF43F202002BD00126B6B26B4632460F
:1050F00008214046FEF71CFD00270546761C0DBB27
:10510000019803210160021D811D03232046AADFAF
:10511000050005D108214046FEF7CEFD05460EE00C
:105120000C2D08BF012702D0052D08BF002508213E
:105130004046FEF77AFD00B10325002FD5D1284661
:10514000BDE8F681072DFAD10C25F8E72DE9FC41E1
:105150008046FEF7CBFA00250026032401274FF6F0
:10516000FF71884210D06A460821FEF7BFFC58B98B
:10517000019886880468851D06E0002D08BF002E72
:105180000BD00025002603242346324629464046FC
:10519000A9DF042804D1112007B90B20BDE8F6814E
:1051A000082801D10020F7E70B28F5D10027A00738
:1051B000E3D50124E8E780B54FF6FF70FEF7DEFD8A
:1051C00011490880BDE801403EE700B583B0FEF715
:1051D0008DFA6A460121FEF789FC002812BF0020E3
:1051E000019800780EBD10B50346084C4FF6FF72CB
:1051F00002E02088401C208018462188A7DF43F267
:1052000003018842F5D010BD783400207A340020A4
:1052100000B50FF2200183B0D1E90023CDE90023CE
:1052200069460022FEF7B6FD07BD0000010001003F
:1052300004640200010001000864020081423ABFD8
:1052400053189842FBF720B98018990707D0521ECF
:1052500024BF13F8011D00F8011DF6D8704781071F
:105260001CD1103A07D330B433E93210103A20E998
:105270003210F9D230BC1032121F24BF53F8041D73
:1052800040F8041DF8D838BF121D521E24BF13F871
:10529000011D00F8011DF8D8704700BF083A07D378
:1052A00033E90210083A40F804CD40F8041DF7D263
:1052B0000832EAE700F10103810704D010F8011B6E
:1052C00089B18107FAD10268B2F10131914311F03D
:1052D000803F04BF50F8042FF6E710F8011B11B10E
:1052E00010F8011BFBE7C01A7047FEE7F8B500266F
:1052F00001244C4D07E051407A6881F00101130010
:1053000018BF9047761C2878F6B286421ED268688D
:10531000296900EBC60797F9000004FA00F008427B
:10532000F0D021EA00002861387800F024FC014622
:105330003878EA6804FA00F31A4001FA00F39A4256
:10534000E0D17A78012A18BF0022D4E7F1BDF8B580
:105350000546012000FA05F6324C04F11400FDF771
:10536000B4FCD8B92069F743304215D1284600F083
:1053700002FCE168002814BF46EA010007EA0100C8
:10538000E06000222069A1683043206104F114002C
:10539000BDE8F840FDF75ABC38402061F1BDF8B5D2
:1053A0001646052E04460D4601D20720F2BD00F038
:1053B00051FB10B900F027FB10BB1A480FF274071D
:1053C0008660002144600570C1600161164E284668
:1053D000451E78B139680091EDB204EBC500324644
:1053E00081788DF801106946007800F03AFB0028BA
:1053F000EDD0F2BD0D4A0FF238000021FDF713FC8D
:10540000F2BD38B50024074D06E0686810F8340096
:10541000012100F070FB641C28788442F5D3002041
:1054200032BD0000983200204F530200ED520200BE
:10543000AC32002003000000012202FA01F1084012
:1054400018BF0120704738B504460025294620467C
:10545000FFF7F2FF08B1284632BD6D1CADB2082D32
:10546000F4DB4FF6FF7032BD80B500931346012286
:1054700000F001F801BD00B9704770B5002918BFF0
:10548000002A18D0002430F814509D4210D1012079
:1054900000FA04F40498002301E02E705B1C934290
:1054A00009D25D1800282E7814BF2643A643F4E7DE
:1054B000641C082CE7D370BD10B50B4660B1002109
:1054C00030F81140944204D1BDE8104089B218462A
:1054D000B2E7491C0829F3D3002010BDF0B585B010
:1054E000044600200D461646009095B10027B9B23B
:1054F000F0B2FFF7A1FF48B1009A35F817006946EE
:1055000001EB420188800098401C00907F1C082F0E
:10551000EDD3204669461422FAF7C6FF05B0F0BD68
:1055200030B5EFF3108172B6144A936873B9012352
:10553000134C93602568134B1D401560236063680E
:1055400053604FF0FF326260002200E001220270DF
:1055500001B962B630BD09498A6862B158B9EFF342
:10556000108072B6084A0B6813604B6853600022C3
:105570008A6000B962B67047000000004434002021
:1055800080E100E0FC06FFBC00E100E04FF080415C
:1055900081B00022425040580090009801B07047FE
:1055A00000F18040006800B10120C0B2704710B522
:1055B000354C207808B1852010BDA0606060206166
:1055C000E060062100F088FBFDF73EFC10B92F4992
:1055D0000120086001202070002010BD00208DF8FF
:1055E00000006846FFF79CBF9DF80000FFF7B3BFBF
:1055F00038B50400244814BF00F1100500F1080577
:1056000004E008682860204649688847296800291E
:10561000F7D131BD38B54FF48070FFF7C1FF1A4C98
:105620001B4D48B14FF48070FFF7B0FF0120286098
:1056300060700020FFF7DCFF4FF48270FFF7B0FFCF
:1056400050B14FF48270FFF7A1FF022028600120C3
:10565000A070BDE83240CBE731BD002808BFFFF79E
:10566000C7BF704710B582B0FFF7B8FF064C20786F
:1056700008B9FFF79CFFE068401CE0600120A070C3
:10568000FFF7B2FF13BD00000C34002018050040E6
:10569000080300400300002013F0030F09D0521E3E
:1056A00022BF13F8010B11F801CBB0EB0C00F3D0C3
:1056B0007047121F22BF53F8040B51F804CB60450A
:1056C000F7D0121D0AD200BA9CFA8CFCB0EB0C0089
:1056D00038BF6FF0000088BF01207047521E22BF04
:1056E00013F8010B11F801CBB0EB0C00F6D0521CF3
:1056F00008BF1046704770B5002818BF002919D0A0
:10570000C3B1059C069D05FB04F6B24222BF049A74
:10571000E61DB2EBD60F0DD3002C18BF002D09D01B
:10572000016043608460C560A1B2406800F00FFB77
:10573000002070BD072070BD2DE9B84104001CBFDA
:1057400020680028884623D0606808B3FF2500271A
:105750000AE02946204600F034F86D1CEDB2BD4247
:10576000F7DBFF257F1CFFB2A068874210D260687C
:10577000394600F0F2FA40B1FF2D08BF3D46781BD4
:10578000401C4045EED1284603E0FF2DEAD0E5E776
:10579000FF20BDE8B28138B504001CBF2068002896
:1057A0000D460CD06068002818BFFF2D07D000F010
:1057B00016FB20B12068E16801FB050032BD002026
:1057C00032BD38B504001CBF206800280D460DD03E
:1057D0006068002818BFFF2D08D000F000FB28B13A
:1057E00060682946BDE8344000F0C2BA31BDFEE72A
:1057F00010B5484C40212046FAF786FE4FF48071E0
:10580000204600F0A4FA04F12000BDE810404FF457
:10581000807100F09CBA70B50446084621464FF6E8
:10582000FF75A9422E4609D14FF4807100F0BEFAEF
:105830000646B6F5807F07D12E4605E0FF2903DC3A
:1058400000F08BFA00B12646304670BDFF280A46AC
:1058500003DC0146104600F08BBA70472D49DAE7A9
:1058600010B504464FF6FF70844207D02A492046FF
:10587000FFF7D1FFA04201D1012010BD002010BDD3
:1058800038B5244D04462946FFF7E0FF05F1200115
:105890002046BDE83440D9E7FF2803DC01461D4817
:1058A00000F09DBA00207047FF2803DC01461A482B
:1058B00000F095BA0020704770B54FF6FF75A8420A
:1058C0000C4608BF002603D0461CB6B2FF2E08DCEB
:1058D0003146204600F083FA08B1304670BD761C90
:1058E000F3E7284670BD38B50A4C214601E0214651
:1058F0002846FFF7E1FF05464FF6FF70854204D0CA
:105900002846FFF7D1FF0028F1D1284632BD0249D1
:10591000D2E70000E031002000320020DFF89C13C5
:105920000858012818BF0020704700F1804000F59A
:10593000C04081B00021016000680090009801B073
:10594000704741EA420141EA8302009942EA01229A
:10595000019942EA0141DFF868230BE0DFF8602398
:1059600052F8203023F4403342F8203052F82030EF
:1059700043EA014142F820107047DFF8481340180D
:1059800090F9300008288041C00F7047DFF83413C9
:10599000401890F930000828ACBF01200020704763
:1059A000DFF82013401890F93000C043C00F704753
:1059B000F0B5002A4FF0FF3307BF08240C25002460
:1059C0000825DFF8006300E0641CAC420DD256F8F5
:1059D00024709F42F8D1831983F8304046F8241090
:1059E00012B9A11981F84800234658B2F0BDDFF87A
:1059F000D4124FF0FF3241F820200828A4BF4018ED
:105A000080F84820704738B5DFF8B84294F8540061
:105A100008B1082032BDFF22202104F13000FAF73E
:105A2000A7FD00252846FFF7E2FF6D1C0C2DF9DBD2
:105A30000621062000F050F94FF4BE70FFF775FF05
:105A4000DFF884124FF000400860012084F8540011
:105A5000002032BDDFF86C0290F8540000B1012044
:105A60007047F0B583B005460F461646FFF798FF1E
:105A7000002408B108243CE0FA7831462846FFF7B4
:105A800097FF064616F1010F32D0B87838B18C482E
:105A900050F8251021F0020140F8251007E0019090
:105AA000009000227B7800212846FFF74AFF3978D2
:105AB000F87898B18548864B50F826201A4040F86F
:105AC00026202B02090450F8262003F4F85301F491
:105AD00040311943114340F826100AE07948321842
:105AE000301892F8482042EA811180F8481000E00E
:105AF00004242046FEBDF8B50E460446714DFFF75E
:105B000045FF6719B8B197F93000401990F948007E
:105B10000006800F032805D16E480068E040C007EA
:105B200002D503E0012801D1022100E00321204633
:105B3000BDE8F44012E72046FFF71FFFD0B197F908
:105B40003040624850F8241041F0010140F8241020
:105B5000A00000F5807000B2FFF7E7FE002E1EBF28
:105B600097F9300055F82000002803D0012056494D
:105B7000A0400860F1BD57490968C14001F001002B
:105B800070472DE9F84F0025A8464FF4807601278D
:105B9000082430B2FFF7C2FE00281EBF4A48006842
:105BA000384203D030B2FFF7C0FE3D437F00361DC0
:105BB000641EEED14FF4BE70FFF7B0FE40B14FF45B
:105BC000BE70FFF7B2FE4348D0F8008045F00045B4
:105BD000280617D0012700263C4C2F420ED054F83F
:105BE000260054F82610374A52F82620130005D014
:105BF000090C01F00301C0F3042090477F00761CDC
:105C0000082EEAD3002D57D54FF0FF300025009025
:105C100001E080460095002400262A48301890F9BB
:105C20005000C1B210F1010F21F0C0093AD0009824
:105C300020FA09F0C00735D5880900F0030A214889
:105C400009EB000191F9301050F821B0BBF1000FC1
:105C500002D1BAF1030F25D1012000FA09F7BAF1F8
:105C6000030F174808BF3D4350F82900000C17EAFE
:105C7000080F00F0030002D0022813D101E003282E
:105C800010D1BAF1030F07D102280CBF0321022162
:105C90004846FFF763FE641CBBF1000F02D051467B
:105CA0004846D847761C042EB7D3E4B2002C1EBF5A
:105CB000084800684045ACD1BDE8F18F0060004065
:105CC00000070050B430002004630040106500401D
:105CD000FFE0FCFF1005005010B54901020006D599
:105CE0000A4B00F00F04E31803F8041C01E0084C11
:105CF00001554109012200F01F0002FA00F0054A97
:105D000042F82100044A42F8210010BD18ED00E0DD
:105D100000E400E080E200E000E100E070B504464D
:105D200082B020780D46002628420ED18DF8006002
:105D30006846FFF7F5FB2078284202D128432070FF
:105D400001269DF80000FFF706FC304676BD18B12D
:105D5000C91DC910FAF7D4BB70470A4638B10121F2
:105D600002F007039940C9B200EBE200D6E77047A2
:105D700070B504464D05012001F007012D0E00FA13
:105D800001F682B0F6B2002C1CBF285D30420CD068
:105D900000208DF800006846FFF7C2FB285DB04385
:105DA00028559DF80000FFF7D6FB73BD70B50400C1
:105DB0000D4612D0002600E0761CAE420DDA01201E
:105DC00006F0070100FA01F1C9B204EBE600FFF7A3
:105DD000A5FF0028F0D0B0B270BD284670BD38B124
:105DE000CA0801F00701105CC84000F001007047CC
:105DF0000120704708E010E0D0F80403084018BF05
:105E00000120C0B2704700BF81B000220A5008587C
:105E10000090009801B0704700BF085800B1012001
:105E2000C0B2704738B50D4604464FF48E71FFF787
:105E3000E1FFA868A98A085CA98A491CA982C4F85C
:105E40001C0531BD38B50D460446E87D00284FF4E9
:105E50008471204604D1FFF7CDFFD4F8180531BD79
:105E6000FFF7C8FF687ED4F81815EA688154687E89
:105E7000401C687631BD00B585B0034601208DF821
:105E800008108DF800000192684619685A680EE003
:105E900000B585B0024600208DF800008DF808108E
:105EA000906801900020907568461168526890478C
:105EB00005B000BD7FB50D4604464FF40071FFF7F5
:105EC0009BFF4FF4017620B34FF4927100F07BF802
:105ED000F8B14FF492712046FFF78CFFC4F80863C5
:105EE000A87E08B90120606002208DF80000D4F877
:105EF0008004C4F880040390E87D8DF80800E86809
:105F000001900020E875287629686A6868469047FD
:105F100029E004212046FFF76FFF20B34FF484717E
:105F200000F051F8F8B129462046FFF78BFFE87DD5
:105F3000697E884217D1287E40B1EA68697EE8759B
:105F40002869E86000202876687609E0A87E08B90C
:105F500001206060C4F808630020EA68E875697E83
:105F60002846FFF788FF4FF48E7100F02CF890B1AF
:105F7000A88AA97D884204D229462046FFF752FF0D
:105F800009E04FF48E712046FFF734FFA97D11B16F
:105F90002846FFF77DFF4FF4A27100F014F888B196
:105FA0004FF4A2712046FFF725FFA87E08B101201B
:105FB0002060E87D30B10020EA68E8752846697EF7
:105FC000FFF759FF7FBD2046FFF715BF7FB50C4691
:105FD0004FF492710546FFF71FFF05F23C56C0B122
:105FE0004FF4927100F05EF802208DF80000D5F8B1
:105FF0008004C5F88004039030688DF80800E068DC
:1060000001900020E075207621686268684690471C
:1060100022E04FF488712846FFF7FEFEE0B14FF40E
:10602000887100F03FF83168E07DC9B2814213D138
:10603000E268207E60B1D5F8000220F02000C5F8AB
:106040000002207EE0752069E0600020207600E0FC
:10605000E0752046FFF70FFF4FF4A2712846FFF7C7
:10606000DBFE68B14FF4A27100F01CF8E07D38B19E
:106070000020E07520463168E268C9B2FFF7FBFEF8
:106080004FF490712846FFF7C7FE50B14FF490715E
:1060900000F008F8A07D20B13169C9B22046FFF7B1
:1060A000F7FE7FBD2846FFF7AEBE044904480A7FCD
:1060B000002A18BFFFF78ABFFCE6000098330020D3
:1060C0000020004010B56D480178062904BF017911
:1060D00011F00F0F02BF017A01F0F001302902D157
:1060E000674A6849116002786749062A04BF027945
:1060F00012F00F0F0ED1826802F0F003302B1EBF9A
:10610000402B02F0F002502A04D1604A1268C2F318
:1061100042324A600278062A04BF027912F00F0F59
:1061200002BF027A02F0F002302A04D1584A136802
:1061300023F0807313600278062A04BF027912F0FC
:106140000F0F0ED1826802F0F003302B1EBF402BE0
:1061500002F0F002502A04D14E4A0023136053602B
:106160000B600278062A04BF027912F00F0F06D1E5
:10617000027A02F0F002302A04BF03228A66017814
:10618000062904BF017911F00F0F02BF017A01F057
:10619000F001302908D1404905220A6001228A67AE
:1061A00000228A603F224A600178062904BF0179F3
:1061B00011F00F0F02BF007A00F0F000502823D139
:1061C000364937480A6802604A6842608A688260D5
:1061D000CA68C2600A6902614A6942618A690262E8
:1061E000CA6942620A6A82624A6AC2628A6A02634F
:1061F000CA6A42630A6B02644A6B42648A6B8264B5
:10620000CA6BC264096C01652648C16F41F4700114
:10621000C167BFF34F8FBFF36F8F23490A68002A0E
:106220005CBF4A68002A21D5204A01231360204B15
:106230001C68002CFCD015240C601C68002CFCD0C1
:1062400015244C6019680029FCD0002111601968E0
:106250000029FCD0BFF34F8F0168164A01F4E061BA
:1062600011430160BFF34F8F00BFFDE701490248B2
:10627000086010BD442300200090D003E00F00F020
:1062800074C007400DF0ADBA38050040440200105C
:10629000FCED00E00C01004010560040040400102A
:1062A00020C500400CED00E00012001004E50140A4
:1062B00000E401400400FA0519E050F8041BCB0784
:1062C00044BFA9F101035918121F0023042A41F801
:1062D000043BF9D25FEA827C0B4604D54FF0000CF8
:1062E000A1F800C09B1CD10744BF0021197050F8D1
:1062F000042B002AE1D1704730B5016842688468F8
:10630000091801EB5203D20748BF4C440C309942A4
:1063100000D130BD11F9012B11F8015B002A04F8FE
:10632000015B02D5521CF9D1F1E7521EF4D5EEE71C
:1063300010B5074979441831064C7C44163404E002
:106340000A68081D511888470146A142F8D110BDBE
:106350002C000000580000004EF68851CEF20001DB
:10636000086840F470000860BFF34F8FBFF36F8F71
:106370004FF00070E1EE100A704700003DFFFFFF94
:1063800024090000602B0020000000006DFFFFFFCB
:10639000B400000062000000282100205DFFFFFF24
:1063A000D50000001600000050230020FEE700008A
:1063B0000120C046002801D0FFF7BAFF0020C046E8
:1063C000C046FAF7F8FA00F000F800F001B8FEE76E
:1063D0000746384600F002F8FBE7FEE720210903F4
:1063E00026311820ABBEF9E7014880470148004735
:1063F000C5600200F9630200C046C046FFF7ACFF6B
:10640000FFF7D6FF0100000000000000FEE7FEE7F6
:10641000FEE7FEE7FEE7FEE7FEE7FEE7FEE7FEE754
:10642000FEE7FEE7FEE7FEE7FEE7FEE7FEE7FEE744
:10643000FEE7FEE7FEE7FEE7FEE7FEE7FEE7FEE734
:10644000FEE7FEE7FC00075023002060230020E069
:10645000000001810081008100AE000A0D180100DA
:106460000F1801000A1801F600F918FB000490D07B
:1064700003FFFFFD18F8000763FD010003FF0000A4
:04000005000263F999
:00000001FF
