:020000040000FA
:1000000060210020150400001D0400001F040000F2
:10001000210400002304000025040000000000006B
:1000200000000000000000000000000027040000A5
:1000300029040000000000002B0400002D04000033
:10004000C10400002F0400002F0400002F04000052
:100050002F0400002F0400002F0400002F040000D4
:100060002F0400002F0400002F0400002F040000C4
:100070002F0400002F0400002F0400002F040000B4
:100080002F040000190500002F0400002F040000B9
:100090003D0500002F0400002F0400002F04000085
:1000A0002F0400002F0400002F0400002F04000084
:1000B0002F0400002F0400000000000000000000DA
:1000C0002F0400002F0400002F0400002F04000064
:1000D0002F0400002F0400002F0400000000000087
:1000E0000000000000000000000000000000000010
:1000F0000000000000000000000000000000000000
:1001000000000000000000000000000000000000EF
:1001100000000000000000000000000000000000DF
:10040000DFF80CD000F018F800480047890C000015
:10041000602100200648804706480047FEE7FEE7C7
:10042000FEE7FEE7FEE7FEE7FEE7FEE7FEE7FEE7A4
:100430004105000001040000064C074D06E0E0689D
:1004400040F0010394E8070098471034AC42F6D31B
:10045000FFF7DAFF8C120000AC12000000F01F0260
:10046000012191404009800000F1E020C0F8801295
:10047000704700F01F02012191404009800000F107
:10048000E020C0F80011704700F01F0201219140E8
:100490004009800000F1E020C0F8001270474907D1
:1004A000090E002806DA00F00F0000F1E02080F8C5
:1004B000141D704700F1E02080F800147047000020
:1004C0002DE9F0414FF48077384600F015FC012407
:1004D000104EA50748B1384600F015FC0120C5F8BC
:1004E00008037470002000F02FFA4FF4827738462A
:1004F00000F002FC00280BD0384600F004FC02207B
:10050000C5F80803B470BDE8F041012000F01CBA42
:10051000BDE8F0814C01002007480021C0F84011DF
:10052000C0F84411C0F84811C0F84C11C0F80011CF
:10053000C0F8041100F04ABE0010014000F0E2BD16
:1005400070B58D480023021D0178101D0124062975
:1005500007D115782D0704D10578C5F30315032DB0
:1005600002D0062904D00FE0854E844D75670EE059
:1005700015782D0708D10578C5F30315032D06D08E
:10058000042D04D0052D02D0062909D010E04FF02B
:100590008055D5F844527B4EC5F34235356002E0B4
:1005A00015782D0704D10578C5F30315032D02D066
:1005B000062906D011E0744D2E6826F080762E6054
:1005C0000EE015782D0708D10578C5F30315032D26
:1005D00006D0042D04D0052D02D006290AD011E042
:1005E0004FF08045C5F80C31C5F81031654D2D1F11
:1005F0002B6002E015782D0704D10578C5F30315AB
:10060000032D02D0062905D00CE05E4A0321643296
:1006100011600AE015782D0704D10578C5F303159C
:10062000032D02D006290DD06AE0584A0521116039
:10063000564978310C60554908310B603F21121D35
:10064000116002E0117809075AD10078C0F3031055
:10065000052855D14E4800684E4908604C48001D99
:100660000068091D08604A4808300068091D0860D4
:1006700047480C300068091D086045481030006884
:10068000091D0860424814300068091D0860404890
:10069000183000683F49203108603D481C30006830
:1006A000091D08603A4820300068091D0860384874
:1006B00024300068091D0860354828300068091D8D
:1006C000086033482C300068091D0860304830301D
:1006D00000683049403108602D4834300068091DF9
:1006E00008602B4838300068091D086028483C30F5
:1006F0000068091D0860264840300068091D086030
:1007000021487438016841F470010160BFF34F8FD4
:10071000BFF36F8F4FF01021D1F80002002803DBE8
:10072000D1F80402002822DA1B4A14601B4804682E
:10073000002CFCD01524C1F800420568002DFCD027
:10074000C1F8044201680029FCD013600168002947
:10075000FCD0BFF34F8F0C48F0380168104A01F409
:10076000E06111430160BFF34F8F00BFFDE70E4909
:100770000C48086070BD0000E00F00F00DF0ADBA4D
:1007800000C007403C050040FCED00E01056004072
:100790000404001020C5004004E5014000E40140CD
:1007A0000400FA050090D0032800002002E008C8E9
:1007B000121F08C1002AFAD170477047002001E0DB
:1007C00001C1121F002AFBD170470000BFF34F8FF9
:1007D00005480168054A01F4E06111430160BFF377
:1007E0004F8F00BFFDE700000CED00E00400FA05AC
:1007F0000EB500210091CDE901106A4644F20100D6
:10080000FFF7E4FF0EBD0000074B5B6823B12AB180
:1008100020B10068037C1BB1082070470720704797
:100820004174426100207047140000202DE9F04718
:10083000074698461446894690074FF0000526D192
:100840002CB300F041FC134E06F11000C6F80C80EA
:100850000570457080F80290446075603570757061
:100860001420FFF7FBFD06211420FFF718FE1420CB
:10087000FFF7FFFD0848076006211120FFF70FFE74
:100880000548001F0068B0600020BDE8F087072021
:10089000FBE7000004000020081501402DE9F843A3
:1008A000DFF87090D9F804305BB350B3052902D259
:1008B0000720BDE8F88343691BB3437C012B22D09A
:1008C00000270446002588461646284600F026F8EC
:1008D000684600F0BDFCC0B1012101700E494460C2
:1008E0000968C0E90218C0E904769DF8000089F89B
:1008F0000100002000F014F81420FFF7C5FD284681
:10090000D7E70820D5E70F46DBE70425002000F0F5
:1009100007F8F4E7140000200415014000F002B8C5
:1009200000F008B872B602480168491C01607047BF
:100930002400002003490868401E086000D162B608
:10094000704700002400002070B5084C050009D055
:1009500010342168002907D00868206049682846BB
:100960008847F6E70834F4E770BD00004C0100202A
:100970002DE9F05F26484168F1B3DFF898B00E68C2
:100980008146DBF8004087688078E11B21F07F45D5
:10099000ED1CB0B9DFF880804FF48030C8F8440314
:1009A000C8F804031120FFF759FD1120FFF761FD7E
:1009B0004FF0010AC8F800A02F2000F0F3F989F8E1
:1009C00002A0B54200D23546124BE8193C3320F064
:1009D0007F401860DBF800105A46091B21F07F4168
:1009E000001B20F07F40C91C81420FD9106818609D
:1009F0002F2000F0D7F900E004E0BDE8F05F1120FF
:100A0000FFF742BDBDE8F05F00F05EBBBDE8F09FC0
:100A10000400002004150140001001400E4910B5EB
:100A20000A784C780023A24212D0521CD2B20A702B
:100A3000022A00D10B70084A0B78183252F8232092
:100A400002608868104420F07F408860012010BD5B
:100A50000360002010BD00000400002002680A604E
:100A6000016070470278C1680AB1044A01E0034A94
:100A7000121F116000214170704700000C050050EA
:100A80000278C1680AB1044A01E0034A121D1160EC
:100A90000121417070470000080500502DE9F04326
:100AA000264CA4F110092278D9F8048099F8035053
:100AB000404694F801C0D9F8086031E002EB4203E7
:100AC0006168521C01EBC301A378D2B2934200D1FA
:100AD00000220B78022B02D0032B21D11DE003460C
:100AE0004F68194603E0B94203D00B46C969B9B152
:100AF000F9E7A9B18B4205D1C06918B9104E01259B
:100B0000B56000260F68C969D96149B10B683B44DB
:100B10000B6005E00174C06900E000210028F9D1F4
:100B20009445CBD1C9E9010689F80350404502D06C
:100B30000120BDE8F0830020FBE700001400002046
:100B4000001001402DE9F0412A4F0446002607F12C
:100B50001005D7F804803EE002D02046E4691DE08D
:100B60002878696800EB4002401CC0B201EBC2016A
:100B70002870AA78904200D12E700A784868012A1D
:100B80002BD1027C4ABB8A684260CA6882600A69CB
:100B9000C26049698161F97801B146604368BA6809
:100BA000DFF854C0991A21F07F41614502D2826872
:100BB000114406E0D11A826821F07F418A4202D9AD
:100BC000511A016000E006604660012186600174F0
:100BD000C66100F0DDFA002CBED128786978884221
:100BE000BED17968414502D00120BDE8F0810020E6
:100BF000FBE7000004000020FFFF7F0082788A42AC
:100C000001D207207047C1700020704770B5826123
:100C1000044608784E6820704868A0604868E06024
:100C20004878A070886800250C4A2946E061FFF7E3
:100C3000EBFD002811D103204EB1F10704D0A9002B
:100C400001F1A041C1F8000776086D1CF4E72046C9
:100C5000FFF708FF01202071002070BD3D1000004B
:100C600070B50446022020710D462046E160FFF772
:100C7000F9FEA0682843A06000202075204600F0FF
:100C8000DDF9002070BD000000F0D2F808B1FFF7D8
:100C9000AFFD002000F0E4F80023154A04211846B7
:100CA000FFF7C4FD08B1FFF7A3FD00F055F9104CA4
:100CB000104DA034A078E178401AC1B20C48A030A1
:100CC000FFF79CFF08B1FFF793FD284600F024F8DA
:100CD000A078E178401AC1B20548A030FFF78EFF36
:100CE00008B1FFF785FD284600F016F8E2E700009E
:100CF0008C00002020A1070000F18040006800283F
:100D000000D00120704708B500F18040002101604B
:100D10000068009008BD000000283ED01F49204A0E
:100D2000096800BF00BF00BF00BF00BF00BF00BF19
:100D300000BF91422FD000BF00BF00BF00BF00BF67
:100D400000BF00BF00BF00BF00BF00BF00BF00BFAB
:100D500000BF00BF00BF00BF00BF00BF00BF00BF9B
:100D600000BF00BF00BF00BF00BF00BF00BF00BF8B
:100D700000BF00BF00BF00BF00BF00BF00BF00BF7B
:100D800000BF00BF00BF00BF00BF00BF00BF00BF6B
:100D900000BF00BF00BF401EC3D170472800002025
:100DA0000024F40000283ED01F49204A096800BFF3
:100DB00000BF00BF00BF00BF00BF00BF00BF914227
:100DC0002FD000BF00BF00BF00BF00BF00BF00BFEB
:100DD00000BF00BF00BF00BF00BF00BF00BF00BF1B
:100DE00000BF00BF00BF00BF00BF00BF00BF00BF0B
:100DF00000BF00BF00BF00BF00BF00BF00BF00BFFB
:100E000000BF00BF00BF00BF00BF00BF00BF00BFEA
:100E100000BF00BF00BF00BF00BF00BF00BF00BFDA
:100E200000BF401EC3D17047280000200024F400FA
:100E300010B5094C207808B1852010BD0020A060B5
:100E400060602061E060062100F03AF8034901206B
:100E500008602070002010BD4C01002018050040E3
:100E600070B5154D0446A87838B114B161680120F9
:100E700088470020FFF752FD15E00020FFF74EFDE8
:100E800024B10D4821461030FFF7E8FDE86850B95D
:100E90004FF48270FFF737FF02204107C1F80403C7
:100EA000064901200860E868401CE860BDE8704021
:100EB0000020FFF735BD00004C0100200800004075
:100EC0004907090E002806DA00F00F0202F1E022BD
:100ED00082F8141D03E000F1E02282F8001400F013
:100EE0001F02012191404009800000F1E020C0F87C
:100EF0008012C0F80011704770B581680025154C4C
:100F0000B1F5003F16D0B1F5802F22D16188491C80
:100F100089B26180B1F5C87F1BD98178C278891AFE
:100F2000C9B2FFF76BFE6580002812D0BDE87040A3
:100F3000FFF75EBC2188491C89B22180B1F5FA7F98
:100F400007D98178C278891AC9B2FFF757FE258080
:100F5000EAE770BD000000203EB500248DF8004097
:100F6000DC208DF801004FF40030019030480290F1
:100F7000304A69463048FFF749FE08B1FFF738FCB0
:100F800014212D48FFF73AFE08B1FFF731FC8DF828
:100F90000040C8208DF801004FF4802001902448C3
:100FA000244A001D0290244869462030FFF72EFE97
:100FB00008B1FFF71DFC204896212030FFF71EFEE8
:100FC00008B1FFF715FC8DF8004064208DF8010092
:100FD0004FF4002001901648164A08300290164837
:100FE00069464030FFF712FE08B1FFF701FC1248D6
:100FF00014214030FFF702FE08B1FFF7F9FB0E485D
:101000008168FFF72DFE08B1FFF7F2FB0A48203098
:101010008168FFF725FE08B1FFF7EAFB064840307C
:101020008168FFF71DFE002801D0FFF7E1FB3EBD00
:1010300080120000F90E0000EC0000202DE9F041C4
:10104000012604460671007D052760B12046FFF7A2
:1010500009FD00202075A078E178411A11FB00F00D
:1010600007EB20201BE0A16909B120468847E578FD
:10107000A078A84203D12046FFF702FD0DE02046EC
:101080004DB1FFF7FDFCA07810FB05F007EB102039
:101090002061267504E0FFF7E5FCA078401D206183
:1010A000207901280DD102202071E06921692246B2
:1010B0000068FFF7F3FB002803D0BDE8F041FFF71D
:1010C00097BBBDE8F081000070B5012670044FF0B9
:1010D000E0210025C1F88001084C4010C4F8480305
:1010E000C4F8080366602F20FFF75CFEA660044C7E
:1010F0002F20A560FFF756FEA57070BD00100140BF
:10110000040000202DE9F84F204C00256846D4E962
:1011100001B6FFF783FC8046FFF7C0FC0746A946EF
:10112000B8F1000F25D00023009ACC46606819E082
:1011300007680146974202D9BA1A026014E0C1F862
:1011400000C0D1F80C80D21BC8693B448A46B8F174
:10115000000F07D0F71827F07F47C1E90178CAF8D8
:101160001C500D460028E3D160602846FFF7EAFCDA
:1011700004E02846FFF7E6FC00B917B15846FFF730
:10118000F7FB84F80390BDE8F88F0000040000200E
:101190000D4B10B5596831B102680C68A24204D8F1
:1011A000A21A0A60C161586010BD0B4603E00B46ED
:1011B000C969121B21B10C689442F8D3A41A0C60BF
:1011C0000260C161D86110BD040000202DE9F0412A
:1011D0001D4D6C68002C35D01C4800270068A9689C
:1011E000B846401A20F07F462068B04215D8224603
:1011F000361A0744E469107C68B182F81080EB6805
:1012000033B1D2E90501984728B1FFF7F1FA02E0BE
:10121000D2E905108847002CE6D129786878814208
:1012200006D1401CC0B26870022801D185F8018047
:1012300005486978183040F82170BDE8F041142065
:10124000FFF722B9BDE8F081040000200415014039
:101250000A4A10B553789478591CC9B28C4200D10F
:10126000002114788C4201D1002010BD017050681B
:1012700003EB430100EBC10010BD0000140000208F
:101280002C0000204C0000206C000020AC1200005C
:10129000000000202C000000AC070000D812000065
:1012A0002C00002034210000BC07000000000000DA
:1012B000000000000000000000000000000000002E
:1012C000000000000000000000000000000000001E
:0812D000000000000090D003B3
:0400000500000401F2
:00000001FF
