:020000040000FA
:100000009826002029040000310400003304000079
:10001000350400003704000039040000000000002F
:100020000000000000000000000000003B04000091
:100030003D040000000000003F04000041040000F7
:100040004304000043040000890900000107000088
:1000500011070000430400004D05000043040000A8
:100060004304000043040000430400004304000074
:100070004304000043040000430400004304000064
:1000800043040000DD0600004304000043040000B8
:10009000170700004304000043040000430400006D
:1000A0004304000043040000430400004304000034
:1000B00043040000430400000000000000000000B2
:1000C0004304000043040000430400004304000014
:1000D000430400004304000043040000000000004B
:1000E0000000000000000000000000000000000010
:1000F0000000000000000000000000000000000000
:1001000000000000000000000000000000000000EF
:1001100000000000000000000000000000000000DF
:10040000DFF80CD000F070F80048004759160000E3
:100410009826002003464FF0000153E8000F43E800
:1004200000128A42F9D170470648804706480047C3
:10043000FEE7FEE7FEE7FEE7FEE7FEE7FEE7FEE794
:10044000FEE7FEE71D0700000104000000487047BA
:10045000B438000040EA01039B0703D009E008C953
:10046000121F08C0042AFAD203E011F8013B00F879
:10047000013B521EF9D27047421C10F8011B0029A3
:10048000FBD1801A70472DE9F05F054600209246A7
:100490009B4688460646814640241BE02846414646
:1004A0004746224600F041F853465A46C01A914149
:1004B00010D311461846224600F028F82D1A67EB93
:1004C00001084F4622460120002100F01FF817EBDB
:1004D00000094E41201EA4F10104DFDC48463146EC
:1004E0002A464346BDE8F09F064C074D06E0E0680B
:1004F00040F0010394E8070098471034AC42F6D36B
:10050000FFF782FF083A0000283A0000202A04DBA7
:10051000203A00FA02F1002070479140C2F1200316
:1005200020FA03F3194390407047202A04DB203A55
:1005300021FA02F00021704721FA02F3D040C2F103
:100540002002914008431946704700002DE9FC5FE6
:100550000025DFF83891A8464FF4807601242F4615
:10056000304602F08FF838B1D9F80403204203D0A6
:10057000304602F07DF82543361D64007F1CB6B27C
:10058000082FEDD34FF4BE74204602F07BF838B14B
:10059000204602F06DF83E4845F00045D0F8008056
:1005A0003C4E15F0FF0F15D0012700242F420DD02F
:1005B00009EB8401D1F81005D1F81015C0F304201F
:1005C00056F82420C1F3014102B190477F00641C1A
:1005D000082CEBD3002D56DA00200190401E4CE091
:1005E000701910F8501F90F9000021F0C004401C51
:1005F00038D0012000FA04FA1AEA090F32D04FEA83
:10060000911B204600F064FD56F82000009010B9C0
:10061000BBF1030F26D15146BBF1030F02D1019864
:1006200008430190A00000F1A040D0F800071AEAAA
:10063000080FC0F3014002D0022802D012E00328C4
:1006400010D1BBF1030F07D102281AD00221204696
:1006500001F0F8FF7F1CFFB2009818B1009A5946CC
:10066000204690476D1C042DBAD3002F0BD00848AC
:100670000068404507D080460198002781463D46E6
:10068000AEE70321E3E7BDE8FC9F00000060004007
:1006900010050050D000002000F01F020121914001
:1006A0004009800000F1E020C0F88012704700F09F
:1006B0001F02012191404009800000F1E020C0F8B4
:1006C0000011704700F01F02012191404009800095
:1006D00000F1E020C0F80012704700000748002138
:1006E000C0F84011C0F84411C0F84811C0F84C11CE
:1006F000C0F80011C0F8041102F034BC0010014031
:100700000149024800F094BE28010020003000405A
:10071000002001F035BB02F0C1BB000070B58D4870
:100720000023021D0178101D0124062907D1157828
:100730002D0704D10578C5F30315032D02D0062932
:1007400004D00FE0854E844D75670EE015782D07B7
:1007500008D10578C5F30315032D06D0042D04D068
:10076000052D02D0062909D010E04FF08055D5F8AC
:1007700044527B4EC5F34235356002E015782D07B3
:1007800004D10578C5F30315032D02D0062906D040
:1007900011E0744D2E6826F080762E600EE01578FC
:1007A0002D0708D10578C5F30315032D06D0042DB8
:1007B00004D0052D02D006290AD011E04FF0804563
:1007C000C5F80C31C5F81031654D2D1F2B6002E0C6
:1007D00015782D0704D10578C5F30315032D02D034
:1007E000062905D00CE05E4A0321643211600AE05C
:1007F00015782D0704D10578C5F30315032D02D014
:1008000006290DD06AE0584A052111605649783111
:100810000C60554908310B603F21121D116002E048
:10082000117809075AD10078C0F30310052855D173
:100830004E4800684E4908604C48001D0068091D7C
:1008400008604A4808300068091D086047480C30B5
:100850000068091D0860454810300068091D0860DF
:10086000424814300068091D08604048183000688C
:100870003F49203108603D481C300068091D086070
:100880003A4820300068091D086038482430006864
:10089000091D0860354828300068091D0860334884
:1008A0002C300068091D086030483030006830493D
:1008B000403108602D4834300068091D08602B481D
:1008C00038300068091D086028483C300068091D60
:1008D0000860264840300068091D086021487438C7
:1008E000016841F470010160BFF34F8FBFF36F8F58
:1008F0004FF01021D1F80002002803DBD1F80402E8
:10090000002822DA1B4A14601B480468002CFCD023
:100910001524C1F800420568002DFCD0C1F804423E
:1009200001680029FCD0136001680029FCD0BFF3E6
:100930004F8F0C48F0380168104A01F4E061114310
:100940000160BFF34F8F00BFFDE70E490C48086000
:1009500070BD0000E00F00F00DF0ADBA00C0074020
:100960003C050040FCED00E010560040040400107F
:1009700020C5004004E5014000E401400400FA0500
:100980000090D003400000200448017F0448002963
:10099000024901D002F027BE02F096BD5C010020A2
:1009A000002000400FB4084B10B504A902AA039818
:1009B00000F01CF8044602A9002000F048FA204686
:1009C00010BC5DF814FB00004F0E000002E008C8E8
:1009D000121F08C1002AFAD170477047002001E0B9
:1009E00001C1121F002AFBD1704700002DE9FF4F03
:1009F0008DB00F460546002606E025280BD0DDE920
:100A00000F1290476D1C761C28780028F5D111B084
:100A10003046BDE8F08F0024A246A1460122EC49F1
:100A200000E0044315F8013F203B02FA03F00842BE
:100A3000F7D128782A2810D06FF02F022878A0F15B
:100A40003001092914D80AEB8A0102EB410144F074
:100A5000020400EB010A6D1CF0E701CF5FEA000A17
:100A600003D544F40054CAF1000A44F002046D1C9A
:100A700028782E2817D115F8010F44F004042A28ED
:100A80000ED06FF02F022878A0F1300109290AD882
:100A900009EB890102EB410100EB01096D1CF2E752
:100AA00057F8049B6D1C28786C280FD006DC4C2866
:100AB00017D068280DD06A2814D104E0742810D00B
:100AC0007A280FD10DE044F400140AE044F48014B5
:100AD00001E044F440146978814202D104F58014A5
:100AE0006D1C6D1C2A786E2A1FD00CDC632A31D055
:100AF00004DC002A8BD0582A11D1A3E0642A68D0E4
:100B0000692A0CD165E0732A2ED004DC6F2A73D0D9
:100B1000702A04D19BE0752A6FD0782A6ED01046D7
:100B2000DDE90F129047761C50E1C4F30250022811
:100B300006D0032809D0042801CF09D0066045E17A
:100B400001CFF117C0E9006140E101CF06803DE12E
:100B500006703BE117F8040B8DF8000000208DF8BB
:100B60000100EB46012003E057F804BB4FF0FF30D3
:100B700061074FF0000102D40DE008F10101884641
:100B800049450FDA8045F8DB1BF808100029F4D13D
:100B900008E008F1010188468142FADB1BF80810E1
:100BA0000029F6D1DDE90F23AAEB08008146214692
:100BB00000F036F9304400EB080604E0DDE90F12DE
:100BC0001BF8010B9047B8F10108F7D221464846BF
:100BD000F7E00A21C4F302534FF0000B0891022BF7
:100BE00004D001CFC117032B09D00AE0FF1D27F065
:100BF0000707F7E8020108E032E01FE020E000B25A
:100C0000C117042B01D140B2C117031E71F10003BB
:100C100007DA4FF0000CD0EB0C006CEB01012D2338
:100C200002E0230504D52B238DF82430012303E0B3
:100C3000E30701D02023F7E7984658E00A2110E0A7
:100C400010210EE010204FF0000B08900CE0102156
:100C50004FF0000B44F004044FF00809089103E042
:100C600008214FF0000B0891C4F30253022B04D06B
:100C700001CF0021032B06D006E0FF1D27F0070758
:100C8000F7E8020103E080B2042B00D1C0B24FF0BC
:100C9000000823072BD5702A07D0DDF820C08CF080
:100CA000100C5CEA0B0C05D00EE040238DF82430CC
:100CB000012308E050EA010306D030238DF82430E8
:100CC0008DF8252002239846DDF820C08CF0080C12
:100CD0005CEA0B0C0BD150EA010301D1630706D586
:100CE00030238DF824304FF00108A9F10109582A6A
:100CF00004D038A20B9208AA0A920BE03AA2F9E7B4
:100D00005B46089AFFF7BFFB0B9B9B5C0A9A521E3F
:100D10000A92137050EA0102F2D10A98ADEB00007A
:100D200000F1200B600702D524F4803401E04FF07D
:100D30000109D94502DDA9EB0B0000E0002000EB22
:100D40000B0141440890AAEB010AE00306D4DDE957
:100D50000F232146504600F063F806444FF0000987
:100D600008E009A911F80900DDE90F12904709F11F
:100D70000109761CC145F4DBE0030CD5DDE90F2346
:100D80002146504600F04CF8064404E0DDE90F121D
:100D900030209047761C0899481E08900029F5DC01
:100DA00008E00A980A990078491C0A91DDE90F12B7
:100DB0009047761CBBF10001ABF1010BF1DC214641
:100DC0005046DDE90F2300F019F806446D1C1BE6C0
:100DD0000928010030313233343536373839616211
:100DE00063646566000000003031323334353637D5
:100DF0003839414243444546000000002DE9F041A6
:100E0000044600251E461746880404D405E03946EA
:100E10002020B0476D1C641EF9D52846BDE8F0813E
:100E20002DE9F041044600251E469046C80301D531
:100E3000302700E02027880404D505E041463846E5
:100E4000B0476D1C641EF9D52846BDE8F0810A68DC
:100E5000531C0B60107070470BA1012001F070FE55
:100E600001F07CFD01F07EFD0028FBD1BFF34F8F28
:100E70000B4801680B4A01F4E06111430160BFF3C4
:100E80004F8F00BFFDE700004150505F4552524F69
:100E9000523A4552524F523A466174616C0D0A0003
:100EA0000CED00E00400FA050EB500210091CDE93B
:100EB00001106A4644F20100FFF7CEFF0EBD0000AC
:100EC00010B501F031FF012803D004A1282000F063
:100ED000B1F8BDE8104000F04FB800002E2E5C2E97
:100EE0002E5C2E2E5C2E2E5C2E2E5C2E2E5C636FC6
:100EF0006D706F6E656E74735C6C6962726172693D
:100F000065735C7574696C5C6170705F7574696C35
:100F10005F706C6174666F726D2E630010B501F0C6
:100F200003FF012803D004A1362000F083F8BDE8B8
:100F3000104000F029B800002E2E5C2E2E5C2E2EC4
:100F40005C2E2E5C2E2E5C2E2E5C636F6D706F6E91
:100F5000656E74735C6C69627261726965735C75ED
:100F600074696C5C6170705F7574696C5F706C61E2
:100F700074666F726D2E630072B602480168491C78
:100F8000016070472C00002003490868401E08607B
:100F900000D162B6704700002C0000202DE9F0411E
:100FA00005460878214F012606FA00F00C46386005
:100FB000086801F03DFB0021606801F030FB2879F2
:100FC0001B4901EB4010A169007F00282868C0F888
:100FD000241519D0607D217D2A680843C2F86C056C
:100FE00018E00021A06801F01AFB207B86403E60DB
:100FF000E06801F01DFBD4E902122868C0F808255A
:10100000C0F81015BDE8F081607D227D296810438D
:10101000C1F86C05D4E900122868C0F80C15C0F8B6
:101020001425207D0128DCD0ECE7000008050050E5
:101030005C0100201CB56A46ADF80000019100215A
:1010400044F20200FFF708FF1CBD002901DA00206E
:101050007047026811440160012070472DE9F0419A
:10106000461C01250020FFF72BFF1149741CD1E914
:1010700000208F68101A3B1A5B1C9C420FD963B189
:101080000C480D4B3A4000681B6801EB820263F389
:101090009F20D0600868401C0860002501E090197E
:1010A00008600020FFF73AFF2846BDE8F081000005
:1010B0007C0200200C3800003C000020034803C8DC
:1010C000814201D101207047002070477C0200203E
:1010D0000249084490F9300070470000D000002019
:1010E0002DE9F05F26484168F1B3DFF898B00E684B
:1010F0008146DBF8004087688078E11B21F07F455E
:10110000ED1CB0B9DFF880804FF48030C8F844039C
:10111000C8F804031120FFF7BFFA1120FFF7C7FA40
:101120004FF0010AC8F800A02F2000F0B9FB89F8A1
:1011300002A0B54200D23546124BE8193C3320F0EC
:101140007F401860DBF800105A46091B21F07F41F0
:10115000001B20F07F40C91C81420FD91068186025
:101160002F2000F09DFB00E004E0BDE8F05F1120BF
:10117000FFF7A8BABDE8F05F01F0E4BDBDE8F09F5D
:101180000C00002004150140001001402DE9F04141
:101190000025441C0E462846FFF792FE154A936828
:1011A000106800EA0301591A491C8C4208D8411CF6
:1011B000194020441060002002EB810530600AE0F5
:1011C00057681F40A74207D90319481E1844491EF3
:1011D0001060084D31600C35D2E90001401A916869
:1011E000081A401C00D100250020FFF797FE284672
:1011F000BDE8F0817C02002070B5002486B0012695
:101200008DF8144001AD012305AA50211248009623
:1012100000F046FC28B910232A4650210E4800F061
:101220002DFC28B10D49022001F08AFC06B070BDEA
:1012300022460BA1132001F0A9FC102301AA0AA148
:10124000132001F027FC1034802CD9D301F08AFB45
:101250000028FBD1EAE70000F4360000C0170000C8
:10126000252E32783A2000000000000070B5A2B0B0
:10127000002516A1132001F063FC00BF01F072FBF2
:101280000028FBD18021684601F0B0FD6E46701940
:1012900008220146002403E0521E04F1010403D099
:1012A00010F8013B002BF7D154B12246284600F03C
:1012B0005FF840B10D49022001F042FC22B070BD40
:1012C0000BA11320F8E72544E1E70000576169749A
:1012D000696E6720666F7220737472696E6720741E
:1012E0006F2077726974653A0D0A0000C01700001C
:1012F0004F4B0D0A000000000148007870470000C5
:101300000000002010B5034800F06AFC024A0021EA
:10131000117010BDD83600000000002010B586B056
:1013200018220F496846FFF795F880210D4A0020E2
:10133000491EC9B21154401C8028F9D30A49002023
:101340000A4A486006486946001F00F06BFC04002A
:1013500003D10348001F00F0FBFB06B0204610BD80
:10136000DC3600004400002000000020ED330000C7
:101370001FB51446082A02D9092004B010BD02196D
:10138000C308521EB3EBD20F01D01020F5E78DF841
:10139000040022460DF10500FFF75CF80020641CF4
:1013A0000090E3B201AA5021014800F079FBE4E784
:1013B000F43600000E4910B50A784C780023A2429A
:1013C00012D0521CD2B20A70022A00D10B70084A05
:1013D0000B78183252F8232002608868104420F0FD
:1013E0007F408860012010BD0360002010BD000018
:1013F0000C00002010B50C4A0CA1132001F0C6FB14
:10140000094A0AA15432132001F0C0FB064A07A181
:101410008332132001F0BAFB034ABDE81040AA3220
:1014200002A1132001F0B2BBFC36000025730000BE
:101430007FB5054608680C4620B92E4940F2A73012
:10144000FFF7F8FD94F8211094F82000CDE9000191
:1014500004F12602D11E2846E36901F0A8FE002807
:1014600023D194F8230008BB207B022801D0032855
:101470001CD12269E169914218D16269E261E37B82
:1014800084F82030217E0328C1F3401184F8211014
:1014900006D004B029462046BDE8704001F023BEC6
:1014A00000912946204601F007FF7FBD04F10C00A2
:1014B00001AB07C883E8070094F82300002168B156
:1014C000D5F8C404C5F8C404820701D5012002E0A0
:1014D000400705D502208DF8000001E08DF80010CE
:1014E00084F82410207E4007DFD4D4E90021684628
:1014F00090477FBD743900002DE9F043264CA4F1DC
:1015000010092278D9F8048099F80350404694F8DD
:1015100001C0D9F8086031E002EB42036168521C57
:1015200001EBC301A378D2B2934200D100220B7821
:10153000022B02D0032B21D11DE003464F68194630
:1015400003E0B94203D00B46C969B9B1F9E7A9B1C3
:101550008B4205D1C06918B9104E0125B56000262F
:101560000F68C969D96149B10B683B440B6005E05C
:101570000174C06900E000210028F9D19445CBD165
:10158000C9E9010689F80350404502D00120BDE8B1
:10159000F0830020FBE700001C0000200010014049
:1015A0002DE9F0412A4F0446002607F11005D7F82F
:1015B00004803EE002D02046E4691DE02878696896
:1015C00000EB4002401CC0B201EBC2012870AA78B7
:1015D000904200D12E700A784868012A2BD1027CF3
:1015E0004ABB8A684260CA6882600A69C260496907
:1015F0008161F97801B146604368BA68DFF854C088
:10160000991A21F07F41614502D28268114406E0B7
:10161000D11A826821F07F418A4202D9511A0160B1
:1016200000E006604660012186600174C66101F039
:101630007BFC002CBED1287869788842BED17968BD
:10164000414502D00120BDE8F0810020FBE7000009
:101650000C000020FFFF7F001FB5002001220321A6
:1016600002FA00F313F4F01F04D0830003F1A04347
:10167000C3F80017401C2028F2D33C494FF4F01067
:101680000860091D0020086001F0B8FA08B1FFF7F2
:101690000BFCFFF743FE08B1FFF706FC344B0FCB02
:1016A0008DE80F00324800231A466946D83800F00A
:1016B0008DF9C0B1FFF7F8FB2E49132001F040FA75
:1016C000FFF798FE01F04EF90028FBD101F08CFAEB
:1016D0000246702826D00BDC0A2A17D00D2A15D016
:1016E000632A09D124E02248D83800F051F9E3E711
:1016F000772A1AD0782A30D01FA1132001F046FA99
:1017000022A1132001F01CFAFFF774FEFFF7F4FD8D
:1017100018B12A49132001F013FA01F023F9002827
:10172000FBD1D3E7FFF768FDF0E7FFF79FFDEDE79B
:10173000FF208DF800000024012269462046FFF7B3
:1017400017FE10B11EA1022004E0641C802CF3D30C
:1017500024A1132001F0F4F9D8E7FFF7D3FD0246E6
:1017600024A1022001F012FAD0E700000805005081
:10177000CC3700000C390000596F752073656C651B
:10178000637465642025630D0A000000556E6B6E5E
:101790006F776E20636F6D6D616E642C207472794B
:1017A000206F6E65206F662074686520666F6C6CB4
:1017B0006F77696E673A0D0A00000000B8380000C4
:1017C0004150503A5741524E494E473A436F6D6D22
:1017D000756E69636174696F6E206572726F720DE8
:1017E0000A0000004D656D6F727920657261736546
:1017F000640D0A004150503A5741524E494E473A03
:101800004572726F7220776F72643A2025780D0AE4
:101810000000000000283ED01F49204A096800BF90
:1018200000BF00BF00BF00BF00BF00BF00BF9142AC
:101830002FD000BF00BF00BF00BF00BF00BF00BF70
:1018400000BF00BF00BF00BF00BF00BF00BF00BFA0
:1018500000BF00BF00BF00BF00BF00BF00BF00BF90
:1018600000BF00BF00BF00BF00BF00BF00BF00BF80
:1018700000BF00BF00BF00BF00BF00BF00BF00BF70
:1018800000BF00BF00BF00BF00BF00BF00BF00BF60
:1018900000BF401EC3D17047400000200024F40068
:1018A00000283ED01F49204A096800BF00BF00BF82
:1018B00000BF00BF00BF00BF00BF91422FD000BFDC
:1018C00000BF00BF00BF00BF00BF00BF00BF00BF20
:1018D00000BF00BF00BF00BF00BF00BF00BF00BF10
:1018E00000BF00BF00BF00BF00BF00BF00BF00BF00
:1018F00000BF00BF00BF00BF00BF00BF00BF00BFF0
:1019000000BF00BF00BF00BF00BF00BF00BF00BFDF
:1019100000BF00BF00BF00BF00BF00BF00BF401E30
:10192000C3D17047400000200024F400054A00EBBA
:10193000400002EB80004268002A01D008461047B0
:1019400070470000500100204907090E002806DA00
:1019500000F00F0202F1E02282F8141D03E000F112
:10196000E02282F8001400F01F020121914040099A
:10197000800000F1E020C0F88012C0F8001170472C
:101980000121B1EB507F01D1012070470020704749
:1019900070B5054600790B4900EB800001EBC004EF
:1019A00094F82200012804D007494FF49170FFF702
:1019B00041FB28680521C0F80015022084F82200A8
:1019C00070BD000028010020743900002DE9F041AD
:1019D000984617460C00064603D12649B120FFF76A
:1019E00029FBD4E90001884203D12249B220FFF744
:1019F00021FB3079204900EB800001EBC00595F810
:101A0000220010B10820BDE8F081C5E9007800206F
:101A1000A86085F8250085F82400A07B85F82700BC
:101A2000607B10B1204601F0F7FA216840F20C60AB
:101A3000890001F1A041C1F800076168890001F146
:101A4000A041C1F80007D4E900123068C0F80815B9
:101A5000C0F80C25A168C0F82415286828B13068A2
:101A6000217B000B40B2FFF76FFF012085F82200B9
:101A70000020C8E774390000280100203EB5074D5A
:101A80002C68AD6800948DF80110019202958DF8D4
:101A900002300022694600F015F83EBDDC37000038
:101AA0003EB500250095069C8DF8011002958DF835
:101AB000023001920CB1202200E00022694600F0C1
:101AC00001F83EBD2DE9F04106460D460079134967
:101AD00000EB800001EBC0041746206888B9287825
:101AE000022806D10E4940F2FD20FFF7A3FA206834
:101AF00038B92878032804D1094940F2FE20FFF7BD
:101B000099FAB80702D00620BDE8F0813B462A4684
:101B100020463168BDE8F04101F021BC28010020D9
:101B200074390000A1F580718A08012191400142B9
:101B300001D001207047002070471CB50023062209
:101B4000CDE900230B460122002100F03DFD1CBD24
:101B500070B500781E4951F8205000EB40011D4837
:101B600000EB810410F82100012804D01A494FF439
:101B70002370FFF75FFA4FF48271284601F089F86D
:101B80004FF49271284601F084F84FF4A67128466C
:101B900001F07FF84FF4A871284601F07AF84FF46D
:101BA000B271284601F075F84FF4B471284601F07F
:101BB00070F8606810B10948C5F804030920C5F839
:101BC00000050020A06002212170607070BD00003F
:101BD000E837000050010020B83900000202180662
:101BE00010B50178064A01EB410002EB800408467B
:101BF00000F07AF804F10800BDE81040FEF70ABCD6
:101C00005001002070B542580C461AB1012501F070
:101C100040F800E00025A4F58074A00805FA00F063
:101C200070BD00002DE9F04792460C00054604D136
:101C3000294940F22720FFF7FDF92169A068884271
:101C400004D125494FF40A70FFF7F4F92F7823489F
:101C5000DFF88C9007EB470850F8275019F8280058
:101C6000002610B10820BDE8F087284600F0AAF948
:101C7000217BA068FFF761FF217D2069FFF75DFFF1
:101C8000D4E9000150EA010224D000B1012609B1D3
:101C900046F00206280B40B2617DFFF755FEA168B1
:101CA0002069C5F80815C5F80C052078C5F8880521
:101CB0002079C5F88C05C5F894650A48002209EB1F
:101CC0008801C2554A700122C1F804A009F82820F1
:101CD0000020C8E70126DDE7B8390000E83700003A
:101CE0005001002008000020054A00EB400102EBF3
:101CF00081014968002901D100F042B87047000015
:101D0000500100201CB50AB94FF480728DF8001004
:101D1000064900EB400301EB830101928B681343FA
:101D20008B606946FFF702FE1CBD000050010020D9
:101D300070B50D4600781049164651F820400F49FD
:101D400000EB400011F82000022801D0082070BDEF
:101D50002846FFF715FE18B1300A03D0092070BDE0
:101D6000102070BDF0B2C4F83455C4F83805012015
:101D70002063002070BD0000E83700005001002003
:101D80002DE9FC5F06468C48815D002968D14FF043
:101D9000010B824600F806B0884806EB460150F871
:101DA0002650874800EB8100814644784FF48271C9
:101DB0002846FFF727FF80464FF492712846FFF729
:101DC00021FF40EA08074FF4A6712846FFF71AFFE3
:101DD00040EA07084FF4A8712846FFF713FF40EACE
:101DE00008074FF4B2712846FFF70CFF40EA0708D6
:101DF0004FF4B4712846FFF705FF40EA08074FF09B
:101E0000000827E0052C70D2DFE804F0034C688856
:101E1000A4004FF482713846FFF784FE10B127F01A
:101E2000020717E04FF4B4713846FFF77BFEC8B1E4
:101E30008DF800804FF4A8713846FFF773FE08B1A3
:101E400002241FE0012421E069463046FFF76EFDC1
:101E500027F0C367002FD5D189F801400AF8068022
:101E6000BDE8FC9F4FF4B2713846FFF75BFE80B1CE
:101E700003208DF800004FF4A6713846FFF752FE9C
:101E800018B104248DF80480DEE703248DF804B033
:101E9000DAE7D5F8D024C5F8D02406213046FFF77C
:101EA00031FFD9E74FF4A8713846FFF73BFE88B9F8
:101EB0004FF4B2713846FFF735FE58B94FF4B4719C
:101EC0003846FFF72FFE28B94FF482713846FFF7E6
:101ED00029FE58B1022437F48017BDD04FF4B271F7
:101EE0003846FFF71FFEA0B906E060E0D5F8D02421
:101EF000C5F8D024022155E04FF4B4713846FFF7FD
:101F000011FE30B94FF482713846FFF70BFE0028FE
:101F1000ECD08DF800B0D5F84C0532E04FF4A67146
:101F20003846FFF7FFFD88B94FF4B2713846FFF726
:101F3000F9FD58B94FF4B4713846FFF7F3FD28B9ED
:101F40004FF482713846FFF7EDFD30B3042437F4C7
:101F5000002781D04FF4B2713846FFF7E3FD58B93E
:101F60004FF4B4713846FFF7DDFD28B94FF48271A4
:101F70003846FFF7D7FD80B104208DF80000D5F872
:101F80003C056946C0B201903046FFF7CFFC002403
:101F900037F002077FF43DAF5EE7D5F8D024C5F8EF
:101FA000D02405213046FFF7ADFE002454E700247D
:101FB000002FEFD150E7000008000020E8370000B4
:101FC0005001002010B50021C0F80015491EC0F8CE
:101FD0000815C0F80C15020B52B202F01F040123C1
:101FE000A3405209920002F1E022C2F88031C0F809
:101FF000081310BD70B50D4600781049164651F80B
:1020000020400F4900EB400011F82000022801D0C9
:10201000082070BD2846FFF7B3FC18B1300A03D082
:10202000092070BD102070BDF0B2C4F84455C4F84A
:10203000480501206063002070BD0000E837000003
:10204000500100202DE9F04190460E00044603D1D6
:102050002FA1CA20FEF7EEFF20793D4F07EB401578
:10206000E87E10B10820BDE8F081707F2877314606
:102070002046FEF793FF5FEA080068603169296037
:1020800031D0207996F81C8007EB40104FF4A276EF
:10209000007F0028206814D04FF4887100F015FEEE
:1020A0004FF49071206800F010FE4FF49271206898
:1020B00000F00BFE3146206800F007FE254920683D
:1020C00009E04FF48E7100F0EFFD3146206800F01A
:1020D000EBFD21492068C0F8041320684146000B3D
:1020E00040B2FFF731FC207907EB4010007F002859
:1020F000206801D0082100E00421C0F8001500206C
:10210000E8752876A8750121E976A876ABE7000086
:102110002E2E5C2E2E5C2E2E5C2E2E5C2E2E5C2EF9
:102120002E5C636F6D706F6E656E74735C64726944
:10213000766572735F6E72665C756172745C6E72E6
:10214000665F6472765F756172742E6300000000D2
:102150005C01002010030200800002002DE9F04124
:102160000F460179DFF8D080054608EB411416468A
:10217000E07E012804D031A14FF4FD70FEF75AFF34
:1021800026B92EA140F2FB10FEF754FF29794046F4
:1021900008EB411191F81CC0BCF1000F07D04FF4BF
:1021A0000051B1EB174F02D01020BDE8F081D4F8F8
:1021B000048000234FF404714FF40172B8F1000F52
:1021C00009D0BCF1000FD5F800C002D0CCF808133C
:1021D00001E0CCF8082394F817C0BCF1000F15D02B
:1021E000237E7BB163685BB12B7900EB4310007FEA
:1021F0000028286802D0C0F8041301E0C0F80423C6
:102200001120D2E727610123267604E0E67500213C
:10221000E760617621762979324600EB4110394634
:10222000007F0028284603D0BDE8F04100F07AB8CE
:10223000BDE8F04100F022B85C0100202E2E5C2E9B
:102240002E5C2E2E5C2E2E5C2E2E5C2E2E5C636F52
:102250006D706F6E656E74735C64726976657273AF
:102260005F6E72665C756172745C6E72665F6472DA
:10227000765F756172742E63000000002DE9F05FD7
:1022800004460079264901EB4015A87E184302D187
:10229000204600F09AFD68680028206806D04FF4B8
:1022A0000171C0F804130020BDE8F09F4FF4A2763E
:1022B000314600F0F9FCB1464FF4927A4FF4847B3A
:1022C0005146206800F0EBFC06465946206800F0B5
:1022D000E6FC80464946206800F0E1FC074648EAF3
:1022E00007003043ECD056EA070007D129462068A2
:1022F00000F046FDE87D697E8842E1D80020E8755F
:102300000EB10320D0E70FB10F20CDE7A97E012049
:102310000029216801D00860C5E74860C3E70000D4
:102320005C0100202DE9F047884604464FF488758B
:10233000994616460068294600F0C7FC4FF4A2777C
:102340003946206800F0C1FC2068C0F83485C0F828
:1023500038652068B9F1000F13D0D0F8001241F0B1
:102360002001C0F800122079194E06EB4010406899
:1023700050B120684FF40471C0F804130020BDE888
:10238000F08701210160EEE7A946B8464FF4927A42
:102390004946206800F094FC07464146206800F05A
:1023A0008FFC05465146206800F08AFC014647EA4A
:1023B00005000843ECD02279002006EB4212D075CC
:1023C00009B10320DBE7002DD8D00F20D7E70000AC
:1023D0005C0100202DE9F0470E460179DFF82C81E1
:1023E000044608EB41151746E87E012804D048A1B1
:1023F0004FF4A870FEF71EFE27B945A140F2511018
:10240000FEF718FE26B942A14FF4A970FEF712FE9E
:102410002079424608EB4010007F38B14FF400505D
:10242000B0EB164F02D01020BDE8F087204600F038
:102430008FF808B11120F7E7AF750027AE60AF82C3
:1024400020794FF0010802EB40153E46287F002816
:10245000206825D04FF49079494600F036FC4FF4BF
:10246000AC7A5146206800F030FC2068A97DAA684B
:10247000C0F84425C0F848152068C0F8088068688E
:10248000F0B94946206800F01BFC804651462068A0
:1024900000F016FC58EA0001F3D058BBAF750FE00E
:1024A0004FF48E7A514600F0FFFB2068C0F8088098
:1024B0002946206800F0E2FF69684FF4807089B116
:1024C0003046B1E75146206800F0E9FB10B9A88A10
:1024D0004845F7D1A88A484505D02946206800F02C
:1024E000CDFF00E08146A88AA97D8842EAD3A88A68
:1024F000484501D10F26D1E75146206800F0CFFBB7
:102500000028F9D02068C0F80C80C7E75C010020E3
:102510002E2E5C2E2E5C2E2E5C2E2E5C2E2E5C2EF5
:102520002E5C636F6D706F6E656E74735C64726940
:10253000766572735F6E72665C756172745C6E72E2
:10254000665F6472765F756172742E6300000000CE
:102550000079044901EB4010807D002800D0012063
:10256000704700005C01002070B50179144A002515
:1025700002EB41140168237FC1F800556168C9B1BD
:10258000017902EB4111097F0029016801D00D4A50
:1025900001E00C4A8C3AC1F8082301680122090BBA
:1025A00049B201F01F039A404909890001F1E02175
:1025B000C1F8802100F08FFBE576656070BD0000FA
:1025C0005C0100201003020030B541EA4201DDE960
:1025D000034541EA8301800041EA042100F1A04063
:1025E00041EA0541C0F8001730BD30B541EA42016B
:1025F000DDE9034541EA8301800041EA042100F15D
:10260000A04041EA0541C0F8001730BD1CB50021CB
:1026100000910B4601220191FFF7E7FF1CBD1CB59D
:1026200000220B46009211460192FFF7DEFF1CBD0F
:102630001CB5002100910B46012201911146FFF7C4
:10264000D4FF1CBD800000F5E06000F1A0400268EE
:1026500022F440320260026842EA014101607047A0
:1026600001218140014801607047000008050050C9
:10267000034908B50844002101600068009008BDC6
:102680000060004002494058012800D000207047F7
:102690000060004038B50B4C607828B101226946D3
:1026A000201DFFF75BFD0AE00020A0700548012215
:1026B0006946001DFFF752FDA0780028FCD09DF868
:1026C000000038BD3000002000487047412700005E
:1026D00030B5184C054689B0207828B1607885421D
:1026E00002D1002009B030BD202213496846FDF711
:1026F000B1FE00208DF81400062000900820019003
:1027000005200390072002904FF0EB7006900948D7
:10271000001DFFF729FF0DB1002200E0074A054820
:102720006946001DFFF78EFC0028DBD101202070D8
:102730006570D6E730000020EC370000B9340000A7
:102740002DE9F04FC1B00D00DDF82CB14D984FF0E0
:1027500000011C4690460BEB000A409101D00A266E
:1027600000E0002600F07EFB002873D16F46BCB964
:10277000409840AA3918284600F036FC002869D055
:102780004046FDF779FEC22800D9C2200546409890
:102790002A4638444146FDF75DFE40982844409063
:1027A0004FF020094098821931320DEB0201684444
:1027B000002202E000F8019B521CB242FAD300272B
:1027C000544508D300F8019B00F8019B00F8019BD9
:1027D00001F8019B26E05C4502D24A9A125D03E0B3
:1027E0004C9AA4EB0B03D25C84460125AB0022FA81
:1027F00003F808F00F03092B01D9373300E0303319
:10280000C5F101086D1E0CF80830EFD20CF1020082
:10281000A2F1200300F8019B5E2B00D92E2201F8C3
:10282000012B641C7F1C102FCAD30D220A700A22B0
:102830004A7080F800904098811943316846409171
:1028400000F016FB30B100F00DFB18B900204090ED
:102850005445A7D341B02046BDE8F08F2DE9F043A1
:10286000C5B000251C46904689464C9F449500F013
:10287000F9FAB0BB449804AE311844AA484600F0B7
:10288000B3FB00282ED0072F22D2DFE807F0041276
:10289000192E384451004046FDF7EEFD0546449898
:1028A0002918FF2914D830442A464146FDF7D2FDA5
:1028B0000EE04498226830444146FEF773F806E083
:1028C000D4E90023449841463044FEF76BF80546AE
:1028D000294644A8FEF7B9FB18B14499B1F5807FA9
:1028E00033D9002045B0BDE8F083A0680090D4E95A
:1028F0000023449841463044FEF754F8E7E7D4E912
:102900000201CDE90001D4E9002344984146304456
:10291000FEF748F8DBE704F1080007C88DE8070078
:10292000D4E90023449841463044FEF73BF8CEE713
:1029300004F108000FC88DE80F00D4E90023449883
:1029400041463044FEF72EF8C1E704A800F090FAA3
:10295000C8E70000004870475D2800000120FFF72D
:10296000B7BE00002DE9F04F87B0FEF7A7FB18B106
:10297000002007B0BDE8F08F454ED6E9014704EAD4
:10298000070006EB8000A146641CC5680CE000BF90
:10299000C5F3891000EB9550044404EA070006EBE8
:1029A0008000A146C568641CA807F1D005F00300AB
:1029B0004FF0000B022805D0AA0A01A8C5F3831323
:1029C000002153E004EA070006EB800004F1010A4D
:1029D0000AEA0704C268381B80004FEA9558001DB8
:1029E000C5F38913804521D929490C3138B106EB4B
:1029F000840400F0FF0CA8EB00000C3404E00C464B
:102A0000002108F0FF0C0846C0B2CDE90210CDE964
:102A1000004CD6F81444C5F3C2005946A0474045BF
:102A200011D108F103080AEB98042AE0002106EB13
:102A300084000C300090CDE901810391C5F3C20000
:102A4000D6F81444EAE760F38F1509EA070006EBAD
:102A50008000C56016E000BF04EA070C06EB8C0C92
:102A6000491CDCF80CC040F804CB641C9942F3D339
:102A7000C5F3C2000093D6F8105401AB5946A847DD
:102A800000B17460FEF71AFB80F0010071E70000EE
:102A90007C0200202DE9F047DFF888808A4607464F
:102AA000D81C01211D46914601EB9000D8F8086022
:102AB000D8F80040FEF7D2FA002831D01A48002199
:102AC00004EA0602006A08EB820261F3820067F3FF
:102AD000C50065F39F50641CD06004EA060208EB51
:102AE0008202641CC2F80CA0D8F808003440001B15
:102AF0008600361DB54208EB840002D82A464946B6
:102B000009E0324649460C30FDF7A4FCA81B82B20E
:102B1000044809EB0601BDE8F0470C30FDF79ABC0C
:102B2000BDE8F0877C0200200C380000034AFF2338
:102B3000936000231360536000F058B87C020020BB
:102B40002DE9F047DFF83C800446002689463046F0
:102B5000D8F80870D8F80050FEF780FA00280ED098
:102B6000094800213D40406861F3820064F3C500DC
:102B700066F3891008EB850169F39F20C860BDE802
:102B8000F08700007C0200200C3800002DE9F0479F
:102B9000DFF84C8005460127924689463846D8F82A
:102BA0000860D8F80040FEF759FA002815D00D4803
:102BB000002104EA06028068641C61F3820065F368
:102BC000C50067F3891008EB8202344069F39F2047
:102BD00008EB8401D060C1F80CA0BDE8F0870000CC
:102BE0007C0200200C380000FFF754BD024A02F5B9
:102BF000826203C2704700007C02002070B5064666
:102C00000020FFF765FD040008D1FFF75DFD0546D4
:102C1000FFF7A0FE32462946FFF788FF204670BD29
:102C20002DE9F84FDFF850A08346DAF80880DAF88B
:102C30000070FDF721FC441C001D86084FF00009C0
:102C400069463046CDF80090FEF7A0FA05000FD097
:102C50000099484661F38F1007EA08070AEB8701DD
:102C600066F39F50C860224659462846FDF7F2FB9E
:102C70002846BDE8F88F00007C020020405800285C
:102C800000D00120704708B5002242504058009003
:102C900008BD08B5002343504058009008BD405877
:102CA000002800D00120704708B50022425040584B
:102CB000009008BDD0F80403084000D00120704700
:102CC0004058002800D00120704708B5002242502B
:102CD0004058009008BD70B502464FF0FF301168B3
:102CE000D1F80C35D1F81465D1F80855D1F8104554
:102CF000C1F80C05C1F814051168C1F80805C1F840
:102D000010051846FFF782FC3046FFF77FFC601C79
:102D100002D02046FFF77AFC681C04D02846BDE8A4
:102D20007040FFF773BC70BDEFF30580C005C00DA8
:102D300001D001207047EFF3148040F30000401CE5
:102D40007047000070B5012670044FF0E0210025A7
:102D5000C1F88001084C4010C4F84803C4F80803C7
:102D600066602F20FEF79CFDA660044C2F20A56016
:102D7000FEF796FDA57070BD001001400C0000200C
:102D800070B50546C87D0C4600284FF4847128466E
:102D90000AD0FFF789FFD5F81805627EE1688854EC
:102DA000607E401C607670BDFFF77EFFD5F8180589
:102DB00070BD1FB501238DF800308DF80810019209
:102DC000D0E90012684690471FBD10B50446006860
:102DD0004FF49271FFF768FF4FF484712068FFF79A
:102DE00063FF20680121016010BD0000F8B50027D5
:102DF0000D4604460097FDF729FB0646FFF7F4FE53
:102E000001463068405C10F03E0F12D004F8011B00
:102E10008DF800106846FFF703FF024610A113204B
:102E2000FFF7B4FEFFF79EFD0028FBD16D1EE5D134
:102E300003E00A2901D00D29E0D127700A208DF87E
:102E400000006846FFF7ECFE024605A11320FFF7DD
:102E50009DFE00BFFFF786FD0028FBD1F8BD0000F6
:102E6000257300000148FFF773BB00003400002009
:102E700070B50D460A46014601240648FDF7EAFAF8
:102E8000EAB204490448FFF7A5FA00B1002420463D
:102E900070BD00007C010020340000202DE9F84FB7
:102EA000204C00256846D4E901B6FEF783FA804637
:102EB000FEF722FB0746A946B8F1000F25D00023F4
:102EC000009ACC46606819E007680146974202D92B
:102ED000BA1A026014E0C1F800C0D1F80C80D21B0D
:102EE000C8693B448A46B8F1000F07D0F71827F0AD
:102EF0007F47C1E90178CAF81C500D460028E3D18C
:102F000060602846FEF74CFB04E02846FEF748FBCD
:102F100000B917B15846FEF7E3F884F80390BDE80E
:102F2000F88F00000C0000200D4B10B5596831B12E
:102F300002680C68A24204D8A21A0A60C1615860F3
:102F400010BD0B4603E00B46C969121B21B10C688A
:102F50009442F8D3A41A0C600260C161D86110BD1C
:102F60000C0000202DE9F0411D4D6C68002C35D07F
:102F70001C4800270068A968B846401A20F07F4620
:102F80002068B04215D82246361A0744E469107CFE
:102F900068B182F81080EB6833B1D2E90501984737
:102FA00028B1FDF781FF02E0D2E905108847002C27
:102FB000E6D129786878814206D1401CC0B2687099
:102FC000022801D185F8018005486978183040F859
:102FD0002170BDE8F0411420FDF774BBBDE8F0811D
:102FE0000C0000200415014010B5144602004FF0FB
:102FF00001000AD00846126805A1FDF7D3FC01467E
:103000002046BDE81040FEF720B80021216010BD29
:103010005B253038645D00002DE9F041044640F244
:103020000C602168890001F1A041C1F800076168C6
:10303000890001F1A041C1F800072068FFF710FBEB
:103040006068FFF70DFB216840F20D60890001F117
:10305000A041C1F800076168890001F1A041C1F8F1
:1030600000070420FEF7D6FBDFF858800025012674
:10307000A8F104072079D8F80010C14011F0010F21
:1030800002D0002D1BD00FE0207806FA00F0386047
:103090000420FEF7BFFB2068FFF7E2FA0420FEF7EA
:1030A000B9FB6D1C092DE5DB207986403E600420CC
:1030B000FEF7B0FB6068BDE8F041FFF7D1BABDE8AC
:1030C000F08100001005005001460320CA0701D01E
:1030D0004FF402408A0701D548F20120490701D583
:1030E00048F2022070472DE9FC5F0C4605461F465A
:1030F00093464FF0000A4FF482712046FFF7C3FD5C
:103100004FF492712046FFF7BEFD4FF48E712046BA
:10311000FFF7B9FD4FF484712046FFF7B4FD002698
:1031200085F8266085F82360012F0ED00120C4F8B1
:103130000002012020622060286840B140F2862011
:10314000A860A868C4F804031AE00220EFE705F1BC
:10315000260905F12308CDE900765B464A4641463B
:10316000204600F024F80028F5D195F8230038B166
:10317000D4F8C404C4F8C40410B1FFF7A5FF824614
:103180005046BDE8FC9F30B51C78039D944206D2A2
:10319000095DC0F81C151878401C187005E0012165
:1031A00015B1C161002030BD4161012030BD2DE964
:1031B000FF4F81B0044608780E9E90460F4618B91E
:1031C00098F80010B14201D1012100E000218946A8
:1031D0004FF48E7B4FF4927160B12046FFF753FDA0
:1031E00059462046FFF74FFD4FF484712046FFF704
:1031F0004AFD4DE08A462046FFF740FD012540BBD1
:1032000059462046FFF73AFD98B159462046FFF748
:103210003AFD51462046FFF731FDD0B90F98009096
:103220004346324620460499FFF7ADFF00283ED0C2
:103230002EE04FF4847B59462046FFF71FFD38B33C
:1032400059462046FFF71FFD51462046FFF716FD61
:1032500030B151462046FFF716FD65613D7017E01D
:1032600098F8002004994046B24211D2D4F818359B
:103270008B540178701E491CC9B288F80010814235
:1032800003D10220C4F8000201E0B14200D025625F
:10329000B9F1000F0ED04FF4827529462046FFF792
:1032A000EDFC38B129462046FFF7EDFC002005B0C3
:1032B000BDE8F08F0120FAE72DE9FC5F0C460546DA
:1032C0001E4692464FF000094FF4827120460C9F33
:1032D000FFF7D9FC4FF492712046FFF7D4FC4FF46E
:1032E0008E712046FFF7CFFC4FF484712046FFF724
:1032F000CAFC0020C4F8000285F8260085F82300E7
:1033000001202062A06005F126039B46324651460B
:1033100020460097FFF737FF286830B140F286203B
:10332000A860A868C4F8040316E005F12308534612
:103330005A4641462046CDE90067FFF738FF00288E
:10334000F5D195F8230038B1D4F8C404C4F8C40406
:1033500010B1FFF7B9FE81464846BDE8FC9FF8B5BD
:1033600004464FF0FF30C1F8080394F8240020B160
:10337000A068C1F804031120F8BD43F38000401C8D
:1033800084F82400180701D50620F8BDA36192E84F
:10339000610004F10C0787E86100907884F8200050
:1033A0005068E0615078C1F8880510780025012840
:1033B0000ED008B9980601D5012000E0002084F85D
:1033C00021000090937852682046FFF775FF06E0D1
:1033D00084F82150937852682046FFF784FE2168D4
:1033E0000029D2D184F82450F8BD0000F0B420495F
:1033F0000478204B4A68072C35D2DFE804F0041427
:10340000361721363600007900282CD0802A01D2C8
:10341000104601E000204860F0BCC0F1800219189D
:103420001548FEF7E7BD406810441BE0007900280E
:1034300019D0F0BC0F49092280310F48FEF778BC43
:103440004468002C0FD00B4D80350122287848604D
:1034500006E0AE5C802800D300201E54401C521CA5
:10346000A242F6D34860F0BC704701200870FAE72A
:103470000000002044000020D836000070B50C4643
:1034800005464FF48E71FFF70FFCA18AA068415CDE
:10349000A08A401CA082C5F81C1570BD1FB5002273
:1034A0008DF800208DF80810816801918275D0E9AF
:1034B0000012684690471FBD0078012801D10149DC
:1034C00088707047300000202DE9FF470C46054604
:1034D0004FF40071FFF7EEFB01274FF4017800264F
:1034E00018B34FF4927949462846FFF7D8FBE0B16C
:1034F00049462846FFF7D8FBC5F80883A07E00B9E7
:103500006F6002208DF80000D5F88004C5F88004B3
:103510000390E07D8DF80800E0680190E67526765E
:10352000D4E900126846904727E004212846FFF7B7
:10353000C1FB10B34FF484712846FFF7B0FBE0B134
:1035400021462846FFF71CFCE07D617E884214D1AD
:10355000207E38B1617EE268E0752069E060267601
:10356000667607E0A07E00B96F60C5F80883E6754F
:10357000617EE2682046FFF71CFC4FF48E784146DE
:103580002846FFF78CFB88B1A08AA17D884204D22F
:1035900021462846FFF772FF08E041462846FFF71C
:1035A00083FBA17D11B12046FFF778FF4FF4A2788D
:1035B00041462846FFF773FB002812D041462846B3
:1035C000FFF772FBA07E00B12F60E07D002808D0DD
:1035D000E675617EE26804B02046BDE8F047FFF77B
:1035E000E8BBBDE8FF872DE9FF410C464FF4927719
:1035F00005463946FFF764FB0026C0B13946284628
:10360000FFF763FB02208DF80000D5F88004C5F8B1
:1036100080040390D5F83C058DF80800E06801901F
:10362000E6752676D4E900126846904724E04FF408
:10363000887739462846FFF743FBE8B139462846E4
:10364000FFF743FBD5F83C05C1B2E07D884213D1BA
:10365000207E60B1E268D5F8000220F02000C5F8B5
:103660000002207EE0752069E060267601E0E675C4
:10367000E2682046FFF79DFB4FF4A27739462846C3
:10368000FFF71EFB68B139462846FFF71EFBE07DB9
:1036900038B1E675D5F83C05E268C1B22046FFF7BF
:1036A00088FB4FF4907631462846FFF709FB002847
:1036B0000FD031462846FFF708FBA07D002808D030
:1036C000D5F84C0504B0C1B22046BDE8F041FFF783
:1036D000E5BEBDE8FF8100000000000050000000D2
:1036E000000000001F000000030000001E0000009A
:1036F0000302000000300040000000002020207085
:10370000202D205072696E742074686520454550E4
:10371000524F4D20636F6E74656E747320696E2016
:103720006120666F726D3A20616464726573732CF8
:103730002038206279746573206F6620636F64653A
:103740002C20415343494920666F726D2E0D0A00AB
:1037500020202077202D20577269746520737472A1
:10376000696E67207374617274696E672066726F28
:103770006D206164647265737320302E0D0A002021
:10378000202063202D20436C6561722074686520C1
:103790006D656D6F72792028777269746520307855
:1037A0006666290D0A0020202078202D20476574A8
:1037B000207472616E736D697373696F6E206572C8
:1037C000726F7220627974652E0D0A00030000008A
:1037D0000400000000006806020000000100000074
:1037E000000000000000000000400040FFFFFFFF5D
:1037F000FFFFFFFFFFFFFFFFFFFFFFFF00000000D5
:10380000000000000000D6010601000029000000B1
:1038100001000000010000000100000001000000A4
:103820000100000001000000010000000200000093
:1038300000404040404040404040414141414140C3
:103840004040404040404040404040404040404078
:103850004005020202020202020202020202020207
:10386000022020202020202020202002020202020C
:103870000202909090909090101010101010101064
:103880001010101010101010101010100202020270
:1038900002028888888888880808080808080808B4
:1038A00008080808080808080808080802020202B0
:1038B00040000000313800005741524E494E473A0F
:1038C00020454550524F4D207472616E736D69737F
:1038D00073696F6E206572726F72206465746563C0
:1038E0007465642E0D0A5573652027782720636F51
:1038F0006D6D616E6420746F207265616420657205
:10390000726F7220776F72642E0D0A0054686973AB
:10391000206973205457495320616E6420545749DD
:10392000207573616765206578616D706C650D0A3F
:10393000596F752063616E206163636573732073D3
:10394000696D756C6174656420454550524F4D201A
:103950006D656D6F7279207573696E6720666F6C27
:103960006C6F77696E6720636F6D6D616E64733A1B
:103970000D0A00002E2E5C2E2E5C2E2E5C2E2E5C50
:103980002E2E5C2E2E5C636F6D706F6E656E747381
:103990005C647269766572735F6E72665C74776977
:1039A0005F6D61737465725C6E72665F6472765F80
:1039B0007477692E630000002E2E5C2E2E5C2E2E56
:1039C0005C2E2E5C2E2E5C2E2E5C636F6D706F6EE7
:1039D000656E74735C647269766572735F6E72662D
:1039E0005C747769735F736C6176655C6E72665F39
:1039F0006472765F747769732E6300004F76657228
:103A0000666C6F770D0A0000283A00000000002065
:103A100044000000CC0900006C3A00004400002083
:103A200054260000DC090000000000000000000037
:103A30000000000000000000000000000000000086
:103A40000000000000000000000000000000000076
:103A50000000000000000000000000000020004006
:0C3A600000000000FC3900000090D003C2
:0400000500000401F2
:00000001FF
